{
	"contracts/CryptoKids.sol": {
		"CryptoKids": {
			"abi": [
				{
					"inputs": [],
					"stateMutability": "nonpayable",
					"type": "constructor"
				},
				{
					"inputs": [
						{
							"internalType": "address",
							"name": "walletAddress",
							"type": "address"
						},
						{
							"internalType": "string",
							"name": "fullName",
							"type": "string"
						},
						{
							"internalType": "string",
							"name": "lastName",
							"type": "string"
						},
						{
							"internalType": "uint256",
							"name": "releaseTime",
							"type": "uint256"
						},
						{
							"internalType": "uint256",
							"name": "amount",
							"type": "uint256"
						},
						{
							"internalType": "bool",
							"name": "canWithdraw",
							"type": "bool"
						}
					],
					"name": "addKid",
					"outputs": [],
					"stateMutability": "nonpayable",
					"type": "function"
				},
				{
					"inputs": [],
					"name": "balanceof",
					"outputs": [
						{
							"internalType": "uint256",
							"name": "",
							"type": "uint256"
						}
					],
					"stateMutability": "view",
					"type": "function"
				},
				{
					"inputs": [
						{
							"internalType": "address",
							"name": "walletAddress",
							"type": "address"
						}
					],
					"name": "deposit",
					"outputs": [],
					"stateMutability": "payable",
					"type": "function"
				},
				{
					"inputs": [
						{
							"internalType": "uint256",
							"name": "",
							"type": "uint256"
						}
					],
					"name": "kids",
					"outputs": [
						{
							"internalType": "address",
							"name": "walletAddress",
							"type": "address"
						},
						{
							"internalType": "string",
							"name": "fullName",
							"type": "string"
						},
						{
							"internalType": "string",
							"name": "lastName",
							"type": "string"
						},
						{
							"internalType": "uint256",
							"name": "releaseTime",
							"type": "uint256"
						},
						{
							"internalType": "uint256",
							"name": "amount",
							"type": "uint256"
						},
						{
							"internalType": "bool",
							"name": "canWithdraw",
							"type": "bool"
						}
					],
					"stateMutability": "view",
					"type": "function"
				}
			],
			"devdoc": {
				"kind": "dev",
				"methods": {},
				"version": 1
			},
			"evm": {
				"assembly": "    /* \"contracts/CryptoKids.sol\":66:3493  contract CryptoKids{\r... */\n  mstore(0x40, 0x80)\n    /* \"contracts/CryptoKids.sol\":281:605  constructor()\r... */\n  callvalue\n  dup1\n  iszero\n  tag_1\n  jumpi\n  0x00\n  dup1\n  revert\ntag_1:\n  pop\n    /* \"contracts/CryptoKids.sol\":319:329  msg.sender */\n  caller\n    /* \"contracts/CryptoKids.sol\":313:318  owner */\n  0x00\n  dup1\n    /* \"contracts/CryptoKids.sol\":313:329  owner=msg.sender */\n  0x0100\n  exp\n  dup2\n  sload\n  dup2\n  0xffffffffffffffffffffffffffffffffffffffff\n  mul\n  not\n  and\n  swap1\n  dup4\n  0xffffffffffffffffffffffffffffffffffffffff\n  and\n  mul\n  or\n  swap1\n  sstore\n  pop\n    /* \"contracts/CryptoKids.sol\":66:3493  contract CryptoKids{\r... */\n  dataSize(sub_0)\n  dup1\n  dataOffset(sub_0)\n  0x00\n  codecopy\n  0x00\n  return\nstop\n\nsub_0: assembly {\n        /* \"contracts/CryptoKids.sol\":66:3493  contract CryptoKids{\r... */\n      mstore(0x40, 0x80)\n      jumpi(tag_1, lt(calldatasize, 0x04))\n      shr(0xe0, calldataload(0x00))\n      dup1\n      0x2980a5d3\n      eq\n      tag_2\n      jumpi\n      dup1\n      0x31d575c5\n      eq\n      tag_3\n      jumpi\n      dup1\n      0x7285fd3a\n      eq\n      tag_4\n      jumpi\n      dup1\n      0xf340fa01\n      eq\n      tag_5\n      jumpi\n    tag_1:\n      0x00\n      dup1\n      revert\n        /* \"contracts/CryptoKids.sol\":1158:1243  function balanceof() public view returns(uint){\r... */\n    tag_2:\n      callvalue\n      dup1\n      iszero\n      tag_6\n      jumpi\n      0x00\n      dup1\n      revert\n    tag_6:\n      pop\n      tag_7\n      tag_8\n      jump\t// in\n    tag_7:\n      mload(0x40)\n      tag_9\n      swap2\n      swap1\n      tag_10\n      jump\t// in\n    tag_9:\n      mload(0x40)\n      dup1\n      swap2\n      sub\n      swap1\n      return\n        /* \"contracts/CryptoKids.sol\":862:1154  function addKid(address walletAddress,string memory fullName,string memory lastName,uint releaseTime,uint amount,bool canWithdraw) public {\r... */\n    tag_3:\n      callvalue\n      dup1\n      iszero\n      tag_11\n      jumpi\n      0x00\n      dup1\n      revert\n    tag_11:\n      pop\n      tag_12\n      0x04\n      dup1\n      calldatasize\n      sub\n      dup2\n      add\n      swap1\n      tag_13\n      swap2\n      swap1\n      tag_14\n      jump\t// in\n    tag_13:\n      tag_15\n      jump\t// in\n    tag_12:\n      stop\n        /* \"contracts/CryptoKids.sol\":816:833  Kid[] public kids */\n    tag_4:\n      callvalue\n      dup1\n      iszero\n      tag_16\n      jumpi\n      0x00\n      dup1\n      revert\n    tag_16:\n      pop\n      tag_17\n      0x04\n      dup1\n      calldatasize\n      sub\n      dup2\n      add\n      swap1\n      tag_18\n      swap2\n      swap1\n      tag_19\n      jump\t// in\n    tag_18:\n      tag_20\n      jump\t// in\n    tag_17:\n      mload(0x40)\n      tag_21\n      swap7\n      swap6\n      swap5\n      swap4\n      swap3\n      swap2\n      swap1\n      tag_22\n      jump\t// in\n    tag_21:\n      mload(0x40)\n      dup1\n      swap2\n      sub\n      swap1\n      return\n        /* \"contracts/CryptoKids.sol\":1604:1700  function deposit ( address walletAddress) payable public{\r... */\n    tag_5:\n      tag_23\n      0x04\n      dup1\n      calldatasize\n      sub\n      dup2\n      add\n      swap1\n      tag_24\n      swap2\n      swap1\n      tag_25\n      jump\t// in\n    tag_24:\n      tag_26\n      jump\t// in\n    tag_23:\n      stop\n        /* \"contracts/CryptoKids.sol\":1158:1243  function balanceof() public view returns(uint){\r... */\n    tag_8:\n        /* \"contracts/CryptoKids.sol\":1199:1203  uint */\n      0x00\n        /* \"contracts/CryptoKids.sol\":1218:1239  address(this).balance */\n      selfbalance\n        /* \"contracts/CryptoKids.sol\":1211:1239  return address(this).balance */\n      swap1\n      pop\n        /* \"contracts/CryptoKids.sol\":1158:1243  function balanceof() public view returns(uint){\r... */\n      swap1\n      jump\t// out\n        /* \"contracts/CryptoKids.sol\":862:1154  function addKid(address walletAddress,string memory fullName,string memory lastName,uint releaseTime,uint amount,bool canWithdraw) public {\r... */\n    tag_15:\n        /* \"contracts/CryptoKids.sol\":1007:1011  kids */\n      0x01\n        /* \"contracts/CryptoKids.sol\":1017:1149  Kid(\r... */\n      mload(0x40)\n      dup1\n      0xc0\n      add\n      0x40\n      mstore\n      dup1\n        /* \"contracts/CryptoKids.sol\":1031:1044  walletAddress */\n      dup9\n        /* \"contracts/CryptoKids.sol\":1017:1149  Kid(\r... */\n      0xffffffffffffffffffffffffffffffffffffffff\n      and\n      dup2\n      mstore\n      0x20\n      add\n        /* \"contracts/CryptoKids.sol\":1056:1064  fullName */\n      dup8\n        /* \"contracts/CryptoKids.sol\":1017:1149  Kid(\r... */\n      dup2\n      mstore\n      0x20\n      add\n        /* \"contracts/CryptoKids.sol\":1076:1084  lastName */\n      dup7\n        /* \"contracts/CryptoKids.sol\":1017:1149  Kid(\r... */\n      dup2\n      mstore\n      0x20\n      add\n        /* \"contracts/CryptoKids.sol\":1097:1108  releaseTime */\n      dup6\n        /* \"contracts/CryptoKids.sol\":1017:1149  Kid(\r... */\n      dup2\n      mstore\n      0x20\n      add\n        /* \"contracts/CryptoKids.sol\":1119:1125  amount */\n      dup5\n        /* \"contracts/CryptoKids.sol\":1017:1149  Kid(\r... */\n      dup2\n      mstore\n      0x20\n      add\n        /* \"contracts/CryptoKids.sol\":1137:1148  canWithdraw */\n      dup4\n        /* \"contracts/CryptoKids.sol\":1017:1149  Kid(\r... */\n      iszero\n      iszero\n      dup2\n      mstore\n      pop\n        /* \"contracts/CryptoKids.sol\":1007:1150  kids.push(Kid(\r... */\n      swap1\n      dup1\n      0x01\n      dup2\n      sload\n      add\n      dup1\n      dup3\n      sstore\n      dup1\n      swap2\n      pop\n      pop\n      0x01\n      swap1\n      sub\n      swap1\n      0x00\n      mstore\n      keccak256(0x00, 0x20)\n      swap1\n      0x06\n      mul\n      add\n      0x00\n      swap1\n      swap2\n      swap1\n      swap2\n      swap1\n      swap2\n      pop\n      0x00\n      dup3\n      add\n      mload\n      dup2\n      0x00\n      add\n      exp(0x0100, 0x00)\n      dup2\n      sload\n      dup2\n      0xffffffffffffffffffffffffffffffffffffffff\n      mul\n      not\n      and\n      swap1\n      dup4\n      0xffffffffffffffffffffffffffffffffffffffff\n      and\n      mul\n      or\n      swap1\n      sstore\n      pop\n      0x20\n      dup3\n      add\n      mload\n      dup2\n      0x01\n      add\n      swap1\n      dup1\n      mload\n      swap1\n      0x20\n      add\n      swap1\n      tag_30\n      swap3\n      swap2\n      swap1\n      tag_31\n      jump\t// in\n    tag_30:\n      pop\n      0x40\n      dup3\n      add\n      mload\n      dup2\n      0x02\n      add\n      swap1\n      dup1\n      mload\n      swap1\n      0x20\n      add\n      swap1\n      tag_32\n      swap3\n      swap2\n      swap1\n      tag_31\n      jump\t// in\n    tag_32:\n      pop\n      0x60\n      dup3\n      add\n      mload\n      dup2\n      0x03\n      add\n      sstore\n      0x80\n      dup3\n      add\n      mload\n      dup2\n      0x04\n      add\n      sstore\n      0xa0\n      dup3\n      add\n      mload\n      dup2\n      0x05\n      add\n      exp(0x0100, 0x00)\n      dup2\n      sload\n      dup2\n      0xff\n      mul\n      not\n      and\n      swap1\n      dup4\n      iszero\n      iszero\n      mul\n      or\n      swap1\n      sstore\n      pop\n      pop\n      pop\n        /* \"contracts/CryptoKids.sol\":862:1154  function addKid(address walletAddress,string memory fullName,string memory lastName,uint releaseTime,uint amount,bool canWithdraw) public {\r... */\n      pop\n      pop\n      pop\n      pop\n      pop\n      pop\n      jump\t// out\n        /* \"contracts/CryptoKids.sol\":816:833  Kid[] public kids */\n    tag_20:\n      0x01\n      dup2\n      dup2\n      sload\n      dup2\n      lt\n      tag_33\n      jumpi\n      0x00\n      dup1\n      revert\n    tag_33:\n      swap1\n      0x00\n      mstore\n      keccak256(0x00, 0x20)\n      swap1\n      0x06\n      mul\n      add\n      0x00\n      swap2\n      pop\n      swap1\n      pop\n      dup1\n      0x00\n      add\n      0x00\n      swap1\n      sload\n      swap1\n      0x0100\n      exp\n      swap1\n      div\n      0xffffffffffffffffffffffffffffffffffffffff\n      and\n      swap1\n      dup1\n      0x01\n      add\n      dup1\n      sload\n      tag_35\n      swap1\n      tag_36\n      jump\t// in\n    tag_35:\n      dup1\n      0x1f\n      add\n      0x20\n      dup1\n      swap2\n      div\n      mul\n      0x20\n      add\n      mload(0x40)\n      swap1\n      dup2\n      add\n      0x40\n      mstore\n      dup1\n      swap3\n      swap2\n      swap1\n      dup2\n      dup2\n      mstore\n      0x20\n      add\n      dup3\n      dup1\n      sload\n      tag_37\n      swap1\n      tag_36\n      jump\t// in\n    tag_37:\n      dup1\n      iszero\n      tag_38\n      jumpi\n      dup1\n      0x1f\n      lt\n      tag_39\n      jumpi\n      0x0100\n      dup1\n      dup4\n      sload\n      div\n      mul\n      dup4\n      mstore\n      swap2\n      0x20\n      add\n      swap2\n      jump(tag_38)\n    tag_39:\n      dup3\n      add\n      swap2\n      swap1\n      0x00\n      mstore\n      keccak256(0x00, 0x20)\n      swap1\n    tag_40:\n      dup2\n      sload\n      dup2\n      mstore\n      swap1\n      0x01\n      add\n      swap1\n      0x20\n      add\n      dup1\n      dup4\n      gt\n      tag_40\n      jumpi\n      dup3\n      swap1\n      sub\n      0x1f\n      and\n      dup3\n      add\n      swap2\n    tag_38:\n      pop\n      pop\n      pop\n      pop\n      pop\n      swap1\n      dup1\n      0x02\n      add\n      dup1\n      sload\n      tag_41\n      swap1\n      tag_36\n      jump\t// in\n    tag_41:\n      dup1\n      0x1f\n      add\n      0x20\n      dup1\n      swap2\n      div\n      mul\n      0x20\n      add\n      mload(0x40)\n      swap1\n      dup2\n      add\n      0x40\n      mstore\n      dup1\n      swap3\n      swap2\n      swap1\n      dup2\n      dup2\n      mstore\n      0x20\n      add\n      dup3\n      dup1\n      sload\n      tag_42\n      swap1\n      tag_36\n      jump\t// in\n    tag_42:\n      dup1\n      iszero\n      tag_43\n      jumpi\n      dup1\n      0x1f\n      lt\n      tag_44\n      jumpi\n      0x0100\n      dup1\n      dup4\n      sload\n      div\n      mul\n      dup4\n      mstore\n      swap2\n      0x20\n      add\n      swap2\n      jump(tag_43)\n    tag_44:\n      dup3\n      add\n      swap2\n      swap1\n      0x00\n      mstore\n      keccak256(0x00, 0x20)\n      swap1\n    tag_45:\n      dup2\n      sload\n      dup2\n      mstore\n      swap1\n      0x01\n      add\n      swap1\n      0x20\n      add\n      dup1\n      dup4\n      gt\n      tag_45\n      jumpi\n      dup3\n      swap1\n      sub\n      0x1f\n      and\n      dup3\n      add\n      swap2\n    tag_43:\n      pop\n      pop\n      pop\n      pop\n      pop\n      swap1\n      dup1\n      0x03\n      add\n      sload\n      swap1\n      dup1\n      0x04\n      add\n      sload\n      swap1\n      dup1\n      0x05\n      add\n      0x00\n      swap1\n      sload\n      swap1\n      0x0100\n      exp\n      swap1\n      div\n      0xff\n      and\n      swap1\n      pop\n      dup7\n      jump\t// out\n        /* \"contracts/CryptoKids.sol\":1604:1700  function deposit ( address walletAddress) payable public{\r... */\n    tag_26:\n        /* \"contracts/CryptoKids.sol\":1663:1694  addtoKidsBalance(walletAddress) */\n      tag_47\n        /* \"contracts/CryptoKids.sol\":1680:1693  walletAddress */\n      dup2\n        /* \"contracts/CryptoKids.sol\":1663:1679  addtoKidsBalance */\n      tag_48\n        /* \"contracts/CryptoKids.sol\":1663:1694  addtoKidsBalance(walletAddress) */\n      jump\t// in\n    tag_47:\n        /* \"contracts/CryptoKids.sol\":1604:1700  function deposit ( address walletAddress) payable public{\r... */\n      pop\n      jump\t// out\n        /* \"contracts/CryptoKids.sol\":1820:1994  function addtoKidsBalance(address walletAddress) private {\r... */\n    tag_48:\n        /* \"contracts/CryptoKids.sol\":1888:1894  uint i */\n      0x00\n        /* \"contracts/CryptoKids.sol\":1884:1991  for(uint i=0;i<kids.length;i++)\r... */\n    tag_50:\n        /* \"contracts/CryptoKids.sol\":1899:1903  kids */\n      0x01\n        /* \"contracts/CryptoKids.sol\":1899:1910  kids.length */\n      dup1\n      sload\n      swap1\n      pop\n        /* \"contracts/CryptoKids.sol\":1897:1898  i */\n      dup2\n        /* \"contracts/CryptoKids.sol\":1897:1910  i<kids.length */\n      lt\n        /* \"contracts/CryptoKids.sol\":1884:1991  for(uint i=0;i<kids.length;i++)\r... */\n      iszero\n      tag_51\n      jumpi\n        /* \"contracts/CryptoKids.sol\":1958:1971  walletAddress */\n      dup2\n        /* \"contracts/CryptoKids.sol\":1935:1971  kids[i].walletAddress==walletAddress */\n      0xffffffffffffffffffffffffffffffffffffffff\n      and\n        /* \"contracts/CryptoKids.sol\":1935:1939  kids */\n      0x01\n        /* \"contracts/CryptoKids.sol\":1940:1941  i */\n      dup3\n        /* \"contracts/CryptoKids.sol\":1935:1942  kids[i] */\n      dup2\n      sload\n      dup2\n      lt\n      tag_53\n      jumpi\n      tag_54\n      tag_55\n      jump\t// in\n    tag_54:\n    tag_53:\n      swap1\n      0x00\n      mstore\n      keccak256(0x00, 0x20)\n      swap1\n      0x06\n      mul\n      add\n        /* \"contracts/CryptoKids.sol\":1935:1956  kids[i].walletAddress */\n      0x00\n      add\n      0x00\n      swap1\n      sload\n      swap1\n      0x0100\n      exp\n      swap1\n      pop\n      pop\n        /* \"contracts/CryptoKids.sol\":1935:1971  kids[i].walletAddress==walletAddress */\n      pop\n        /* \"contracts/CryptoKids.sol\":1911:1914  i++ */\n      dup1\n      dup1\n      tag_58\n      swap1\n      tag_59\n      jump\t// in\n    tag_58:\n      swap2\n      pop\n      pop\n        /* \"contracts/CryptoKids.sol\":1884:1991  for(uint i=0;i<kids.length;i++)\r... */\n      jump(tag_50)\n    tag_51:\n      pop\n        /* \"contracts/CryptoKids.sol\":1820:1994  function addtoKidsBalance(address walletAddress) private {\r... */\n      pop\n      jump\t// out\n    tag_31:\n      dup3\n      dup1\n      sload\n      tag_60\n      swap1\n      tag_36\n      jump\t// in\n    tag_60:\n      swap1\n      0x00\n      mstore\n      keccak256(0x00, 0x20)\n      swap1\n      0x1f\n      add\n      0x20\n      swap1\n      div\n      dup2\n      add\n      swap3\n      dup3\n      tag_62\n      jumpi\n      0x00\n      dup6\n      sstore\n      jump(tag_61)\n    tag_62:\n      dup3\n      0x1f\n      lt\n      tag_63\n      jumpi\n      dup1\n      mload\n      not(0xff)\n      and\n      dup4\n      dup1\n      add\n      or\n      dup6\n      sstore\n      jump(tag_61)\n    tag_63:\n      dup3\n      dup1\n      add\n      0x01\n      add\n      dup6\n      sstore\n      dup3\n      iszero\n      tag_61\n      jumpi\n      swap2\n      dup3\n      add\n    tag_64:\n      dup3\n      dup2\n      gt\n      iszero\n      tag_65\n      jumpi\n      dup3\n      mload\n      dup3\n      sstore\n      swap2\n      0x20\n      add\n      swap2\n      swap1\n      0x01\n      add\n      swap1\n      jump(tag_64)\n    tag_65:\n    tag_61:\n      pop\n      swap1\n      pop\n      tag_66\n      swap2\n      swap1\n      tag_67\n      jump\t// in\n    tag_66:\n      pop\n      swap1\n      jump\t// out\n    tag_67:\n    tag_68:\n      dup1\n      dup3\n      gt\n      iszero\n      tag_69\n      jumpi\n      0x00\n      dup2\n      0x00\n      swap1\n      sstore\n      pop\n      0x01\n      add\n      jump(tag_68)\n    tag_69:\n      pop\n      swap1\n      jump\t// out\n        /* \"#utility.yul\":7:419   */\n    tag_71:\n        /* \"#utility.yul\":85:90   */\n      0x00\n        /* \"#utility.yul\":110:176   */\n      tag_73\n        /* \"#utility.yul\":126:175   */\n      tag_74\n        /* \"#utility.yul\":168:174   */\n      dup5\n        /* \"#utility.yul\":126:175   */\n      tag_75\n      jump\t// in\n    tag_74:\n        /* \"#utility.yul\":110:176   */\n      tag_76\n      jump\t// in\n    tag_73:\n        /* \"#utility.yul\":101:176   */\n      swap1\n      pop\n        /* \"#utility.yul\":199:205   */\n      dup3\n        /* \"#utility.yul\":192:197   */\n      dup2\n        /* \"#utility.yul\":185:206   */\n      mstore\n        /* \"#utility.yul\":237:241   */\n      0x20\n        /* \"#utility.yul\":230:235   */\n      dup2\n        /* \"#utility.yul\":226:242   */\n      add\n        /* \"#utility.yul\":275:278   */\n      dup5\n        /* \"#utility.yul\":266:272   */\n      dup5\n        /* \"#utility.yul\":261:264   */\n      dup5\n        /* \"#utility.yul\":257:273   */\n      add\n        /* \"#utility.yul\":254:279   */\n      gt\n        /* \"#utility.yul\":251:363   */\n      iszero\n      tag_77\n      jumpi\n        /* \"#utility.yul\":282:361   */\n      tag_78\n      tag_79\n      jump\t// in\n    tag_78:\n        /* \"#utility.yul\":251:363   */\n    tag_77:\n        /* \"#utility.yul\":372:413   */\n      tag_80\n        /* \"#utility.yul\":406:412   */\n      dup5\n        /* \"#utility.yul\":401:404   */\n      dup3\n        /* \"#utility.yul\":396:399   */\n      dup6\n        /* \"#utility.yul\":372:413   */\n      tag_81\n      jump\t// in\n    tag_80:\n        /* \"#utility.yul\":91:419   */\n      pop\n        /* \"#utility.yul\":7:419   */\n      swap4\n      swap3\n      pop\n      pop\n      pop\n      jump\t// out\n        /* \"#utility.yul\":425:564   */\n    tag_82:\n        /* \"#utility.yul\":471:476   */\n      0x00\n        /* \"#utility.yul\":509:515   */\n      dup2\n        /* \"#utility.yul\":496:516   */\n      calldataload\n        /* \"#utility.yul\":487:516   */\n      swap1\n      pop\n        /* \"#utility.yul\":525:558   */\n      tag_84\n        /* \"#utility.yul\":552:557   */\n      dup2\n        /* \"#utility.yul\":525:558   */\n      tag_85\n      jump\t// in\n    tag_84:\n        /* \"#utility.yul\":425:564   */\n      swap3\n      swap2\n      pop\n      pop\n      jump\t// out\n        /* \"#utility.yul\":570:703   */\n    tag_86:\n        /* \"#utility.yul\":613:618   */\n      0x00\n        /* \"#utility.yul\":651:657   */\n      dup2\n        /* \"#utility.yul\":638:658   */\n      calldataload\n        /* \"#utility.yul\":629:658   */\n      swap1\n      pop\n        /* \"#utility.yul\":667:697   */\n      tag_88\n        /* \"#utility.yul\":691:696   */\n      dup2\n        /* \"#utility.yul\":667:697   */\n      tag_89\n      jump\t// in\n    tag_88:\n        /* \"#utility.yul\":570:703   */\n      swap3\n      swap2\n      pop\n      pop\n      jump\t// out\n        /* \"#utility.yul\":723:1063   */\n    tag_90:\n        /* \"#utility.yul\":779:784   */\n      0x00\n        /* \"#utility.yul\":828:831   */\n      dup3\n        /* \"#utility.yul\":821:825   */\n      0x1f\n        /* \"#utility.yul\":813:819   */\n      dup4\n        /* \"#utility.yul\":809:826   */\n      add\n        /* \"#utility.yul\":805:832   */\n      slt\n        /* \"#utility.yul\":795:917   */\n      tag_92\n      jumpi\n        /* \"#utility.yul\":836:915   */\n      tag_93\n      tag_94\n      jump\t// in\n    tag_93:\n        /* \"#utility.yul\":795:917   */\n    tag_92:\n        /* \"#utility.yul\":953:959   */\n      dup2\n        /* \"#utility.yul\":940:960   */\n      calldataload\n        /* \"#utility.yul\":978:1057   */\n      tag_95\n        /* \"#utility.yul\":1053:1056   */\n      dup5\n        /* \"#utility.yul\":1045:1051   */\n      dup3\n        /* \"#utility.yul\":1038:1042   */\n      0x20\n        /* \"#utility.yul\":1030:1036   */\n      dup7\n        /* \"#utility.yul\":1026:1043   */\n      add\n        /* \"#utility.yul\":978:1057   */\n      tag_71\n      jump\t// in\n    tag_95:\n        /* \"#utility.yul\":969:1057   */\n      swap2\n      pop\n        /* \"#utility.yul\":785:1063   */\n      pop\n        /* \"#utility.yul\":723:1063   */\n      swap3\n      swap2\n      pop\n      pop\n      jump\t// out\n        /* \"#utility.yul\":1069:1208   */\n    tag_96:\n        /* \"#utility.yul\":1115:1120   */\n      0x00\n        /* \"#utility.yul\":1153:1159   */\n      dup2\n        /* \"#utility.yul\":1140:1160   */\n      calldataload\n        /* \"#utility.yul\":1131:1160   */\n      swap1\n      pop\n        /* \"#utility.yul\":1169:1202   */\n      tag_98\n        /* \"#utility.yul\":1196:1201   */\n      dup2\n        /* \"#utility.yul\":1169:1202   */\n      tag_99\n      jump\t// in\n    tag_98:\n        /* \"#utility.yul\":1069:1208   */\n      swap3\n      swap2\n      pop\n      pop\n      jump\t// out\n        /* \"#utility.yul\":1214:1543   */\n    tag_25:\n        /* \"#utility.yul\":1273:1279   */\n      0x00\n        /* \"#utility.yul\":1322:1324   */\n      0x20\n        /* \"#utility.yul\":1310:1319   */\n      dup3\n        /* \"#utility.yul\":1301:1308   */\n      dup5\n        /* \"#utility.yul\":1297:1320   */\n      sub\n        /* \"#utility.yul\":1293:1325   */\n      slt\n        /* \"#utility.yul\":1290:1409   */\n      iszero\n      tag_101\n      jumpi\n        /* \"#utility.yul\":1328:1407   */\n      tag_102\n      tag_103\n      jump\t// in\n    tag_102:\n        /* \"#utility.yul\":1290:1409   */\n    tag_101:\n        /* \"#utility.yul\":1448:1449   */\n      0x00\n        /* \"#utility.yul\":1473:1526   */\n      tag_104\n        /* \"#utility.yul\":1518:1525   */\n      dup5\n        /* \"#utility.yul\":1509:1515   */\n      dup3\n        /* \"#utility.yul\":1498:1507   */\n      dup6\n        /* \"#utility.yul\":1494:1516   */\n      add\n        /* \"#utility.yul\":1473:1526   */\n      tag_82\n      jump\t// in\n    tag_104:\n        /* \"#utility.yul\":1463:1526   */\n      swap2\n      pop\n        /* \"#utility.yul\":1419:1536   */\n      pop\n        /* \"#utility.yul\":1214:1543   */\n      swap3\n      swap2\n      pop\n      pop\n      jump\t// out\n        /* \"#utility.yul\":1549:2960   */\n    tag_14:\n        /* \"#utility.yul\":1670:1676   */\n      0x00\n        /* \"#utility.yul\":1678:1684   */\n      dup1\n        /* \"#utility.yul\":1686:1692   */\n      0x00\n        /* \"#utility.yul\":1694:1700   */\n      dup1\n        /* \"#utility.yul\":1702:1708   */\n      0x00\n        /* \"#utility.yul\":1710:1716   */\n      dup1\n        /* \"#utility.yul\":1759:1762   */\n      0xc0\n        /* \"#utility.yul\":1747:1756   */\n      dup8\n        /* \"#utility.yul\":1738:1745   */\n      dup10\n        /* \"#utility.yul\":1734:1757   */\n      sub\n        /* \"#utility.yul\":1730:1763   */\n      slt\n        /* \"#utility.yul\":1727:1847   */\n      iszero\n      tag_106\n      jumpi\n        /* \"#utility.yul\":1766:1845   */\n      tag_107\n      tag_103\n      jump\t// in\n    tag_107:\n        /* \"#utility.yul\":1727:1847   */\n    tag_106:\n        /* \"#utility.yul\":1886:1887   */\n      0x00\n        /* \"#utility.yul\":1911:1964   */\n      tag_108\n        /* \"#utility.yul\":1956:1963   */\n      dup10\n        /* \"#utility.yul\":1947:1953   */\n      dup3\n        /* \"#utility.yul\":1936:1945   */\n      dup11\n        /* \"#utility.yul\":1932:1954   */\n      add\n        /* \"#utility.yul\":1911:1964   */\n      tag_82\n      jump\t// in\n    tag_108:\n        /* \"#utility.yul\":1901:1964   */\n      swap7\n      pop\n        /* \"#utility.yul\":1857:1974   */\n      pop\n        /* \"#utility.yul\":2041:2043   */\n      0x20\n        /* \"#utility.yul\":2030:2039   */\n      dup8\n        /* \"#utility.yul\":2026:2044   */\n      add\n        /* \"#utility.yul\":2013:2045   */\n      calldataload\n        /* \"#utility.yul\":2072:2090   */\n      0xffffffffffffffff\n        /* \"#utility.yul\":2064:2070   */\n      dup2\n        /* \"#utility.yul\":2061:2091   */\n      gt\n        /* \"#utility.yul\":2058:2175   */\n      iszero\n      tag_109\n      jumpi\n        /* \"#utility.yul\":2094:2173   */\n      tag_110\n      tag_111\n      jump\t// in\n    tag_110:\n        /* \"#utility.yul\":2058:2175   */\n    tag_109:\n        /* \"#utility.yul\":2199:2262   */\n      tag_112\n        /* \"#utility.yul\":2254:2261   */\n      dup10\n        /* \"#utility.yul\":2245:2251   */\n      dup3\n        /* \"#utility.yul\":2234:2243   */\n      dup11\n        /* \"#utility.yul\":2230:2252   */\n      add\n        /* \"#utility.yul\":2199:2262   */\n      tag_90\n      jump\t// in\n    tag_112:\n        /* \"#utility.yul\":2189:2262   */\n      swap6\n      pop\n        /* \"#utility.yul\":1984:2272   */\n      pop\n        /* \"#utility.yul\":2339:2341   */\n      0x40\n        /* \"#utility.yul\":2328:2337   */\n      dup8\n        /* \"#utility.yul\":2324:2342   */\n      add\n        /* \"#utility.yul\":2311:2343   */\n      calldataload\n        /* \"#utility.yul\":2370:2388   */\n      0xffffffffffffffff\n        /* \"#utility.yul\":2362:2368   */\n      dup2\n        /* \"#utility.yul\":2359:2389   */\n      gt\n        /* \"#utility.yul\":2356:2473   */\n      iszero\n      tag_113\n      jumpi\n        /* \"#utility.yul\":2392:2471   */\n      tag_114\n      tag_111\n      jump\t// in\n    tag_114:\n        /* \"#utility.yul\":2356:2473   */\n    tag_113:\n        /* \"#utility.yul\":2497:2560   */\n      tag_115\n        /* \"#utility.yul\":2552:2559   */\n      dup10\n        /* \"#utility.yul\":2543:2549   */\n      dup3\n        /* \"#utility.yul\":2532:2541   */\n      dup11\n        /* \"#utility.yul\":2528:2550   */\n      add\n        /* \"#utility.yul\":2497:2560   */\n      tag_90\n      jump\t// in\n    tag_115:\n        /* \"#utility.yul\":2487:2560   */\n      swap5\n      pop\n        /* \"#utility.yul\":2282:2570   */\n      pop\n        /* \"#utility.yul\":2609:2611   */\n      0x60\n        /* \"#utility.yul\":2635:2688   */\n      tag_116\n        /* \"#utility.yul\":2680:2687   */\n      dup10\n        /* \"#utility.yul\":2671:2677   */\n      dup3\n        /* \"#utility.yul\":2660:2669   */\n      dup11\n        /* \"#utility.yul\":2656:2678   */\n      add\n        /* \"#utility.yul\":2635:2688   */\n      tag_96\n      jump\t// in\n    tag_116:\n        /* \"#utility.yul\":2625:2688   */\n      swap4\n      pop\n        /* \"#utility.yul\":2580:2698   */\n      pop\n        /* \"#utility.yul\":2737:2740   */\n      0x80\n        /* \"#utility.yul\":2764:2817   */\n      tag_117\n        /* \"#utility.yul\":2809:2816   */\n      dup10\n        /* \"#utility.yul\":2800:2806   */\n      dup3\n        /* \"#utility.yul\":2789:2798   */\n      dup11\n        /* \"#utility.yul\":2785:2807   */\n      add\n        /* \"#utility.yul\":2764:2817   */\n      tag_96\n      jump\t// in\n    tag_117:\n        /* \"#utility.yul\":2754:2817   */\n      swap3\n      pop\n        /* \"#utility.yul\":2708:2827   */\n      pop\n        /* \"#utility.yul\":2866:2869   */\n      0xa0\n        /* \"#utility.yul\":2893:2943   */\n      tag_118\n        /* \"#utility.yul\":2935:2942   */\n      dup10\n        /* \"#utility.yul\":2926:2932   */\n      dup3\n        /* \"#utility.yul\":2915:2924   */\n      dup11\n        /* \"#utility.yul\":2911:2933   */\n      add\n        /* \"#utility.yul\":2893:2943   */\n      tag_86\n      jump\t// in\n    tag_118:\n        /* \"#utility.yul\":2883:2943   */\n      swap2\n      pop\n        /* \"#utility.yul\":2837:2953   */\n      pop\n        /* \"#utility.yul\":1549:2960   */\n      swap3\n      swap6\n      pop\n      swap3\n      swap6\n      pop\n      swap3\n      swap6\n      jump\t// out\n        /* \"#utility.yul\":2966:3295   */\n    tag_19:\n        /* \"#utility.yul\":3025:3031   */\n      0x00\n        /* \"#utility.yul\":3074:3076   */\n      0x20\n        /* \"#utility.yul\":3062:3071   */\n      dup3\n        /* \"#utility.yul\":3053:3060   */\n      dup5\n        /* \"#utility.yul\":3049:3072   */\n      sub\n        /* \"#utility.yul\":3045:3077   */\n      slt\n        /* \"#utility.yul\":3042:3161   */\n      iszero\n      tag_120\n      jumpi\n        /* \"#utility.yul\":3080:3159   */\n      tag_121\n      tag_103\n      jump\t// in\n    tag_121:\n        /* \"#utility.yul\":3042:3161   */\n    tag_120:\n        /* \"#utility.yul\":3200:3201   */\n      0x00\n        /* \"#utility.yul\":3225:3278   */\n      tag_122\n        /* \"#utility.yul\":3270:3277   */\n      dup5\n        /* \"#utility.yul\":3261:3267   */\n      dup3\n        /* \"#utility.yul\":3250:3259   */\n      dup6\n        /* \"#utility.yul\":3246:3268   */\n      add\n        /* \"#utility.yul\":3225:3278   */\n      tag_96\n      jump\t// in\n    tag_122:\n        /* \"#utility.yul\":3215:3278   */\n      swap2\n      pop\n        /* \"#utility.yul\":3171:3288   */\n      pop\n        /* \"#utility.yul\":2966:3295   */\n      swap3\n      swap2\n      pop\n      pop\n      jump\t// out\n        /* \"#utility.yul\":3301:3419   */\n    tag_123:\n        /* \"#utility.yul\":3388:3412   */\n      tag_125\n        /* \"#utility.yul\":3406:3411   */\n      dup2\n        /* \"#utility.yul\":3388:3412   */\n      tag_126\n      jump\t// in\n    tag_125:\n        /* \"#utility.yul\":3383:3386   */\n      dup3\n        /* \"#utility.yul\":3376:3413   */\n      mstore\n        /* \"#utility.yul\":3301:3419   */\n      pop\n      pop\n      jump\t// out\n        /* \"#utility.yul\":3425:3534   */\n    tag_127:\n        /* \"#utility.yul\":3506:3527   */\n      tag_129\n        /* \"#utility.yul\":3521:3526   */\n      dup2\n        /* \"#utility.yul\":3506:3527   */\n      tag_130\n      jump\t// in\n    tag_129:\n        /* \"#utility.yul\":3501:3504   */\n      dup3\n        /* \"#utility.yul\":3494:3528   */\n      mstore\n        /* \"#utility.yul\":3425:3534   */\n      pop\n      pop\n      jump\t// out\n        /* \"#utility.yul\":3540:3904   */\n    tag_131:\n        /* \"#utility.yul\":3628:3631   */\n      0x00\n        /* \"#utility.yul\":3656:3695   */\n      tag_133\n        /* \"#utility.yul\":3689:3694   */\n      dup3\n        /* \"#utility.yul\":3656:3695   */\n      tag_134\n      jump\t// in\n    tag_133:\n        /* \"#utility.yul\":3711:3782   */\n      tag_135\n        /* \"#utility.yul\":3775:3781   */\n      dup2\n        /* \"#utility.yul\":3770:3773   */\n      dup6\n        /* \"#utility.yul\":3711:3782   */\n      tag_136\n      jump\t// in\n    tag_135:\n        /* \"#utility.yul\":3704:3782   */\n      swap4\n      pop\n        /* \"#utility.yul\":3791:3843   */\n      tag_137\n        /* \"#utility.yul\":3836:3842   */\n      dup2\n        /* \"#utility.yul\":3831:3834   */\n      dup6\n        /* \"#utility.yul\":3824:3828   */\n      0x20\n        /* \"#utility.yul\":3817:3822   */\n      dup7\n        /* \"#utility.yul\":3813:3829   */\n      add\n        /* \"#utility.yul\":3791:3843   */\n      tag_138\n      jump\t// in\n    tag_137:\n        /* \"#utility.yul\":3868:3897   */\n      tag_139\n        /* \"#utility.yul\":3890:3896   */\n      dup2\n        /* \"#utility.yul\":3868:3897   */\n      tag_140\n      jump\t// in\n    tag_139:\n        /* \"#utility.yul\":3863:3866   */\n      dup5\n        /* \"#utility.yul\":3859:3898   */\n      add\n        /* \"#utility.yul\":3852:3898   */\n      swap2\n      pop\n        /* \"#utility.yul\":3632:3904   */\n      pop\n        /* \"#utility.yul\":3540:3904   */\n      swap3\n      swap2\n      pop\n      pop\n      jump\t// out\n        /* \"#utility.yul\":3910:4028   */\n    tag_141:\n        /* \"#utility.yul\":3997:4021   */\n      tag_143\n        /* \"#utility.yul\":4015:4020   */\n      dup2\n        /* \"#utility.yul\":3997:4021   */\n      tag_144\n      jump\t// in\n    tag_143:\n        /* \"#utility.yul\":3992:3995   */\n      dup3\n        /* \"#utility.yul\":3985:4022   */\n      mstore\n        /* \"#utility.yul\":3910:4028   */\n      pop\n      pop\n      jump\t// out\n        /* \"#utility.yul\":4034:4979   */\n    tag_22:\n        /* \"#utility.yul\":4301:4305   */\n      0x00\n        /* \"#utility.yul\":4339:4342   */\n      0xc0\n        /* \"#utility.yul\":4328:4337   */\n      dup3\n        /* \"#utility.yul\":4324:4343   */\n      add\n        /* \"#utility.yul\":4316:4343   */\n      swap1\n      pop\n        /* \"#utility.yul\":4353:4424   */\n      tag_146\n        /* \"#utility.yul\":4421:4422   */\n      0x00\n        /* \"#utility.yul\":4410:4419   */\n      dup4\n        /* \"#utility.yul\":4406:4423   */\n      add\n        /* \"#utility.yul\":4397:4403   */\n      dup10\n        /* \"#utility.yul\":4353:4424   */\n      tag_123\n      jump\t// in\n    tag_146:\n        /* \"#utility.yul\":4471:4480   */\n      dup2\n        /* \"#utility.yul\":4465:4469   */\n      dup2\n        /* \"#utility.yul\":4461:4481   */\n      sub\n        /* \"#utility.yul\":4456:4458   */\n      0x20\n        /* \"#utility.yul\":4445:4454   */\n      dup4\n        /* \"#utility.yul\":4441:4459   */\n      add\n        /* \"#utility.yul\":4434:4482   */\n      mstore\n        /* \"#utility.yul\":4499:4577   */\n      tag_147\n        /* \"#utility.yul\":4572:4576   */\n      dup2\n        /* \"#utility.yul\":4563:4569   */\n      dup9\n        /* \"#utility.yul\":4499:4577   */\n      tag_131\n      jump\t// in\n    tag_147:\n        /* \"#utility.yul\":4491:4577   */\n      swap1\n      pop\n        /* \"#utility.yul\":4624:4633   */\n      dup2\n        /* \"#utility.yul\":4618:4622   */\n      dup2\n        /* \"#utility.yul\":4614:4634   */\n      sub\n        /* \"#utility.yul\":4609:4611   */\n      0x40\n        /* \"#utility.yul\":4598:4607   */\n      dup4\n        /* \"#utility.yul\":4594:4612   */\n      add\n        /* \"#utility.yul\":4587:4635   */\n      mstore\n        /* \"#utility.yul\":4652:4730   */\n      tag_148\n        /* \"#utility.yul\":4725:4729   */\n      dup2\n        /* \"#utility.yul\":4716:4722   */\n      dup8\n        /* \"#utility.yul\":4652:4730   */\n      tag_131\n      jump\t// in\n    tag_148:\n        /* \"#utility.yul\":4644:4730   */\n      swap1\n      pop\n        /* \"#utility.yul\":4740:4812   */\n      tag_149\n        /* \"#utility.yul\":4808:4810   */\n      0x60\n        /* \"#utility.yul\":4797:4806   */\n      dup4\n        /* \"#utility.yul\":4793:4811   */\n      add\n        /* \"#utility.yul\":4784:4790   */\n      dup7\n        /* \"#utility.yul\":4740:4812   */\n      tag_141\n      jump\t// in\n    tag_149:\n        /* \"#utility.yul\":4822:4895   */\n      tag_150\n        /* \"#utility.yul\":4890:4893   */\n      0x80\n        /* \"#utility.yul\":4879:4888   */\n      dup4\n        /* \"#utility.yul\":4875:4894   */\n      add\n        /* \"#utility.yul\":4866:4872   */\n      dup6\n        /* \"#utility.yul\":4822:4895   */\n      tag_141\n      jump\t// in\n    tag_150:\n        /* \"#utility.yul\":4905:4972   */\n      tag_151\n        /* \"#utility.yul\":4967:4970   */\n      0xa0\n        /* \"#utility.yul\":4956:4965   */\n      dup4\n        /* \"#utility.yul\":4952:4971   */\n      add\n        /* \"#utility.yul\":4943:4949   */\n      dup5\n        /* \"#utility.yul\":4905:4972   */\n      tag_127\n      jump\t// in\n    tag_151:\n        /* \"#utility.yul\":4034:4979   */\n      swap8\n      swap7\n      pop\n      pop\n      pop\n      pop\n      pop\n      pop\n      pop\n      jump\t// out\n        /* \"#utility.yul\":4985:5207   */\n    tag_10:\n        /* \"#utility.yul\":5078:5082   */\n      0x00\n        /* \"#utility.yul\":5116:5118   */\n      0x20\n        /* \"#utility.yul\":5105:5114   */\n      dup3\n        /* \"#utility.yul\":5101:5119   */\n      add\n        /* \"#utility.yul\":5093:5119   */\n      swap1\n      pop\n        /* \"#utility.yul\":5129:5200   */\n      tag_153\n        /* \"#utility.yul\":5197:5198   */\n      0x00\n        /* \"#utility.yul\":5186:5195   */\n      dup4\n        /* \"#utility.yul\":5182:5199   */\n      add\n        /* \"#utility.yul\":5173:5179   */\n      dup5\n        /* \"#utility.yul\":5129:5200   */\n      tag_141\n      jump\t// in\n    tag_153:\n        /* \"#utility.yul\":4985:5207   */\n      swap3\n      swap2\n      pop\n      pop\n      jump\t// out\n        /* \"#utility.yul\":5213:5342   */\n    tag_76:\n        /* \"#utility.yul\":5247:5253   */\n      0x00\n        /* \"#utility.yul\":5274:5294   */\n      tag_155\n      tag_156\n      jump\t// in\n    tag_155:\n        /* \"#utility.yul\":5264:5294   */\n      swap1\n      pop\n        /* \"#utility.yul\":5303:5336   */\n      tag_157\n        /* \"#utility.yul\":5331:5335   */\n      dup3\n        /* \"#utility.yul\":5323:5329   */\n      dup3\n        /* \"#utility.yul\":5303:5336   */\n      tag_158\n      jump\t// in\n    tag_157:\n        /* \"#utility.yul\":5213:5342   */\n      swap2\n      swap1\n      pop\n      jump\t// out\n        /* \"#utility.yul\":5348:5423   */\n    tag_156:\n        /* \"#utility.yul\":5381:5387   */\n      0x00\n        /* \"#utility.yul\":5414:5416   */\n      0x40\n        /* \"#utility.yul\":5408:5417   */\n      mload\n        /* \"#utility.yul\":5398:5417   */\n      swap1\n      pop\n        /* \"#utility.yul\":5348:5423   */\n      swap1\n      jump\t// out\n        /* \"#utility.yul\":5429:5737   */\n    tag_75:\n        /* \"#utility.yul\":5491:5495   */\n      0x00\n        /* \"#utility.yul\":5581:5599   */\n      0xffffffffffffffff\n        /* \"#utility.yul\":5573:5579   */\n      dup3\n        /* \"#utility.yul\":5570:5600   */\n      gt\n        /* \"#utility.yul\":5567:5623   */\n      iszero\n      tag_161\n      jumpi\n        /* \"#utility.yul\":5603:5621   */\n      tag_162\n      tag_163\n      jump\t// in\n    tag_162:\n        /* \"#utility.yul\":5567:5623   */\n    tag_161:\n        /* \"#utility.yul\":5641:5670   */\n      tag_164\n        /* \"#utility.yul\":5663:5669   */\n      dup3\n        /* \"#utility.yul\":5641:5670   */\n      tag_140\n      jump\t// in\n    tag_164:\n        /* \"#utility.yul\":5633:5670   */\n      swap1\n      pop\n        /* \"#utility.yul\":5725:5729   */\n      0x20\n        /* \"#utility.yul\":5719:5723   */\n      dup2\n        /* \"#utility.yul\":5715:5730   */\n      add\n        /* \"#utility.yul\":5707:5730   */\n      swap1\n      pop\n        /* \"#utility.yul\":5429:5737   */\n      swap2\n      swap1\n      pop\n      jump\t// out\n        /* \"#utility.yul\":5743:5842   */\n    tag_134:\n        /* \"#utility.yul\":5795:5801   */\n      0x00\n        /* \"#utility.yul\":5829:5834   */\n      dup2\n        /* \"#utility.yul\":5823:5835   */\n      mload\n        /* \"#utility.yul\":5813:5835   */\n      swap1\n      pop\n        /* \"#utility.yul\":5743:5842   */\n      swap2\n      swap1\n      pop\n      jump\t// out\n        /* \"#utility.yul\":5848:6017   */\n    tag_136:\n        /* \"#utility.yul\":5932:5943   */\n      0x00\n        /* \"#utility.yul\":5966:5972   */\n      dup3\n        /* \"#utility.yul\":5961:5964   */\n      dup3\n        /* \"#utility.yul\":5954:5973   */\n      mstore\n        /* \"#utility.yul\":6006:6010   */\n      0x20\n        /* \"#utility.yul\":6001:6004   */\n      dup3\n        /* \"#utility.yul\":5997:6011   */\n      add\n        /* \"#utility.yul\":5982:6011   */\n      swap1\n      pop\n        /* \"#utility.yul\":5848:6017   */\n      swap3\n      swap2\n      pop\n      pop\n      jump\t// out\n        /* \"#utility.yul\":6023:6119   */\n    tag_126:\n        /* \"#utility.yul\":6060:6067   */\n      0x00\n        /* \"#utility.yul\":6089:6113   */\n      tag_168\n        /* \"#utility.yul\":6107:6112   */\n      dup3\n        /* \"#utility.yul\":6089:6113   */\n      tag_169\n      jump\t// in\n    tag_168:\n        /* \"#utility.yul\":6078:6113   */\n      swap1\n      pop\n        /* \"#utility.yul\":6023:6119   */\n      swap2\n      swap1\n      pop\n      jump\t// out\n        /* \"#utility.yul\":6125:6215   */\n    tag_130:\n        /* \"#utility.yul\":6159:6166   */\n      0x00\n        /* \"#utility.yul\":6202:6207   */\n      dup2\n        /* \"#utility.yul\":6195:6208   */\n      iszero\n        /* \"#utility.yul\":6188:6209   */\n      iszero\n        /* \"#utility.yul\":6177:6209   */\n      swap1\n      pop\n        /* \"#utility.yul\":6125:6215   */\n      swap2\n      swap1\n      pop\n      jump\t// out\n        /* \"#utility.yul\":6221:6347   */\n    tag_169:\n        /* \"#utility.yul\":6258:6265   */\n      0x00\n        /* \"#utility.yul\":6298:6340   */\n      0xffffffffffffffffffffffffffffffffffffffff\n        /* \"#utility.yul\":6291:6296   */\n      dup3\n        /* \"#utility.yul\":6287:6341   */\n      and\n        /* \"#utility.yul\":6276:6341   */\n      swap1\n      pop\n        /* \"#utility.yul\":6221:6347   */\n      swap2\n      swap1\n      pop\n      jump\t// out\n        /* \"#utility.yul\":6353:6430   */\n    tag_144:\n        /* \"#utility.yul\":6390:6397   */\n      0x00\n        /* \"#utility.yul\":6419:6424   */\n      dup2\n        /* \"#utility.yul\":6408:6424   */\n      swap1\n      pop\n        /* \"#utility.yul\":6353:6430   */\n      swap2\n      swap1\n      pop\n      jump\t// out\n        /* \"#utility.yul\":6436:6590   */\n    tag_81:\n        /* \"#utility.yul\":6520:6526   */\n      dup3\n        /* \"#utility.yul\":6515:6518   */\n      dup2\n        /* \"#utility.yul\":6510:6513   */\n      dup4\n        /* \"#utility.yul\":6497:6527   */\n      calldatacopy\n        /* \"#utility.yul\":6582:6583   */\n      0x00\n        /* \"#utility.yul\":6573:6579   */\n      dup4\n        /* \"#utility.yul\":6568:6571   */\n      dup4\n        /* \"#utility.yul\":6564:6580   */\n      add\n        /* \"#utility.yul\":6557:6584   */\n      mstore\n        /* \"#utility.yul\":6436:6590   */\n      pop\n      pop\n      pop\n      jump\t// out\n        /* \"#utility.yul\":6596:6903   */\n    tag_138:\n        /* \"#utility.yul\":6664:6665   */\n      0x00\n        /* \"#utility.yul\":6674:6787   */\n    tag_175:\n        /* \"#utility.yul\":6688:6694   */\n      dup4\n        /* \"#utility.yul\":6685:6686   */\n      dup2\n        /* \"#utility.yul\":6682:6695   */\n      lt\n        /* \"#utility.yul\":6674:6787   */\n      iszero\n      tag_177\n      jumpi\n        /* \"#utility.yul\":6773:6774   */\n      dup1\n        /* \"#utility.yul\":6768:6771   */\n      dup3\n        /* \"#utility.yul\":6764:6775   */\n      add\n        /* \"#utility.yul\":6758:6776   */\n      mload\n        /* \"#utility.yul\":6754:6755   */\n      dup2\n        /* \"#utility.yul\":6749:6752   */\n      dup5\n        /* \"#utility.yul\":6745:6756   */\n      add\n        /* \"#utility.yul\":6738:6777   */\n      mstore\n        /* \"#utility.yul\":6710:6712   */\n      0x20\n        /* \"#utility.yul\":6707:6708   */\n      dup2\n        /* \"#utility.yul\":6703:6713   */\n      add\n        /* \"#utility.yul\":6698:6713   */\n      swap1\n      pop\n        /* \"#utility.yul\":6674:6787   */\n      jump(tag_175)\n    tag_177:\n        /* \"#utility.yul\":6805:6811   */\n      dup4\n        /* \"#utility.yul\":6802:6803   */\n      dup2\n        /* \"#utility.yul\":6799:6812   */\n      gt\n        /* \"#utility.yul\":6796:6897   */\n      iszero\n      tag_178\n      jumpi\n        /* \"#utility.yul\":6885:6886   */\n      0x00\n        /* \"#utility.yul\":6876:6882   */\n      dup5\n        /* \"#utility.yul\":6871:6874   */\n      dup5\n        /* \"#utility.yul\":6867:6883   */\n      add\n        /* \"#utility.yul\":6860:6887   */\n      mstore\n        /* \"#utility.yul\":6796:6897   */\n    tag_178:\n        /* \"#utility.yul\":6645:6903   */\n      pop\n        /* \"#utility.yul\":6596:6903   */\n      pop\n      pop\n      pop\n      jump\t// out\n        /* \"#utility.yul\":6909:7229   */\n    tag_36:\n        /* \"#utility.yul\":6953:6959   */\n      0x00\n        /* \"#utility.yul\":6990:6991   */\n      0x02\n        /* \"#utility.yul\":6984:6988   */\n      dup3\n        /* \"#utility.yul\":6980:6992   */\n      div\n        /* \"#utility.yul\":6970:6992   */\n      swap1\n      pop\n        /* \"#utility.yul\":7037:7038   */\n      0x01\n        /* \"#utility.yul\":7031:7035   */\n      dup3\n        /* \"#utility.yul\":7027:7039   */\n      and\n        /* \"#utility.yul\":7058:7076   */\n      dup1\n        /* \"#utility.yul\":7048:7129   */\n      tag_180\n      jumpi\n        /* \"#utility.yul\":7114:7118   */\n      0x7f\n        /* \"#utility.yul\":7106:7112   */\n      dup3\n        /* \"#utility.yul\":7102:7119   */\n      and\n        /* \"#utility.yul\":7092:7119   */\n      swap2\n      pop\n        /* \"#utility.yul\":7048:7129   */\n    tag_180:\n        /* \"#utility.yul\":7176:7178   */\n      0x20\n        /* \"#utility.yul\":7168:7174   */\n      dup3\n        /* \"#utility.yul\":7165:7179   */\n      lt\n        /* \"#utility.yul\":7145:7163   */\n      dup2\n        /* \"#utility.yul\":7142:7180   */\n      eq\n        /* \"#utility.yul\":7139:7223   */\n      iszero\n      tag_181\n      jumpi\n        /* \"#utility.yul\":7195:7213   */\n      tag_182\n      tag_183\n      jump\t// in\n    tag_182:\n        /* \"#utility.yul\":7139:7223   */\n    tag_181:\n        /* \"#utility.yul\":6960:7229   */\n      pop\n        /* \"#utility.yul\":6909:7229   */\n      swap2\n      swap1\n      pop\n      jump\t// out\n        /* \"#utility.yul\":7235:7516   */\n    tag_158:\n        /* \"#utility.yul\":7318:7345   */\n      tag_185\n        /* \"#utility.yul\":7340:7344   */\n      dup3\n        /* \"#utility.yul\":7318:7345   */\n      tag_140\n      jump\t// in\n    tag_185:\n        /* \"#utility.yul\":7310:7316   */\n      dup2\n        /* \"#utility.yul\":7306:7346   */\n      add\n        /* \"#utility.yul\":7448:7454   */\n      dup2\n        /* \"#utility.yul\":7436:7446   */\n      dup2\n        /* \"#utility.yul\":7433:7455   */\n      lt\n        /* \"#utility.yul\":7412:7430   */\n      0xffffffffffffffff\n        /* \"#utility.yul\":7400:7410   */\n      dup3\n        /* \"#utility.yul\":7397:7431   */\n      gt\n        /* \"#utility.yul\":7394:7456   */\n      or\n        /* \"#utility.yul\":7391:7479   */\n      iszero\n      tag_186\n      jumpi\n        /* \"#utility.yul\":7459:7477   */\n      tag_187\n      tag_163\n      jump\t// in\n    tag_187:\n        /* \"#utility.yul\":7391:7479   */\n    tag_186:\n        /* \"#utility.yul\":7499:7509   */\n      dup1\n        /* \"#utility.yul\":7495:7497   */\n      0x40\n        /* \"#utility.yul\":7488:7510   */\n      mstore\n        /* \"#utility.yul\":7278:7516   */\n      pop\n        /* \"#utility.yul\":7235:7516   */\n      pop\n      pop\n      jump\t// out\n        /* \"#utility.yul\":7522:7755   */\n    tag_59:\n        /* \"#utility.yul\":7561:7564   */\n      0x00\n        /* \"#utility.yul\":7584:7608   */\n      tag_189\n        /* \"#utility.yul\":7602:7607   */\n      dup3\n        /* \"#utility.yul\":7584:7608   */\n      tag_144\n      jump\t// in\n    tag_189:\n        /* \"#utility.yul\":7575:7608   */\n      swap2\n      pop\n        /* \"#utility.yul\":7630:7696   */\n      0xffffffffffffffffffffffffffffffffffffffffffffffffffffffffffffffff\n        /* \"#utility.yul\":7623:7628   */\n      dup3\n        /* \"#utility.yul\":7620:7697   */\n      eq\n        /* \"#utility.yul\":7617:7720   */\n      iszero\n      tag_190\n      jumpi\n        /* \"#utility.yul\":7700:7718   */\n      tag_191\n      tag_192\n      jump\t// in\n    tag_191:\n        /* \"#utility.yul\":7617:7720   */\n    tag_190:\n        /* \"#utility.yul\":7747:7748   */\n      0x01\n        /* \"#utility.yul\":7740:7745   */\n      dup3\n        /* \"#utility.yul\":7736:7749   */\n      add\n        /* \"#utility.yul\":7729:7749   */\n      swap1\n      pop\n        /* \"#utility.yul\":7522:7755   */\n      swap2\n      swap1\n      pop\n      jump\t// out\n        /* \"#utility.yul\":7761:7941   */\n    tag_192:\n        /* \"#utility.yul\":7809:7886   */\n      0x4e487b7100000000000000000000000000000000000000000000000000000000\n        /* \"#utility.yul\":7806:7807   */\n      0x00\n        /* \"#utility.yul\":7799:7887   */\n      mstore\n        /* \"#utility.yul\":7906:7910   */\n      0x11\n        /* \"#utility.yul\":7903:7904   */\n      0x04\n        /* \"#utility.yul\":7896:7911   */\n      mstore\n        /* \"#utility.yul\":7930:7934   */\n      0x24\n        /* \"#utility.yul\":7927:7928   */\n      0x00\n        /* \"#utility.yul\":7920:7935   */\n      revert\n        /* \"#utility.yul\":7947:8127   */\n    tag_183:\n        /* \"#utility.yul\":7995:8072   */\n      0x4e487b7100000000000000000000000000000000000000000000000000000000\n        /* \"#utility.yul\":7992:7993   */\n      0x00\n        /* \"#utility.yul\":7985:8073   */\n      mstore\n        /* \"#utility.yul\":8092:8096   */\n      0x22\n        /* \"#utility.yul\":8089:8090   */\n      0x04\n        /* \"#utility.yul\":8082:8097   */\n      mstore\n        /* \"#utility.yul\":8116:8120   */\n      0x24\n        /* \"#utility.yul\":8113:8114   */\n      0x00\n        /* \"#utility.yul\":8106:8121   */\n      revert\n        /* \"#utility.yul\":8133:8313   */\n    tag_55:\n        /* \"#utility.yul\":8181:8258   */\n      0x4e487b7100000000000000000000000000000000000000000000000000000000\n        /* \"#utility.yul\":8178:8179   */\n      0x00\n        /* \"#utility.yul\":8171:8259   */\n      mstore\n        /* \"#utility.yul\":8278:8282   */\n      0x32\n        /* \"#utility.yul\":8275:8276   */\n      0x04\n        /* \"#utility.yul\":8268:8283   */\n      mstore\n        /* \"#utility.yul\":8302:8306   */\n      0x24\n        /* \"#utility.yul\":8299:8300   */\n      0x00\n        /* \"#utility.yul\":8292:8307   */\n      revert\n        /* \"#utility.yul\":8319:8499   */\n    tag_163:\n        /* \"#utility.yul\":8367:8444   */\n      0x4e487b7100000000000000000000000000000000000000000000000000000000\n        /* \"#utility.yul\":8364:8365   */\n      0x00\n        /* \"#utility.yul\":8357:8445   */\n      mstore\n        /* \"#utility.yul\":8464:8468   */\n      0x41\n        /* \"#utility.yul\":8461:8462   */\n      0x04\n        /* \"#utility.yul\":8454:8469   */\n      mstore\n        /* \"#utility.yul\":8488:8492   */\n      0x24\n        /* \"#utility.yul\":8485:8486   */\n      0x00\n        /* \"#utility.yul\":8478:8493   */\n      revert\n        /* \"#utility.yul\":8505:8622   */\n    tag_94:\n        /* \"#utility.yul\":8614:8615   */\n      0x00\n        /* \"#utility.yul\":8611:8612   */\n      dup1\n        /* \"#utility.yul\":8604:8616   */\n      revert\n        /* \"#utility.yul\":8628:8745   */\n    tag_79:\n        /* \"#utility.yul\":8737:8738   */\n      0x00\n        /* \"#utility.yul\":8734:8735   */\n      dup1\n        /* \"#utility.yul\":8727:8739   */\n      revert\n        /* \"#utility.yul\":8751:8868   */\n    tag_111:\n        /* \"#utility.yul\":8860:8861   */\n      0x00\n        /* \"#utility.yul\":8857:8858   */\n      dup1\n        /* \"#utility.yul\":8850:8862   */\n      revert\n        /* \"#utility.yul\":8874:8991   */\n    tag_103:\n        /* \"#utility.yul\":8983:8984   */\n      0x00\n        /* \"#utility.yul\":8980:8981   */\n      dup1\n        /* \"#utility.yul\":8973:8985   */\n      revert\n        /* \"#utility.yul\":8997:9099   */\n    tag_140:\n        /* \"#utility.yul\":9038:9044   */\n      0x00\n        /* \"#utility.yul\":9089:9091   */\n      0x1f\n        /* \"#utility.yul\":9085:9092   */\n      not\n        /* \"#utility.yul\":9080:9082   */\n      0x1f\n        /* \"#utility.yul\":9073:9078   */\n      dup4\n        /* \"#utility.yul\":9069:9083   */\n      add\n        /* \"#utility.yul\":9065:9093   */\n      and\n        /* \"#utility.yul\":9055:9093   */\n      swap1\n      pop\n        /* \"#utility.yul\":8997:9099   */\n      swap2\n      swap1\n      pop\n      jump\t// out\n        /* \"#utility.yul\":9105:9227   */\n    tag_85:\n        /* \"#utility.yul\":9178:9202   */\n      tag_203\n        /* \"#utility.yul\":9196:9201   */\n      dup2\n        /* \"#utility.yul\":9178:9202   */\n      tag_126\n      jump\t// in\n    tag_203:\n        /* \"#utility.yul\":9171:9176   */\n      dup2\n        /* \"#utility.yul\":9168:9203   */\n      eq\n        /* \"#utility.yul\":9158:9221   */\n      tag_204\n      jumpi\n        /* \"#utility.yul\":9217:9218   */\n      0x00\n        /* \"#utility.yul\":9214:9215   */\n      dup1\n        /* \"#utility.yul\":9207:9219   */\n      revert\n        /* \"#utility.yul\":9158:9221   */\n    tag_204:\n        /* \"#utility.yul\":9105:9227   */\n      pop\n      jump\t// out\n        /* \"#utility.yul\":9233:9349   */\n    tag_89:\n        /* \"#utility.yul\":9303:9324   */\n      tag_206\n        /* \"#utility.yul\":9318:9323   */\n      dup2\n        /* \"#utility.yul\":9303:9324   */\n      tag_130\n      jump\t// in\n    tag_206:\n        /* \"#utility.yul\":9296:9301   */\n      dup2\n        /* \"#utility.yul\":9293:9325   */\n      eq\n        /* \"#utility.yul\":9283:9343   */\n      tag_207\n      jumpi\n        /* \"#utility.yul\":9339:9340   */\n      0x00\n        /* \"#utility.yul\":9336:9337   */\n      dup1\n        /* \"#utility.yul\":9329:9341   */\n      revert\n        /* \"#utility.yul\":9283:9343   */\n    tag_207:\n        /* \"#utility.yul\":9233:9349   */\n      pop\n      jump\t// out\n        /* \"#utility.yul\":9355:9477   */\n    tag_99:\n        /* \"#utility.yul\":9428:9452   */\n      tag_209\n        /* \"#utility.yul\":9446:9451   */\n      dup2\n        /* \"#utility.yul\":9428:9452   */\n      tag_144\n      jump\t// in\n    tag_209:\n        /* \"#utility.yul\":9421:9426   */\n      dup2\n        /* \"#utility.yul\":9418:9453   */\n      eq\n        /* \"#utility.yul\":9408:9471   */\n      tag_210\n      jumpi\n        /* \"#utility.yul\":9467:9468   */\n      0x00\n        /* \"#utility.yul\":9464:9465   */\n      dup1\n        /* \"#utility.yul\":9457:9469   */\n      revert\n        /* \"#utility.yul\":9408:9471   */\n    tag_210:\n        /* \"#utility.yul\":9355:9477   */\n      pop\n      jump\t// out\n\n    auxdata: 0xa2646970667358221220ff7486f819267de621d959610f4c13c03ea4423df5478f827c5f194ab94053a564736f6c63430008070033\n}\n",
				"bytecode": {
					"linkReferences": {},
					"object": "608060405234801561001057600080fd5b50336000806101000a81548173ffffffffffffffffffffffffffffffffffffffff021916908373ffffffffffffffffffffffffffffffffffffffff160217905550610a97806100606000396000f3fe60806040526004361061003f5760003560e01c80632980a5d31461004457806331d575c51461006f5780637285fd3a14610098578063f340fa01146100da575b600080fd5b34801561005057600080fd5b506100596100f6565b6040516100669190610778565b60405180910390f35b34801561007b57600080fd5b50610096600480360381019061009191906105b1565b6100fe565b005b3480156100a457600080fd5b506100bf60048036038101906100ba9190610676565b61022d565b6040516100d196959493929190610709565b60405180910390f35b6100f460048036038101906100ef9190610584565b6103b6565b005b600047905090565b60016040518060c001604052808873ffffffffffffffffffffffffffffffffffffffff168152602001878152602001868152602001858152602001848152602001831515815250908060018154018082558091505060019003906000526020600020906006020160009091909190915060008201518160000160006101000a81548173ffffffffffffffffffffffffffffffffffffffff021916908373ffffffffffffffffffffffffffffffffffffffff16021790555060208201518160010190805190602001906101d1929190610432565b5060408201518160020190805190602001906101ee929190610432565b50606082015181600301556080820151816004015560a08201518160050160006101000a81548160ff0219169083151502179055505050505050505050565b6001818154811061023d57600080fd5b90600052602060002090600602016000915090508060000160009054906101000a900473ffffffffffffffffffffffffffffffffffffffff16908060010180546102869061088f565b80601f01602080910402602001604051908101604052809291908181526020018280546102b29061088f565b80156102ff5780601f106102d4576101008083540402835291602001916102ff565b820191906000526020600020905b8154815290600101906020018083116102e257829003601f168201915b5050505050908060020180546103149061088f565b80601f01602080910402602001604051908101604052809291908181526020018280546103409061088f565b801561038d5780601f106103625761010080835404028352916020019161038d565b820191906000526020600020905b81548152906001019060200180831161037057829003601f168201915b5050505050908060030154908060040154908060050160009054906101000a900460ff16905086565b6103bf816103c2565b50565b60005b60018054905081101561042e578173ffffffffffffffffffffffffffffffffffffffff16600182815481106103fd576103fc610999565b5b906000526020600020906006020160000160009054906101000a905050508080610426906108f2565b9150506103c5565b5050565b82805461043e9061088f565b90600052602060002090601f01602090048101928261046057600085556104a7565b82601f1061047957805160ff19168380011785556104a7565b828001600101855582156104a7579182015b828111156104a657825182559160200191906001019061048b565b5b5090506104b491906104b8565b5090565b5b808211156104d15760008160009055506001016104b9565b5090565b60006104e86104e3846107b8565b610793565b905082815260208101848484011115610504576105036109fc565b5b61050f84828561084d565b509392505050565b60008135905061052681610a1c565b92915050565b60008135905061053b81610a33565b92915050565b600082601f830112610556576105556109f7565b5b81356105668482602086016104d5565b91505092915050565b60008135905061057e81610a4a565b92915050565b60006020828403121561059a57610599610a06565b5b60006105a884828501610517565b91505092915050565b60008060008060008060c087890312156105ce576105cd610a06565b5b60006105dc89828a01610517565b965050602087013567ffffffffffffffff8111156105fd576105fc610a01565b5b61060989828a01610541565b955050604087013567ffffffffffffffff81111561062a57610629610a01565b5b61063689828a01610541565b945050606061064789828a0161056f565b935050608061065889828a0161056f565b92505060a061066989828a0161052c565b9150509295509295509295565b60006020828403121561068c5761068b610a06565b5b600061069a8482850161056f565b91505092915050565b6106ac81610805565b82525050565b6106bb81610817565b82525050565b60006106cc826107e9565b6106d681856107f4565b93506106e681856020860161085c565b6106ef81610a0b565b840191505092915050565b61070381610843565b82525050565b600060c08201905061071e60008301896106a3565b818103602083015261073081886106c1565b9050818103604083015261074481876106c1565b905061075360608301866106fa565b61076060808301856106fa565b61076d60a08301846106b2565b979650505050505050565b600060208201905061078d60008301846106fa565b92915050565b600061079d6107ae565b90506107a982826108c1565b919050565b6000604051905090565b600067ffffffffffffffff8211156107d3576107d26109c8565b5b6107dc82610a0b565b9050602081019050919050565b600081519050919050565b600082825260208201905092915050565b600061081082610823565b9050919050565b60008115159050919050565b600073ffffffffffffffffffffffffffffffffffffffff82169050919050565b6000819050919050565b82818337600083830152505050565b60005b8381101561087a57808201518184015260208101905061085f565b83811115610889576000848401525b50505050565b600060028204905060018216806108a757607f821691505b602082108114156108bb576108ba61096a565b5b50919050565b6108ca82610a0b565b810181811067ffffffffffffffff821117156108e9576108e86109c8565b5b80604052505050565b60006108fd82610843565b91507fffffffffffffffffffffffffffffffffffffffffffffffffffffffffffffffff8214156109305761092f61093b565b5b600182019050919050565b7f4e487b7100000000000000000000000000000000000000000000000000000000600052601160045260246000fd5b7f4e487b7100000000000000000000000000000000000000000000000000000000600052602260045260246000fd5b7f4e487b7100000000000000000000000000000000000000000000000000000000600052603260045260246000fd5b7f4e487b7100000000000000000000000000000000000000000000000000000000600052604160045260246000fd5b600080fd5b600080fd5b600080fd5b600080fd5b6000601f19601f8301169050919050565b610a2581610805565b8114610a3057600080fd5b50565b610a3c81610817565b8114610a4757600080fd5b50565b610a5381610843565b8114610a5e57600080fd5b5056fea2646970667358221220ff7486f819267de621d959610f4c13c03ea4423df5478f827c5f194ab94053a564736f6c63430008070033",
					"opcodes": "PUSH1 0x80 PUSH1 0x40 MSTORE CALLVALUE DUP1 ISZERO PUSH2 0x10 JUMPI PUSH1 0x0 DUP1 REVERT JUMPDEST POP CALLER PUSH1 0x0 DUP1 PUSH2 0x100 EXP DUP2 SLOAD DUP2 PUSH20 0xFFFFFFFFFFFFFFFFFFFFFFFFFFFFFFFFFFFFFFFF MUL NOT AND SWAP1 DUP4 PUSH20 0xFFFFFFFFFFFFFFFFFFFFFFFFFFFFFFFFFFFFFFFF AND MUL OR SWAP1 SSTORE POP PUSH2 0xA97 DUP1 PUSH2 0x60 PUSH1 0x0 CODECOPY PUSH1 0x0 RETURN INVALID PUSH1 0x80 PUSH1 0x40 MSTORE PUSH1 0x4 CALLDATASIZE LT PUSH2 0x3F JUMPI PUSH1 0x0 CALLDATALOAD PUSH1 0xE0 SHR DUP1 PUSH4 0x2980A5D3 EQ PUSH2 0x44 JUMPI DUP1 PUSH4 0x31D575C5 EQ PUSH2 0x6F JUMPI DUP1 PUSH4 0x7285FD3A EQ PUSH2 0x98 JUMPI DUP1 PUSH4 0xF340FA01 EQ PUSH2 0xDA JUMPI JUMPDEST PUSH1 0x0 DUP1 REVERT JUMPDEST CALLVALUE DUP1 ISZERO PUSH2 0x50 JUMPI PUSH1 0x0 DUP1 REVERT JUMPDEST POP PUSH2 0x59 PUSH2 0xF6 JUMP JUMPDEST PUSH1 0x40 MLOAD PUSH2 0x66 SWAP2 SWAP1 PUSH2 0x778 JUMP JUMPDEST PUSH1 0x40 MLOAD DUP1 SWAP2 SUB SWAP1 RETURN JUMPDEST CALLVALUE DUP1 ISZERO PUSH2 0x7B JUMPI PUSH1 0x0 DUP1 REVERT JUMPDEST POP PUSH2 0x96 PUSH1 0x4 DUP1 CALLDATASIZE SUB DUP2 ADD SWAP1 PUSH2 0x91 SWAP2 SWAP1 PUSH2 0x5B1 JUMP JUMPDEST PUSH2 0xFE JUMP JUMPDEST STOP JUMPDEST CALLVALUE DUP1 ISZERO PUSH2 0xA4 JUMPI PUSH1 0x0 DUP1 REVERT JUMPDEST POP PUSH2 0xBF PUSH1 0x4 DUP1 CALLDATASIZE SUB DUP2 ADD SWAP1 PUSH2 0xBA SWAP2 SWAP1 PUSH2 0x676 JUMP JUMPDEST PUSH2 0x22D JUMP JUMPDEST PUSH1 0x40 MLOAD PUSH2 0xD1 SWAP7 SWAP6 SWAP5 SWAP4 SWAP3 SWAP2 SWAP1 PUSH2 0x709 JUMP JUMPDEST PUSH1 0x40 MLOAD DUP1 SWAP2 SUB SWAP1 RETURN JUMPDEST PUSH2 0xF4 PUSH1 0x4 DUP1 CALLDATASIZE SUB DUP2 ADD SWAP1 PUSH2 0xEF SWAP2 SWAP1 PUSH2 0x584 JUMP JUMPDEST PUSH2 0x3B6 JUMP JUMPDEST STOP JUMPDEST PUSH1 0x0 SELFBALANCE SWAP1 POP SWAP1 JUMP JUMPDEST PUSH1 0x1 PUSH1 0x40 MLOAD DUP1 PUSH1 0xC0 ADD PUSH1 0x40 MSTORE DUP1 DUP9 PUSH20 0xFFFFFFFFFFFFFFFFFFFFFFFFFFFFFFFFFFFFFFFF AND DUP2 MSTORE PUSH1 0x20 ADD DUP8 DUP2 MSTORE PUSH1 0x20 ADD DUP7 DUP2 MSTORE PUSH1 0x20 ADD DUP6 DUP2 MSTORE PUSH1 0x20 ADD DUP5 DUP2 MSTORE PUSH1 0x20 ADD DUP4 ISZERO ISZERO DUP2 MSTORE POP SWAP1 DUP1 PUSH1 0x1 DUP2 SLOAD ADD DUP1 DUP3 SSTORE DUP1 SWAP2 POP POP PUSH1 0x1 SWAP1 SUB SWAP1 PUSH1 0x0 MSTORE PUSH1 0x20 PUSH1 0x0 KECCAK256 SWAP1 PUSH1 0x6 MUL ADD PUSH1 0x0 SWAP1 SWAP2 SWAP1 SWAP2 SWAP1 SWAP2 POP PUSH1 0x0 DUP3 ADD MLOAD DUP2 PUSH1 0x0 ADD PUSH1 0x0 PUSH2 0x100 EXP DUP2 SLOAD DUP2 PUSH20 0xFFFFFFFFFFFFFFFFFFFFFFFFFFFFFFFFFFFFFFFF MUL NOT AND SWAP1 DUP4 PUSH20 0xFFFFFFFFFFFFFFFFFFFFFFFFFFFFFFFFFFFFFFFF AND MUL OR SWAP1 SSTORE POP PUSH1 0x20 DUP3 ADD MLOAD DUP2 PUSH1 0x1 ADD SWAP1 DUP1 MLOAD SWAP1 PUSH1 0x20 ADD SWAP1 PUSH2 0x1D1 SWAP3 SWAP2 SWAP1 PUSH2 0x432 JUMP JUMPDEST POP PUSH1 0x40 DUP3 ADD MLOAD DUP2 PUSH1 0x2 ADD SWAP1 DUP1 MLOAD SWAP1 PUSH1 0x20 ADD SWAP1 PUSH2 0x1EE SWAP3 SWAP2 SWAP1 PUSH2 0x432 JUMP JUMPDEST POP PUSH1 0x60 DUP3 ADD MLOAD DUP2 PUSH1 0x3 ADD SSTORE PUSH1 0x80 DUP3 ADD MLOAD DUP2 PUSH1 0x4 ADD SSTORE PUSH1 0xA0 DUP3 ADD MLOAD DUP2 PUSH1 0x5 ADD PUSH1 0x0 PUSH2 0x100 EXP DUP2 SLOAD DUP2 PUSH1 0xFF MUL NOT AND SWAP1 DUP4 ISZERO ISZERO MUL OR SWAP1 SSTORE POP POP POP POP POP POP POP POP POP JUMP JUMPDEST PUSH1 0x1 DUP2 DUP2 SLOAD DUP2 LT PUSH2 0x23D JUMPI PUSH1 0x0 DUP1 REVERT JUMPDEST SWAP1 PUSH1 0x0 MSTORE PUSH1 0x20 PUSH1 0x0 KECCAK256 SWAP1 PUSH1 0x6 MUL ADD PUSH1 0x0 SWAP2 POP SWAP1 POP DUP1 PUSH1 0x0 ADD PUSH1 0x0 SWAP1 SLOAD SWAP1 PUSH2 0x100 EXP SWAP1 DIV PUSH20 0xFFFFFFFFFFFFFFFFFFFFFFFFFFFFFFFFFFFFFFFF AND SWAP1 DUP1 PUSH1 0x1 ADD DUP1 SLOAD PUSH2 0x286 SWAP1 PUSH2 0x88F JUMP JUMPDEST DUP1 PUSH1 0x1F ADD PUSH1 0x20 DUP1 SWAP2 DIV MUL PUSH1 0x20 ADD PUSH1 0x40 MLOAD SWAP1 DUP2 ADD PUSH1 0x40 MSTORE DUP1 SWAP3 SWAP2 SWAP1 DUP2 DUP2 MSTORE PUSH1 0x20 ADD DUP3 DUP1 SLOAD PUSH2 0x2B2 SWAP1 PUSH2 0x88F JUMP JUMPDEST DUP1 ISZERO PUSH2 0x2FF JUMPI DUP1 PUSH1 0x1F LT PUSH2 0x2D4 JUMPI PUSH2 0x100 DUP1 DUP4 SLOAD DIV MUL DUP4 MSTORE SWAP2 PUSH1 0x20 ADD SWAP2 PUSH2 0x2FF JUMP JUMPDEST DUP3 ADD SWAP2 SWAP1 PUSH1 0x0 MSTORE PUSH1 0x20 PUSH1 0x0 KECCAK256 SWAP1 JUMPDEST DUP2 SLOAD DUP2 MSTORE SWAP1 PUSH1 0x1 ADD SWAP1 PUSH1 0x20 ADD DUP1 DUP4 GT PUSH2 0x2E2 JUMPI DUP3 SWAP1 SUB PUSH1 0x1F AND DUP3 ADD SWAP2 JUMPDEST POP POP POP POP POP SWAP1 DUP1 PUSH1 0x2 ADD DUP1 SLOAD PUSH2 0x314 SWAP1 PUSH2 0x88F JUMP JUMPDEST DUP1 PUSH1 0x1F ADD PUSH1 0x20 DUP1 SWAP2 DIV MUL PUSH1 0x20 ADD PUSH1 0x40 MLOAD SWAP1 DUP2 ADD PUSH1 0x40 MSTORE DUP1 SWAP3 SWAP2 SWAP1 DUP2 DUP2 MSTORE PUSH1 0x20 ADD DUP3 DUP1 SLOAD PUSH2 0x340 SWAP1 PUSH2 0x88F JUMP JUMPDEST DUP1 ISZERO PUSH2 0x38D JUMPI DUP1 PUSH1 0x1F LT PUSH2 0x362 JUMPI PUSH2 0x100 DUP1 DUP4 SLOAD DIV MUL DUP4 MSTORE SWAP2 PUSH1 0x20 ADD SWAP2 PUSH2 0x38D JUMP JUMPDEST DUP3 ADD SWAP2 SWAP1 PUSH1 0x0 MSTORE PUSH1 0x20 PUSH1 0x0 KECCAK256 SWAP1 JUMPDEST DUP2 SLOAD DUP2 MSTORE SWAP1 PUSH1 0x1 ADD SWAP1 PUSH1 0x20 ADD DUP1 DUP4 GT PUSH2 0x370 JUMPI DUP3 SWAP1 SUB PUSH1 0x1F AND DUP3 ADD SWAP2 JUMPDEST POP POP POP POP POP SWAP1 DUP1 PUSH1 0x3 ADD SLOAD SWAP1 DUP1 PUSH1 0x4 ADD SLOAD SWAP1 DUP1 PUSH1 0x5 ADD PUSH1 0x0 SWAP1 SLOAD SWAP1 PUSH2 0x100 EXP SWAP1 DIV PUSH1 0xFF AND SWAP1 POP DUP7 JUMP JUMPDEST PUSH2 0x3BF DUP2 PUSH2 0x3C2 JUMP JUMPDEST POP JUMP JUMPDEST PUSH1 0x0 JUMPDEST PUSH1 0x1 DUP1 SLOAD SWAP1 POP DUP2 LT ISZERO PUSH2 0x42E JUMPI DUP2 PUSH20 0xFFFFFFFFFFFFFFFFFFFFFFFFFFFFFFFFFFFFFFFF AND PUSH1 0x1 DUP3 DUP2 SLOAD DUP2 LT PUSH2 0x3FD JUMPI PUSH2 0x3FC PUSH2 0x999 JUMP JUMPDEST JUMPDEST SWAP1 PUSH1 0x0 MSTORE PUSH1 0x20 PUSH1 0x0 KECCAK256 SWAP1 PUSH1 0x6 MUL ADD PUSH1 0x0 ADD PUSH1 0x0 SWAP1 SLOAD SWAP1 PUSH2 0x100 EXP SWAP1 POP POP POP DUP1 DUP1 PUSH2 0x426 SWAP1 PUSH2 0x8F2 JUMP JUMPDEST SWAP2 POP POP PUSH2 0x3C5 JUMP JUMPDEST POP POP JUMP JUMPDEST DUP3 DUP1 SLOAD PUSH2 0x43E SWAP1 PUSH2 0x88F JUMP JUMPDEST SWAP1 PUSH1 0x0 MSTORE PUSH1 0x20 PUSH1 0x0 KECCAK256 SWAP1 PUSH1 0x1F ADD PUSH1 0x20 SWAP1 DIV DUP2 ADD SWAP3 DUP3 PUSH2 0x460 JUMPI PUSH1 0x0 DUP6 SSTORE PUSH2 0x4A7 JUMP JUMPDEST DUP3 PUSH1 0x1F LT PUSH2 0x479 JUMPI DUP1 MLOAD PUSH1 0xFF NOT AND DUP4 DUP1 ADD OR DUP6 SSTORE PUSH2 0x4A7 JUMP JUMPDEST DUP3 DUP1 ADD PUSH1 0x1 ADD DUP6 SSTORE DUP3 ISZERO PUSH2 0x4A7 JUMPI SWAP2 DUP3 ADD JUMPDEST DUP3 DUP2 GT ISZERO PUSH2 0x4A6 JUMPI DUP3 MLOAD DUP3 SSTORE SWAP2 PUSH1 0x20 ADD SWAP2 SWAP1 PUSH1 0x1 ADD SWAP1 PUSH2 0x48B JUMP JUMPDEST JUMPDEST POP SWAP1 POP PUSH2 0x4B4 SWAP2 SWAP1 PUSH2 0x4B8 JUMP JUMPDEST POP SWAP1 JUMP JUMPDEST JUMPDEST DUP1 DUP3 GT ISZERO PUSH2 0x4D1 JUMPI PUSH1 0x0 DUP2 PUSH1 0x0 SWAP1 SSTORE POP PUSH1 0x1 ADD PUSH2 0x4B9 JUMP JUMPDEST POP SWAP1 JUMP JUMPDEST PUSH1 0x0 PUSH2 0x4E8 PUSH2 0x4E3 DUP5 PUSH2 0x7B8 JUMP JUMPDEST PUSH2 0x793 JUMP JUMPDEST SWAP1 POP DUP3 DUP2 MSTORE PUSH1 0x20 DUP2 ADD DUP5 DUP5 DUP5 ADD GT ISZERO PUSH2 0x504 JUMPI PUSH2 0x503 PUSH2 0x9FC JUMP JUMPDEST JUMPDEST PUSH2 0x50F DUP5 DUP3 DUP6 PUSH2 0x84D JUMP JUMPDEST POP SWAP4 SWAP3 POP POP POP JUMP JUMPDEST PUSH1 0x0 DUP2 CALLDATALOAD SWAP1 POP PUSH2 0x526 DUP2 PUSH2 0xA1C JUMP JUMPDEST SWAP3 SWAP2 POP POP JUMP JUMPDEST PUSH1 0x0 DUP2 CALLDATALOAD SWAP1 POP PUSH2 0x53B DUP2 PUSH2 0xA33 JUMP JUMPDEST SWAP3 SWAP2 POP POP JUMP JUMPDEST PUSH1 0x0 DUP3 PUSH1 0x1F DUP4 ADD SLT PUSH2 0x556 JUMPI PUSH2 0x555 PUSH2 0x9F7 JUMP JUMPDEST JUMPDEST DUP2 CALLDATALOAD PUSH2 0x566 DUP5 DUP3 PUSH1 0x20 DUP7 ADD PUSH2 0x4D5 JUMP JUMPDEST SWAP2 POP POP SWAP3 SWAP2 POP POP JUMP JUMPDEST PUSH1 0x0 DUP2 CALLDATALOAD SWAP1 POP PUSH2 0x57E DUP2 PUSH2 0xA4A JUMP JUMPDEST SWAP3 SWAP2 POP POP JUMP JUMPDEST PUSH1 0x0 PUSH1 0x20 DUP3 DUP5 SUB SLT ISZERO PUSH2 0x59A JUMPI PUSH2 0x599 PUSH2 0xA06 JUMP JUMPDEST JUMPDEST PUSH1 0x0 PUSH2 0x5A8 DUP5 DUP3 DUP6 ADD PUSH2 0x517 JUMP JUMPDEST SWAP2 POP POP SWAP3 SWAP2 POP POP JUMP JUMPDEST PUSH1 0x0 DUP1 PUSH1 0x0 DUP1 PUSH1 0x0 DUP1 PUSH1 0xC0 DUP8 DUP10 SUB SLT ISZERO PUSH2 0x5CE JUMPI PUSH2 0x5CD PUSH2 0xA06 JUMP JUMPDEST JUMPDEST PUSH1 0x0 PUSH2 0x5DC DUP10 DUP3 DUP11 ADD PUSH2 0x517 JUMP JUMPDEST SWAP7 POP POP PUSH1 0x20 DUP8 ADD CALLDATALOAD PUSH8 0xFFFFFFFFFFFFFFFF DUP2 GT ISZERO PUSH2 0x5FD JUMPI PUSH2 0x5FC PUSH2 0xA01 JUMP JUMPDEST JUMPDEST PUSH2 0x609 DUP10 DUP3 DUP11 ADD PUSH2 0x541 JUMP JUMPDEST SWAP6 POP POP PUSH1 0x40 DUP8 ADD CALLDATALOAD PUSH8 0xFFFFFFFFFFFFFFFF DUP2 GT ISZERO PUSH2 0x62A JUMPI PUSH2 0x629 PUSH2 0xA01 JUMP JUMPDEST JUMPDEST PUSH2 0x636 DUP10 DUP3 DUP11 ADD PUSH2 0x541 JUMP JUMPDEST SWAP5 POP POP PUSH1 0x60 PUSH2 0x647 DUP10 DUP3 DUP11 ADD PUSH2 0x56F JUMP JUMPDEST SWAP4 POP POP PUSH1 0x80 PUSH2 0x658 DUP10 DUP3 DUP11 ADD PUSH2 0x56F JUMP JUMPDEST SWAP3 POP POP PUSH1 0xA0 PUSH2 0x669 DUP10 DUP3 DUP11 ADD PUSH2 0x52C JUMP JUMPDEST SWAP2 POP POP SWAP3 SWAP6 POP SWAP3 SWAP6 POP SWAP3 SWAP6 JUMP JUMPDEST PUSH1 0x0 PUSH1 0x20 DUP3 DUP5 SUB SLT ISZERO PUSH2 0x68C JUMPI PUSH2 0x68B PUSH2 0xA06 JUMP JUMPDEST JUMPDEST PUSH1 0x0 PUSH2 0x69A DUP5 DUP3 DUP6 ADD PUSH2 0x56F JUMP JUMPDEST SWAP2 POP POP SWAP3 SWAP2 POP POP JUMP JUMPDEST PUSH2 0x6AC DUP2 PUSH2 0x805 JUMP JUMPDEST DUP3 MSTORE POP POP JUMP JUMPDEST PUSH2 0x6BB DUP2 PUSH2 0x817 JUMP JUMPDEST DUP3 MSTORE POP POP JUMP JUMPDEST PUSH1 0x0 PUSH2 0x6CC DUP3 PUSH2 0x7E9 JUMP JUMPDEST PUSH2 0x6D6 DUP2 DUP6 PUSH2 0x7F4 JUMP JUMPDEST SWAP4 POP PUSH2 0x6E6 DUP2 DUP6 PUSH1 0x20 DUP7 ADD PUSH2 0x85C JUMP JUMPDEST PUSH2 0x6EF DUP2 PUSH2 0xA0B JUMP JUMPDEST DUP5 ADD SWAP2 POP POP SWAP3 SWAP2 POP POP JUMP JUMPDEST PUSH2 0x703 DUP2 PUSH2 0x843 JUMP JUMPDEST DUP3 MSTORE POP POP JUMP JUMPDEST PUSH1 0x0 PUSH1 0xC0 DUP3 ADD SWAP1 POP PUSH2 0x71E PUSH1 0x0 DUP4 ADD DUP10 PUSH2 0x6A3 JUMP JUMPDEST DUP2 DUP2 SUB PUSH1 0x20 DUP4 ADD MSTORE PUSH2 0x730 DUP2 DUP9 PUSH2 0x6C1 JUMP JUMPDEST SWAP1 POP DUP2 DUP2 SUB PUSH1 0x40 DUP4 ADD MSTORE PUSH2 0x744 DUP2 DUP8 PUSH2 0x6C1 JUMP JUMPDEST SWAP1 POP PUSH2 0x753 PUSH1 0x60 DUP4 ADD DUP7 PUSH2 0x6FA JUMP JUMPDEST PUSH2 0x760 PUSH1 0x80 DUP4 ADD DUP6 PUSH2 0x6FA JUMP JUMPDEST PUSH2 0x76D PUSH1 0xA0 DUP4 ADD DUP5 PUSH2 0x6B2 JUMP JUMPDEST SWAP8 SWAP7 POP POP POP POP POP POP POP JUMP JUMPDEST PUSH1 0x0 PUSH1 0x20 DUP3 ADD SWAP1 POP PUSH2 0x78D PUSH1 0x0 DUP4 ADD DUP5 PUSH2 0x6FA JUMP JUMPDEST SWAP3 SWAP2 POP POP JUMP JUMPDEST PUSH1 0x0 PUSH2 0x79D PUSH2 0x7AE JUMP JUMPDEST SWAP1 POP PUSH2 0x7A9 DUP3 DUP3 PUSH2 0x8C1 JUMP JUMPDEST SWAP2 SWAP1 POP JUMP JUMPDEST PUSH1 0x0 PUSH1 0x40 MLOAD SWAP1 POP SWAP1 JUMP JUMPDEST PUSH1 0x0 PUSH8 0xFFFFFFFFFFFFFFFF DUP3 GT ISZERO PUSH2 0x7D3 JUMPI PUSH2 0x7D2 PUSH2 0x9C8 JUMP JUMPDEST JUMPDEST PUSH2 0x7DC DUP3 PUSH2 0xA0B JUMP JUMPDEST SWAP1 POP PUSH1 0x20 DUP2 ADD SWAP1 POP SWAP2 SWAP1 POP JUMP JUMPDEST PUSH1 0x0 DUP2 MLOAD SWAP1 POP SWAP2 SWAP1 POP JUMP JUMPDEST PUSH1 0x0 DUP3 DUP3 MSTORE PUSH1 0x20 DUP3 ADD SWAP1 POP SWAP3 SWAP2 POP POP JUMP JUMPDEST PUSH1 0x0 PUSH2 0x810 DUP3 PUSH2 0x823 JUMP JUMPDEST SWAP1 POP SWAP2 SWAP1 POP JUMP JUMPDEST PUSH1 0x0 DUP2 ISZERO ISZERO SWAP1 POP SWAP2 SWAP1 POP JUMP JUMPDEST PUSH1 0x0 PUSH20 0xFFFFFFFFFFFFFFFFFFFFFFFFFFFFFFFFFFFFFFFF DUP3 AND SWAP1 POP SWAP2 SWAP1 POP JUMP JUMPDEST PUSH1 0x0 DUP2 SWAP1 POP SWAP2 SWAP1 POP JUMP JUMPDEST DUP3 DUP2 DUP4 CALLDATACOPY PUSH1 0x0 DUP4 DUP4 ADD MSTORE POP POP POP JUMP JUMPDEST PUSH1 0x0 JUMPDEST DUP4 DUP2 LT ISZERO PUSH2 0x87A JUMPI DUP1 DUP3 ADD MLOAD DUP2 DUP5 ADD MSTORE PUSH1 0x20 DUP2 ADD SWAP1 POP PUSH2 0x85F JUMP JUMPDEST DUP4 DUP2 GT ISZERO PUSH2 0x889 JUMPI PUSH1 0x0 DUP5 DUP5 ADD MSTORE JUMPDEST POP POP POP POP JUMP JUMPDEST PUSH1 0x0 PUSH1 0x2 DUP3 DIV SWAP1 POP PUSH1 0x1 DUP3 AND DUP1 PUSH2 0x8A7 JUMPI PUSH1 0x7F DUP3 AND SWAP2 POP JUMPDEST PUSH1 0x20 DUP3 LT DUP2 EQ ISZERO PUSH2 0x8BB JUMPI PUSH2 0x8BA PUSH2 0x96A JUMP JUMPDEST JUMPDEST POP SWAP2 SWAP1 POP JUMP JUMPDEST PUSH2 0x8CA DUP3 PUSH2 0xA0B JUMP JUMPDEST DUP2 ADD DUP2 DUP2 LT PUSH8 0xFFFFFFFFFFFFFFFF DUP3 GT OR ISZERO PUSH2 0x8E9 JUMPI PUSH2 0x8E8 PUSH2 0x9C8 JUMP JUMPDEST JUMPDEST DUP1 PUSH1 0x40 MSTORE POP POP POP JUMP JUMPDEST PUSH1 0x0 PUSH2 0x8FD DUP3 PUSH2 0x843 JUMP JUMPDEST SWAP2 POP PUSH32 0xFFFFFFFFFFFFFFFFFFFFFFFFFFFFFFFFFFFFFFFFFFFFFFFFFFFFFFFFFFFFFFFF DUP3 EQ ISZERO PUSH2 0x930 JUMPI PUSH2 0x92F PUSH2 0x93B JUMP JUMPDEST JUMPDEST PUSH1 0x1 DUP3 ADD SWAP1 POP SWAP2 SWAP1 POP JUMP JUMPDEST PUSH32 0x4E487B7100000000000000000000000000000000000000000000000000000000 PUSH1 0x0 MSTORE PUSH1 0x11 PUSH1 0x4 MSTORE PUSH1 0x24 PUSH1 0x0 REVERT JUMPDEST PUSH32 0x4E487B7100000000000000000000000000000000000000000000000000000000 PUSH1 0x0 MSTORE PUSH1 0x22 PUSH1 0x4 MSTORE PUSH1 0x24 PUSH1 0x0 REVERT JUMPDEST PUSH32 0x4E487B7100000000000000000000000000000000000000000000000000000000 PUSH1 0x0 MSTORE PUSH1 0x32 PUSH1 0x4 MSTORE PUSH1 0x24 PUSH1 0x0 REVERT JUMPDEST PUSH32 0x4E487B7100000000000000000000000000000000000000000000000000000000 PUSH1 0x0 MSTORE PUSH1 0x41 PUSH1 0x4 MSTORE PUSH1 0x24 PUSH1 0x0 REVERT JUMPDEST PUSH1 0x0 DUP1 REVERT JUMPDEST PUSH1 0x0 DUP1 REVERT JUMPDEST PUSH1 0x0 DUP1 REVERT JUMPDEST PUSH1 0x0 DUP1 REVERT JUMPDEST PUSH1 0x0 PUSH1 0x1F NOT PUSH1 0x1F DUP4 ADD AND SWAP1 POP SWAP2 SWAP1 POP JUMP JUMPDEST PUSH2 0xA25 DUP2 PUSH2 0x805 JUMP JUMPDEST DUP2 EQ PUSH2 0xA30 JUMPI PUSH1 0x0 DUP1 REVERT JUMPDEST POP JUMP JUMPDEST PUSH2 0xA3C DUP2 PUSH2 0x817 JUMP JUMPDEST DUP2 EQ PUSH2 0xA47 JUMPI PUSH1 0x0 DUP1 REVERT JUMPDEST POP JUMP JUMPDEST PUSH2 0xA53 DUP2 PUSH2 0x843 JUMP JUMPDEST DUP2 EQ PUSH2 0xA5E JUMPI PUSH1 0x0 DUP1 REVERT JUMPDEST POP JUMP INVALID LOG2 PUSH5 0x6970667358 0x22 SLT KECCAK256 SELFDESTRUCT PUSH21 0x86F819267DE621D959610F4C13C03EA4423DF5478F DUP3 PUSH29 0x5F194AB94053A564736F6C634300080700330000000000000000000000 "
				},
				"gasEstimates": {
					"creation": {
						"codeDepositCost": "542200",
						"executionCost": "24841",
						"totalCost": "567041"
					},
					"external": {
						"addKid(address,string,string,uint256,uint256,bool)": "infinite",
						"balanceof()": "317",
						"deposit(address)": "infinite",
						"kids(uint256)": "infinite"
					},
					"internal": {
						"addtoKidsBalance(address)": "infinite"
					}
				},
				"methodIdentifiers": {
					"addKid(address,string,string,uint256,uint256,bool)": "31d575c5",
					"balanceof()": "2980a5d3",
					"deposit(address)": "f340fa01",
					"kids(uint256)": "7285fd3a"
				}
			},
			"storageLayout": {
				"storage": [
					{
						"astId": 3,
						"contract": "contracts/CryptoKids.sol:CryptoKids",
						"label": "owner",
						"offset": 0,
						"slot": "0",
						"type": "t_address"
					},
					{
						"astId": 29,
						"contract": "contracts/CryptoKids.sol:CryptoKids",
						"label": "kids",
						"offset": 0,
						"slot": "1",
						"type": "t_array(t_struct(Kid)25_storage)dyn_storage"
					}
				],
				"types": {
					"t_address": {
						"encoding": "inplace",
						"label": "address",
						"numberOfBytes": "20"
					},
					"t_array(t_struct(Kid)25_storage)dyn_storage": {
						"base": "t_struct(Kid)25_storage",
						"encoding": "dynamic_array",
						"label": "struct CryptoKids.Kid[]",
						"numberOfBytes": "32"
					},
					"t_bool": {
						"encoding": "inplace",
						"label": "bool",
						"numberOfBytes": "1"
					},
					"t_string_storage": {
						"encoding": "bytes",
						"label": "string",
						"numberOfBytes": "32"
					},
					"t_struct(Kid)25_storage": {
						"encoding": "inplace",
						"label": "struct CryptoKids.Kid",
						"members": [
							{
								"astId": 14,
								"contract": "contracts/CryptoKids.sol:CryptoKids",
								"label": "walletAddress",
								"offset": 0,
								"slot": "0",
								"type": "t_address"
							},
							{
								"astId": 16,
								"contract": "contracts/CryptoKids.sol:CryptoKids",
								"label": "fullName",
								"offset": 0,
								"slot": "1",
								"type": "t_string_storage"
							},
							{
								"astId": 18,
								"contract": "contracts/CryptoKids.sol:CryptoKids",
								"label": "lastName",
								"offset": 0,
								"slot": "2",
								"type": "t_string_storage"
							},
							{
								"astId": 20,
								"contract": "contracts/CryptoKids.sol:CryptoKids",
								"label": "releaseTime",
								"offset": 0,
								"slot": "3",
								"type": "t_uint256"
							},
							{
								"astId": 22,
								"contract": "contracts/CryptoKids.sol:CryptoKids",
								"label": "amount",
								"offset": 0,
								"slot": "4",
								"type": "t_uint256"
							},
							{
								"astId": 24,
								"contract": "contracts/CryptoKids.sol:CryptoKids",
								"label": "canWithdraw",
								"offset": 0,
								"slot": "5",
								"type": "t_bool"
							}
						],
						"numberOfBytes": "192"
					},
					"t_uint256": {
						"encoding": "inplace",
						"label": "uint256",
						"numberOfBytes": "32"
					}
				}
			},
			"userdoc": {
				"kind": "user",
				"methods": {},
				"version": 1
			}
		}
	}
}