{
	"contracts/CryptoKids.sol": {
		"CryptoKids": {
			"abi": [
				{
					"inputs": [],
					"stateMutability": "nonpayable",
					"type": "constructor"
				},
				{
					"inputs": [
						{
							"internalType": "address payable",
							"name": "walletAddress",
							"type": "address"
						},
						{
							"internalType": "string",
							"name": "fullName",
							"type": "string"
						},
						{
							"internalType": "string",
							"name": "lastName",
							"type": "string"
						},
						{
							"internalType": "uint256",
							"name": "releaseTime",
							"type": "uint256"
						},
						{
							"internalType": "uint256",
							"name": "amount",
							"type": "uint256"
						},
						{
							"internalType": "bool",
							"name": "canWithdraw",
							"type": "bool"
						}
					],
					"name": "addKid",
					"outputs": [],
					"stateMutability": "nonpayable",
					"type": "function"
				},
				{
					"inputs": [
						{
							"internalType": "address",
							"name": "walletAddress",
							"type": "address"
						}
					],
					"name": "availableTowithdraw",
					"outputs": [
						{
							"internalType": "bool",
							"name": "",
							"type": "bool"
						}
					],
					"stateMutability": "nonpayable",
					"type": "function"
				},
				{
					"inputs": [],
					"name": "balanceof",
					"outputs": [
						{
							"internalType": "uint256",
							"name": "",
							"type": "uint256"
						}
					],
					"stateMutability": "view",
					"type": "function"
				},
				{
					"inputs": [
						{
							"internalType": "address",
							"name": "walletAddress",
							"type": "address"
						}
					],
					"name": "deposit",
					"outputs": [],
					"stateMutability": "payable",
					"type": "function"
				},
				{
					"inputs": [
						{
							"internalType": "uint256",
							"name": "",
							"type": "uint256"
						}
					],
					"name": "kids",
					"outputs": [
						{
							"internalType": "address payable",
							"name": "walletAddress",
							"type": "address"
						},
						{
							"internalType": "string",
							"name": "fullName",
							"type": "string"
						},
						{
							"internalType": "string",
							"name": "lastName",
							"type": "string"
						},
						{
							"internalType": "uint256",
							"name": "releaseTime",
							"type": "uint256"
						},
						{
							"internalType": "uint256",
							"name": "amount",
							"type": "uint256"
						},
						{
							"internalType": "bool",
							"name": "canWithdraw",
							"type": "bool"
						}
					],
					"stateMutability": "view",
					"type": "function"
				},
				{
					"inputs": [
						{
							"internalType": "address payable",
							"name": "walletAddress",
							"type": "address"
						}
					],
					"name": "withdraw",
					"outputs": [],
					"stateMutability": "payable",
					"type": "function"
				}
			],
			"devdoc": {
				"kind": "dev",
				"methods": {},
				"version": 1
			},
			"evm": {
				"assembly": "    /* \"contracts/CryptoKids.sol\":66:4379  contract CryptoKids{\r... */\n  mstore(0x40, 0x80)\n    /* \"contracts/CryptoKids.sol\":281:605  constructor()\r... */\n  callvalue\n  dup1\n  iszero\n  tag_1\n  jumpi\n  0x00\n  dup1\n  revert\ntag_1:\n  pop\n    /* \"contracts/CryptoKids.sol\":319:329  msg.sender */\n  caller\n    /* \"contracts/CryptoKids.sol\":313:318  owner */\n  0x00\n  dup1\n    /* \"contracts/CryptoKids.sol\":313:329  owner=msg.sender */\n  0x0100\n  exp\n  dup2\n  sload\n  dup2\n  0xffffffffffffffffffffffffffffffffffffffff\n  mul\n  not\n  and\n  swap1\n  dup4\n  0xffffffffffffffffffffffffffffffffffffffff\n  and\n  mul\n  or\n  swap1\n  sstore\n  pop\n    /* \"contracts/CryptoKids.sol\":66:4379  contract CryptoKids{\r... */\n  dataSize(sub_0)\n  dup1\n  dataOffset(sub_0)\n  0x00\n  codecopy\n  0x00\n  return\nstop\n\nsub_0: assembly {\n        /* \"contracts/CryptoKids.sol\":66:4379  contract CryptoKids{\r... */\n      mstore(0x40, 0x80)\n      jumpi(tag_1, lt(calldatasize, 0x04))\n      shr(0xe0, calldataload(0x00))\n      dup1\n      0x24bc2db6\n      eq\n      tag_2\n      jumpi\n      dup1\n      0x2980a5d3\n      eq\n      tag_3\n      jumpi\n      dup1\n      0x31d575c5\n      eq\n      tag_4\n      jumpi\n      dup1\n      0x51cff8d9\n      eq\n      tag_5\n      jumpi\n      dup1\n      0x7285fd3a\n      eq\n      tag_6\n      jumpi\n      dup1\n      0xf340fa01\n      eq\n      tag_7\n      jumpi\n    tag_1:\n      0x00\n      dup1\n      revert\n        /* \"contracts/CryptoKids.sol\":2975:3206  function availableTowithdraw(address walletAddress) public returns(bool)\r... */\n    tag_2:\n      callvalue\n      dup1\n      iszero\n      tag_8\n      jumpi\n      0x00\n      dup1\n      revert\n    tag_8:\n      pop\n      tag_9\n      0x04\n      dup1\n      calldatasize\n      sub\n      dup2\n      add\n      swap1\n      tag_10\n      swap2\n      swap1\n      tag_11\n      jump\t// in\n    tag_10:\n      tag_12\n      jump\t// in\n    tag_9:\n      mload(0x40)\n      tag_13\n      swap2\n      swap1\n      tag_14\n      jump\t// in\n    tag_13:\n      mload(0x40)\n      dup1\n      swap2\n      sub\n      swap1\n      return\n        /* \"contracts/CryptoKids.sol\":1174:1259  function balanceof() public view returns(uint){\r... */\n    tag_3:\n      callvalue\n      dup1\n      iszero\n      tag_15\n      jumpi\n      0x00\n      dup1\n      revert\n    tag_15:\n      pop\n      tag_16\n      tag_17\n      jump\t// in\n    tag_16:\n      mload(0x40)\n      tag_18\n      swap2\n      swap1\n      tag_19\n      jump\t// in\n    tag_18:\n      mload(0x40)\n      dup1\n      swap2\n      sub\n      swap1\n      return\n        /* \"contracts/CryptoKids.sol\":870:1170  function addKid(address payable walletAddress,string memory fullName,string memory lastName,uint releaseTime,uint amount,bool canWithdraw) public {\r... */\n    tag_4:\n      callvalue\n      dup1\n      iszero\n      tag_20\n      jumpi\n      0x00\n      dup1\n      revert\n    tag_20:\n      pop\n      tag_21\n      0x04\n      dup1\n      calldatasize\n      sub\n      dup2\n      add\n      swap1\n      tag_22\n      swap2\n      swap1\n      tag_23\n      jump\t// in\n    tag_22:\n      tag_24\n      jump\t// in\n    tag_21:\n      stop\n        /* \"contracts/CryptoKids.sol\":3210:3489  function withdraw(address payable  walletAddress) payable public{\r... */\n    tag_5:\n      tag_25\n      0x04\n      dup1\n      calldatasize\n      sub\n      dup2\n      add\n      swap1\n      tag_26\n      swap2\n      swap1\n      tag_27\n      jump\t// in\n    tag_26:\n      tag_28\n      jump\t// in\n    tag_25:\n      stop\n        /* \"contracts/CryptoKids.sol\":824:841  Kid[] public kids */\n    tag_6:\n      callvalue\n      dup1\n      iszero\n      tag_29\n      jumpi\n      0x00\n      dup1\n      revert\n    tag_29:\n      pop\n      tag_30\n      0x04\n      dup1\n      calldatasize\n      sub\n      dup2\n      add\n      swap1\n      tag_31\n      swap2\n      swap1\n      tag_32\n      jump\t// in\n    tag_31:\n      tag_33\n      jump\t// in\n    tag_30:\n      mload(0x40)\n      tag_34\n      swap7\n      swap6\n      swap5\n      swap4\n      swap3\n      swap2\n      swap1\n      tag_35\n      jump\t// in\n    tag_34:\n      mload(0x40)\n      dup1\n      swap2\n      sub\n      swap1\n      return\n        /* \"contracts/CryptoKids.sol\":1638:1734  function deposit ( address walletAddress) payable public{\r... */\n    tag_7:\n      tag_36\n      0x04\n      dup1\n      calldatasize\n      sub\n      dup2\n      add\n      swap1\n      tag_37\n      swap2\n      swap1\n      tag_11\n      jump\t// in\n    tag_37:\n      tag_38\n      jump\t// in\n    tag_36:\n      stop\n        /* \"contracts/CryptoKids.sol\":2975:3206  function availableTowithdraw(address walletAddress) public returns(bool)\r... */\n    tag_12:\n        /* \"contracts/CryptoKids.sol\":3042:3046  bool */\n      0x00\n        /* \"contracts/CryptoKids.sol\":3052:3058  uint i */\n      dup1\n        /* \"contracts/CryptoKids.sol\":3060:3083  getindex(walletAddress) */\n      tag_40\n        /* \"contracts/CryptoKids.sol\":3069:3082  walletAddress */\n      dup4\n        /* \"contracts/CryptoKids.sol\":3060:3068  getindex */\n      tag_41\n        /* \"contracts/CryptoKids.sol\":3060:3083  getindex(walletAddress) */\n      jump\t// in\n    tag_40:\n        /* \"contracts/CryptoKids.sol\":3052:3083  uint i= getindex(walletAddress) */\n      swap1\n      pop\n        /* \"contracts/CryptoKids.sol\":3105:3109  kids */\n      0x01\n        /* \"contracts/CryptoKids.sol\":3110:3111  i */\n      dup2\n        /* \"contracts/CryptoKids.sol\":3105:3112  kids[i] */\n      dup2\n      sload\n      dup2\n      lt\n      tag_42\n      jumpi\n      tag_43\n      tag_44\n      jump\t// in\n    tag_43:\n    tag_42:\n      swap1\n      0x00\n      mstore\n      keccak256(0x00, 0x20)\n      swap1\n      0x06\n      mul\n      add\n        /* \"contracts/CryptoKids.sol\":3105:3124  kids[i].releaseTime */\n      0x03\n      add\n      sload\n        /* \"contracts/CryptoKids.sol\":3089:3104  block.timestamp */\n      timestamp\n        /* \"contracts/CryptoKids.sol\":3089:3124  block.timestamp>kids[i].releaseTime */\n      gt\n        /* \"contracts/CryptoKids.sol\":3086:3188  if(block.timestamp>kids[i].releaseTime)\r... */\n      iszero\n      tag_46\n      jumpi\n        /* \"contracts/CryptoKids.sol\":3155:3159  true */\n      0x01\n        /* \"contracts/CryptoKids.sol\":3135:3139  kids */\n      dup1\n        /* \"contracts/CryptoKids.sol\":3140:3141  i */\n      dup3\n        /* \"contracts/CryptoKids.sol\":3135:3142  kids[i] */\n      dup2\n      sload\n      dup2\n      lt\n      tag_47\n      jumpi\n      tag_48\n      tag_44\n      jump\t// in\n    tag_48:\n    tag_47:\n      swap1\n      0x00\n      mstore\n      keccak256(0x00, 0x20)\n      swap1\n      0x06\n      mul\n      add\n        /* \"contracts/CryptoKids.sol\":3135:3154  kids[i].canWithdraw */\n      0x05\n      add\n      0x00\n        /* \"contracts/CryptoKids.sol\":3135:3159  kids[i].canWithdraw=true */\n      0x0100\n      exp\n      dup2\n      sload\n      dup2\n      0xff\n      mul\n      not\n      and\n      swap1\n      dup4\n      iszero\n      iszero\n      mul\n      or\n      swap1\n      sstore\n      pop\n        /* \"contracts/CryptoKids.sol\":3174:3178  true */\n      0x01\n        /* \"contracts/CryptoKids.sol\":3167:3178  return true */\n      swap2\n      pop\n      pop\n      jump(tag_39)\n        /* \"contracts/CryptoKids.sol\":3086:3188  if(block.timestamp>kids[i].releaseTime)\r... */\n    tag_46:\n        /* \"contracts/CryptoKids.sol\":3197:3202  false */\n      0x00\n        /* \"contracts/CryptoKids.sol\":3190:3202  return false */\n      swap2\n      pop\n      pop\n        /* \"contracts/CryptoKids.sol\":2975:3206  function availableTowithdraw(address walletAddress) public returns(bool)\r... */\n    tag_39:\n      swap2\n      swap1\n      pop\n      jump\t// out\n        /* \"contracts/CryptoKids.sol\":1174:1259  function balanceof() public view returns(uint){\r... */\n    tag_17:\n        /* \"contracts/CryptoKids.sol\":1215:1219  uint */\n      0x00\n        /* \"contracts/CryptoKids.sol\":1234:1255  address(this).balance */\n      selfbalance\n        /* \"contracts/CryptoKids.sol\":1227:1255  return address(this).balance */\n      swap1\n      pop\n        /* \"contracts/CryptoKids.sol\":1174:1259  function balanceof() public view returns(uint){\r... */\n      swap1\n      jump\t// out\n        /* \"contracts/CryptoKids.sol\":870:1170  function addKid(address payable walletAddress,string memory fullName,string memory lastName,uint releaseTime,uint amount,bool canWithdraw) public {\r... */\n    tag_24:\n        /* \"contracts/CryptoKids.sol\":1023:1027  kids */\n      0x01\n        /* \"contracts/CryptoKids.sol\":1033:1165  Kid(\r... */\n      mload(0x40)\n      dup1\n      0xc0\n      add\n      0x40\n      mstore\n      dup1\n        /* \"contracts/CryptoKids.sol\":1047:1060  walletAddress */\n      dup9\n        /* \"contracts/CryptoKids.sol\":1033:1165  Kid(\r... */\n      0xffffffffffffffffffffffffffffffffffffffff\n      and\n      dup2\n      mstore\n      0x20\n      add\n        /* \"contracts/CryptoKids.sol\":1072:1080  fullName */\n      dup8\n        /* \"contracts/CryptoKids.sol\":1033:1165  Kid(\r... */\n      dup2\n      mstore\n      0x20\n      add\n        /* \"contracts/CryptoKids.sol\":1092:1100  lastName */\n      dup7\n        /* \"contracts/CryptoKids.sol\":1033:1165  Kid(\r... */\n      dup2\n      mstore\n      0x20\n      add\n        /* \"contracts/CryptoKids.sol\":1113:1124  releaseTime */\n      dup6\n        /* \"contracts/CryptoKids.sol\":1033:1165  Kid(\r... */\n      dup2\n      mstore\n      0x20\n      add\n        /* \"contracts/CryptoKids.sol\":1135:1141  amount */\n      dup5\n        /* \"contracts/CryptoKids.sol\":1033:1165  Kid(\r... */\n      dup2\n      mstore\n      0x20\n      add\n        /* \"contracts/CryptoKids.sol\":1153:1164  canWithdraw */\n      dup4\n        /* \"contracts/CryptoKids.sol\":1033:1165  Kid(\r... */\n      iszero\n      iszero\n      dup2\n      mstore\n      pop\n        /* \"contracts/CryptoKids.sol\":1023:1166  kids.push(Kid(\r... */\n      swap1\n      dup1\n      0x01\n      dup2\n      sload\n      add\n      dup1\n      dup3\n      sstore\n      dup1\n      swap2\n      pop\n      pop\n      0x01\n      swap1\n      sub\n      swap1\n      0x00\n      mstore\n      keccak256(0x00, 0x20)\n      swap1\n      0x06\n      mul\n      add\n      0x00\n      swap1\n      swap2\n      swap1\n      swap2\n      swap1\n      swap2\n      pop\n      0x00\n      dup3\n      add\n      mload\n      dup2\n      0x00\n      add\n      exp(0x0100, 0x00)\n      dup2\n      sload\n      dup2\n      0xffffffffffffffffffffffffffffffffffffffff\n      mul\n      not\n      and\n      swap1\n      dup4\n      0xffffffffffffffffffffffffffffffffffffffff\n      and\n      mul\n      or\n      swap1\n      sstore\n      pop\n      0x20\n      dup3\n      add\n      mload\n      dup2\n      0x01\n      add\n      swap1\n      dup1\n      mload\n      swap1\n      0x20\n      add\n      swap1\n      tag_53\n      swap3\n      swap2\n      swap1\n      tag_54\n      jump\t// in\n    tag_53:\n      pop\n      0x40\n      dup3\n      add\n      mload\n      dup2\n      0x02\n      add\n      swap1\n      dup1\n      mload\n      swap1\n      0x20\n      add\n      swap1\n      tag_55\n      swap3\n      swap2\n      swap1\n      tag_54\n      jump\t// in\n    tag_55:\n      pop\n      0x60\n      dup3\n      add\n      mload\n      dup2\n      0x03\n      add\n      sstore\n      0x80\n      dup3\n      add\n      mload\n      dup2\n      0x04\n      add\n      sstore\n      0xa0\n      dup3\n      add\n      mload\n      dup2\n      0x05\n      add\n      exp(0x0100, 0x00)\n      dup2\n      sload\n      dup2\n      0xff\n      mul\n      not\n      and\n      swap1\n      dup4\n      iszero\n      iszero\n      mul\n      or\n      swap1\n      sstore\n      pop\n      pop\n      pop\n        /* \"contracts/CryptoKids.sol\":870:1170  function addKid(address payable walletAddress,string memory fullName,string memory lastName,uint releaseTime,uint amount,bool canWithdraw) public {\r... */\n      pop\n      pop\n      pop\n      pop\n      pop\n      pop\n      jump\t// out\n        /* \"contracts/CryptoKids.sol\":3210:3489  function withdraw(address payable  walletAddress) payable public{\r... */\n    tag_28:\n        /* \"contracts/CryptoKids.sol\":3283:3289  uint i */\n      0x00\n        /* \"contracts/CryptoKids.sol\":3292:3315  getindex(walletAddress) */\n      tag_57\n        /* \"contracts/CryptoKids.sol\":3301:3314  walletAddress */\n      dup3\n        /* \"contracts/CryptoKids.sol\":3292:3300  getindex */\n      tag_41\n        /* \"contracts/CryptoKids.sol\":3292:3315  getindex(walletAddress) */\n      jump\t// in\n    tag_57:\n        /* \"contracts/CryptoKids.sol\":3283:3315  uint i = getindex(walletAddress) */\n      swap1\n      pop\n        /* \"contracts/CryptoKids.sol\":3342:3346  kids */\n      0x01\n        /* \"contracts/CryptoKids.sol\":3347:3348  i */\n      dup2\n        /* \"contracts/CryptoKids.sol\":3342:3349  kids[i] */\n      dup2\n      sload\n      dup2\n      lt\n      tag_58\n      jumpi\n      tag_59\n      tag_44\n      jump\t// in\n    tag_59:\n    tag_58:\n      swap1\n      0x00\n      mstore\n      keccak256(0x00, 0x20)\n      swap1\n      0x06\n      mul\n      add\n        /* \"contracts/CryptoKids.sol\":3342:3363  kids[i].walletAddress */\n      0x00\n      add\n      0x00\n      swap1\n      sload\n      swap1\n      0x0100\n      exp\n      swap1\n      div\n      0xffffffffffffffffffffffffffffffffffffffff\n      and\n        /* \"contracts/CryptoKids.sol\":3330:3363  msg.sender==kids[i].walletAddress */\n      0xffffffffffffffffffffffffffffffffffffffff\n      and\n        /* \"contracts/CryptoKids.sol\":3330:3340  msg.sender */\n      caller\n        /* \"contracts/CryptoKids.sol\":3330:3363  msg.sender==kids[i].walletAddress */\n      0xffffffffffffffffffffffffffffffffffffffff\n      and\n      eq\n        /* \"contracts/CryptoKids.sol\":3322:3372  require(msg.sender==kids[i].walletAddress,\"You m\") */\n      tag_61\n      jumpi\n      mload(0x40)\n      0x08c379a000000000000000000000000000000000000000000000000000000000\n      dup2\n      mstore\n      0x04\n      add\n      tag_62\n      swap1\n      tag_63\n      jump\t// in\n    tag_62:\n      mload(0x40)\n      dup1\n      swap2\n      sub\n      swap1\n      revert\n    tag_61:\n        /* \"contracts/CryptoKids.sol\":3439:3443  kids */\n      0x01\n        /* \"contracts/CryptoKids.sol\":3444:3445  i */\n      dup2\n        /* \"contracts/CryptoKids.sol\":3439:3446  kids[i] */\n      dup2\n      sload\n      dup2\n      lt\n      tag_64\n      jumpi\n      tag_65\n      tag_44\n      jump\t// in\n    tag_65:\n    tag_64:\n      swap1\n      0x00\n      mstore\n      keccak256(0x00, 0x20)\n      swap1\n      0x06\n      mul\n      add\n        /* \"contracts/CryptoKids.sol\":3439:3460  kids[i].walletAddress */\n      0x00\n      add\n      0x00\n      swap1\n      sload\n      swap1\n      0x0100\n      exp\n      swap1\n      div\n      0xffffffffffffffffffffffffffffffffffffffff\n      and\n        /* \"contracts/CryptoKids.sol\":3439:3469  kids[i].walletAddress.transfer */\n      0xffffffffffffffffffffffffffffffffffffffff\n      and\n        /* \"contracts/CryptoKids.sol\":3439:3485  kids[i].walletAddress.transfer(kids[i].amount) */\n      0x08fc\n        /* \"contracts/CryptoKids.sol\":3470:3474  kids */\n      0x01\n        /* \"contracts/CryptoKids.sol\":3475:3476  i */\n      dup4\n        /* \"contracts/CryptoKids.sol\":3470:3477  kids[i] */\n      dup2\n      sload\n      dup2\n      lt\n      tag_67\n      jumpi\n      tag_68\n      tag_44\n      jump\t// in\n    tag_68:\n    tag_67:\n      swap1\n      0x00\n      mstore\n      keccak256(0x00, 0x20)\n      swap1\n      0x06\n      mul\n      add\n        /* \"contracts/CryptoKids.sol\":3470:3484  kids[i].amount */\n      0x04\n      add\n      sload\n        /* \"contracts/CryptoKids.sol\":3439:3485  kids[i].walletAddress.transfer(kids[i].amount) */\n      swap1\n      dup2\n      iszero\n      mul\n      swap1\n      mload(0x40)\n      0x00\n      mload(0x40)\n      dup1\n      dup4\n      sub\n      dup2\n      dup6\n      dup9\n      dup9\n      call\n      swap4\n      pop\n      pop\n      pop\n      pop\n      iszero\n      dup1\n      iszero\n      tag_71\n      jumpi\n      returndatasize\n      0x00\n      dup1\n      returndatacopy\n      revert(0x00, returndatasize)\n    tag_71:\n      pop\n        /* \"contracts/CryptoKids.sol\":3274:3489  {\r... */\n      pop\n        /* \"contracts/CryptoKids.sol\":3210:3489  function withdraw(address payable  walletAddress) payable public{\r... */\n      pop\n      jump\t// out\n        /* \"contracts/CryptoKids.sol\":824:841  Kid[] public kids */\n    tag_33:\n      0x01\n      dup2\n      dup2\n      sload\n      dup2\n      lt\n      tag_72\n      jumpi\n      0x00\n      dup1\n      revert\n    tag_72:\n      swap1\n      0x00\n      mstore\n      keccak256(0x00, 0x20)\n      swap1\n      0x06\n      mul\n      add\n      0x00\n      swap2\n      pop\n      swap1\n      pop\n      dup1\n      0x00\n      add\n      0x00\n      swap1\n      sload\n      swap1\n      0x0100\n      exp\n      swap1\n      div\n      0xffffffffffffffffffffffffffffffffffffffff\n      and\n      swap1\n      dup1\n      0x01\n      add\n      dup1\n      sload\n      tag_74\n      swap1\n      tag_75\n      jump\t// in\n    tag_74:\n      dup1\n      0x1f\n      add\n      0x20\n      dup1\n      swap2\n      div\n      mul\n      0x20\n      add\n      mload(0x40)\n      swap1\n      dup2\n      add\n      0x40\n      mstore\n      dup1\n      swap3\n      swap2\n      swap1\n      dup2\n      dup2\n      mstore\n      0x20\n      add\n      dup3\n      dup1\n      sload\n      tag_76\n      swap1\n      tag_75\n      jump\t// in\n    tag_76:\n      dup1\n      iszero\n      tag_77\n      jumpi\n      dup1\n      0x1f\n      lt\n      tag_78\n      jumpi\n      0x0100\n      dup1\n      dup4\n      sload\n      div\n      mul\n      dup4\n      mstore\n      swap2\n      0x20\n      add\n      swap2\n      jump(tag_77)\n    tag_78:\n      dup3\n      add\n      swap2\n      swap1\n      0x00\n      mstore\n      keccak256(0x00, 0x20)\n      swap1\n    tag_79:\n      dup2\n      sload\n      dup2\n      mstore\n      swap1\n      0x01\n      add\n      swap1\n      0x20\n      add\n      dup1\n      dup4\n      gt\n      tag_79\n      jumpi\n      dup3\n      swap1\n      sub\n      0x1f\n      and\n      dup3\n      add\n      swap2\n    tag_77:\n      pop\n      pop\n      pop\n      pop\n      pop\n      swap1\n      dup1\n      0x02\n      add\n      dup1\n      sload\n      tag_80\n      swap1\n      tag_75\n      jump\t// in\n    tag_80:\n      dup1\n      0x1f\n      add\n      0x20\n      dup1\n      swap2\n      div\n      mul\n      0x20\n      add\n      mload(0x40)\n      swap1\n      dup2\n      add\n      0x40\n      mstore\n      dup1\n      swap3\n      swap2\n      swap1\n      dup2\n      dup2\n      mstore\n      0x20\n      add\n      dup3\n      dup1\n      sload\n      tag_81\n      swap1\n      tag_75\n      jump\t// in\n    tag_81:\n      dup1\n      iszero\n      tag_82\n      jumpi\n      dup1\n      0x1f\n      lt\n      tag_83\n      jumpi\n      0x0100\n      dup1\n      dup4\n      sload\n      div\n      mul\n      dup4\n      mstore\n      swap2\n      0x20\n      add\n      swap2\n      jump(tag_82)\n    tag_83:\n      dup3\n      add\n      swap2\n      swap1\n      0x00\n      mstore\n      keccak256(0x00, 0x20)\n      swap1\n    tag_84:\n      dup2\n      sload\n      dup2\n      mstore\n      swap1\n      0x01\n      add\n      swap1\n      0x20\n      add\n      dup1\n      dup4\n      gt\n      tag_84\n      jumpi\n      dup3\n      swap1\n      sub\n      0x1f\n      and\n      dup3\n      add\n      swap2\n    tag_82:\n      pop\n      pop\n      pop\n      pop\n      pop\n      swap1\n      dup1\n      0x03\n      add\n      sload\n      swap1\n      dup1\n      0x04\n      add\n      sload\n      swap1\n      dup1\n      0x05\n      add\n      0x00\n      swap1\n      sload\n      swap1\n      0x0100\n      exp\n      swap1\n      div\n      0xff\n      and\n      swap1\n      pop\n      dup7\n      jump\t// out\n        /* \"contracts/CryptoKids.sol\":1638:1734  function deposit ( address walletAddress) payable public{\r... */\n    tag_38:\n        /* \"contracts/CryptoKids.sol\":1697:1728  addtoKidsBalance(walletAddress) */\n      tag_86\n        /* \"contracts/CryptoKids.sol\":1714:1727  walletAddress */\n      dup2\n        /* \"contracts/CryptoKids.sol\":1697:1713  addtoKidsBalance */\n      tag_87\n        /* \"contracts/CryptoKids.sol\":1697:1728  addtoKidsBalance(walletAddress) */\n      jump\t// in\n    tag_86:\n        /* \"contracts/CryptoKids.sol\":1638:1734  function deposit ( address walletAddress) payable public{\r... */\n      pop\n      jump\t// out\n        /* \"contracts/CryptoKids.sol\":2738:2971  function getindex(address walletAddress) view private returns(uint){\r... */\n    tag_41:\n        /* \"contracts/CryptoKids.sol\":2800:2804  uint */\n      0x00\n        /* \"contracts/CryptoKids.sol\":2816:2822  uint i */\n      dup1\n        /* \"contracts/CryptoKids.sol\":2823:2824  0 */\n      0x00\n        /* \"contracts/CryptoKids.sol\":2816:2824  uint i=0 */\n      swap1\n      pop\n        /* \"contracts/CryptoKids.sol\":2812:2951  for(uint i=0;i<kids.length;i++)\r... */\n    tag_89:\n        /* \"contracts/CryptoKids.sol\":2827:2831  kids */\n      0x01\n        /* \"contracts/CryptoKids.sol\":2827:2838  kids.length */\n      dup1\n      sload\n      swap1\n      pop\n        /* \"contracts/CryptoKids.sol\":2825:2826  i */\n      dup2\n        /* \"contracts/CryptoKids.sol\":2825:2838  i<kids.length */\n      lt\n        /* \"contracts/CryptoKids.sol\":2812:2951  for(uint i=0;i<kids.length;i++)\r... */\n      iszero\n      tag_90\n      jumpi\n        /* \"contracts/CryptoKids.sol\":2886:2899  walletAddress */\n      dup3\n        /* \"contracts/CryptoKids.sol\":2863:2899  kids[i].walletAddress==walletAddress */\n      0xffffffffffffffffffffffffffffffffffffffff\n      and\n        /* \"contracts/CryptoKids.sol\":2863:2867  kids */\n      0x01\n        /* \"contracts/CryptoKids.sol\":2868:2869  i */\n      dup3\n        /* \"contracts/CryptoKids.sol\":2863:2870  kids[i] */\n      dup2\n      sload\n      dup2\n      lt\n      tag_92\n      jumpi\n      tag_93\n      tag_44\n      jump\t// in\n    tag_93:\n    tag_92:\n      swap1\n      0x00\n      mstore\n      keccak256(0x00, 0x20)\n      swap1\n      0x06\n      mul\n      add\n        /* \"contracts/CryptoKids.sol\":2863:2884  kids[i].walletAddress */\n      0x00\n      add\n      0x00\n      swap1\n      sload\n      swap1\n      0x0100\n      exp\n      swap1\n      div\n      0xffffffffffffffffffffffffffffffffffffffff\n      and\n        /* \"contracts/CryptoKids.sol\":2863:2899  kids[i].walletAddress==walletAddress */\n      0xffffffffffffffffffffffffffffffffffffffff\n      and\n      eq\n        /* \"contracts/CryptoKids.sol\":2860:2944  if(kids[i].walletAddress==walletAddress)\r... */\n      iszero\n      tag_95\n      jumpi\n        /* \"contracts/CryptoKids.sol\":2931:2932  i */\n      dup1\n        /* \"contracts/CryptoKids.sol\":2924:2932  return i */\n      swap2\n      pop\n      pop\n      jump(tag_88)\n        /* \"contracts/CryptoKids.sol\":2860:2944  if(kids[i].walletAddress==walletAddress)\r... */\n    tag_95:\n        /* \"contracts/CryptoKids.sol\":2839:2842  i++ */\n      dup1\n      dup1\n      tag_96\n      swap1\n      tag_97\n      jump\t// in\n    tag_96:\n      swap2\n      pop\n      pop\n        /* \"contracts/CryptoKids.sol\":2812:2951  for(uint i=0;i<kids.length;i++)\r... */\n      jump(tag_89)\n    tag_90:\n      pop\n        /* \"contracts/CryptoKids.sol\":2964:2967  999 */\n      0x03e7\n        /* \"contracts/CryptoKids.sol\":2957:2967  return 999 */\n      swap1\n      pop\n        /* \"contracts/CryptoKids.sol\":2738:2971  function getindex(address walletAddress) view private returns(uint){\r... */\n    tag_88:\n      swap2\n      swap1\n      pop\n      jump\t// out\n        /* \"contracts/CryptoKids.sol\":1854:2119  function addtoKidsBalance(address walletAddress) private {\r... */\n    tag_87:\n        /* \"contracts/CryptoKids.sol\":1922:1928  uint i */\n      0x00\n        /* \"contracts/CryptoKids.sol\":1918:2116  for(uint i=0;i<kids.length;i++)\r... */\n    tag_99:\n        /* \"contracts/CryptoKids.sol\":1933:1937  kids */\n      0x01\n        /* \"contracts/CryptoKids.sol\":1933:1944  kids.length */\n      dup1\n      sload\n      swap1\n      pop\n        /* \"contracts/CryptoKids.sol\":1931:1932  i */\n      dup2\n        /* \"contracts/CryptoKids.sol\":1931:1944  i<kids.length */\n      lt\n        /* \"contracts/CryptoKids.sol\":1918:2116  for(uint i=0;i<kids.length;i++)\r... */\n      iszero\n      tag_100\n      jumpi\n        /* \"contracts/CryptoKids.sol\":1992:2005  walletAddress */\n      dup2\n        /* \"contracts/CryptoKids.sol\":1969:2005  kids[i].walletAddress==walletAddress */\n      0xffffffffffffffffffffffffffffffffffffffff\n      and\n        /* \"contracts/CryptoKids.sol\":1969:1973  kids */\n      0x01\n        /* \"contracts/CryptoKids.sol\":1974:1975  i */\n      dup3\n        /* \"contracts/CryptoKids.sol\":1969:1976  kids[i] */\n      dup2\n      sload\n      dup2\n      lt\n      tag_102\n      jumpi\n      tag_103\n      tag_44\n      jump\t// in\n    tag_103:\n    tag_102:\n      swap1\n      0x00\n      mstore\n      keccak256(0x00, 0x20)\n      swap1\n      0x06\n      mul\n      add\n        /* \"contracts/CryptoKids.sol\":1969:1990  kids[i].walletAddress */\n      0x00\n      add\n      0x00\n      swap1\n      sload\n      swap1\n      0x0100\n      exp\n      swap1\n      div\n      0xffffffffffffffffffffffffffffffffffffffff\n      and\n        /* \"contracts/CryptoKids.sol\":1969:2005  kids[i].walletAddress==walletAddress */\n      0xffffffffffffffffffffffffffffffffffffffff\n      and\n      eq\n        /* \"contracts/CryptoKids.sol\":1966:2109  if(kids[i].walletAddress==walletAddress)\r... */\n      iszero\n      tag_105\n      jumpi\n        /* \"contracts/CryptoKids.sol\":2047:2056  msg.value */\n      callvalue\n        /* \"contracts/CryptoKids.sol\":2031:2035  kids */\n      0x01\n        /* \"contracts/CryptoKids.sol\":2036:2037  i */\n      dup3\n        /* \"contracts/CryptoKids.sol\":2031:2038  kids[i] */\n      dup2\n      sload\n      dup2\n      lt\n      tag_106\n      jumpi\n      tag_107\n      tag_44\n      jump\t// in\n    tag_107:\n    tag_106:\n      swap1\n      0x00\n      mstore\n      keccak256(0x00, 0x20)\n      swap1\n      0x06\n      mul\n      add\n        /* \"contracts/CryptoKids.sol\":2031:2045  kids[i].amount */\n      0x04\n      add\n      0x00\n        /* \"contracts/CryptoKids.sol\":2031:2056  kids[i].amount+=msg.value */\n      dup3\n      dup3\n      sload\n      tag_109\n      swap2\n      swap1\n      tag_110\n      jump\t// in\n    tag_109:\n      swap3\n      pop\n      pop\n      dup2\n      swap1\n      sstore\n      pop\n        /* \"contracts/CryptoKids.sol\":1966:2109  if(kids[i].walletAddress==walletAddress)\r... */\n    tag_105:\n        /* \"contracts/CryptoKids.sol\":1945:1948  i++ */\n      dup1\n      dup1\n      tag_111\n      swap1\n      tag_97\n      jump\t// in\n    tag_111:\n      swap2\n      pop\n      pop\n        /* \"contracts/CryptoKids.sol\":1918:2116  for(uint i=0;i<kids.length;i++)\r... */\n      jump(tag_99)\n    tag_100:\n      pop\n        /* \"contracts/CryptoKids.sol\":1854:2119  function addtoKidsBalance(address walletAddress) private {\r... */\n      pop\n      jump\t// out\n    tag_54:\n      dup3\n      dup1\n      sload\n      tag_112\n      swap1\n      tag_75\n      jump\t// in\n    tag_112:\n      swap1\n      0x00\n      mstore\n      keccak256(0x00, 0x20)\n      swap1\n      0x1f\n      add\n      0x20\n      swap1\n      div\n      dup2\n      add\n      swap3\n      dup3\n      tag_114\n      jumpi\n      0x00\n      dup6\n      sstore\n      jump(tag_113)\n    tag_114:\n      dup3\n      0x1f\n      lt\n      tag_115\n      jumpi\n      dup1\n      mload\n      not(0xff)\n      and\n      dup4\n      dup1\n      add\n      or\n      dup6\n      sstore\n      jump(tag_113)\n    tag_115:\n      dup3\n      dup1\n      add\n      0x01\n      add\n      dup6\n      sstore\n      dup3\n      iszero\n      tag_113\n      jumpi\n      swap2\n      dup3\n      add\n    tag_116:\n      dup3\n      dup2\n      gt\n      iszero\n      tag_117\n      jumpi\n      dup3\n      mload\n      dup3\n      sstore\n      swap2\n      0x20\n      add\n      swap2\n      swap1\n      0x01\n      add\n      swap1\n      jump(tag_116)\n    tag_117:\n    tag_113:\n      pop\n      swap1\n      pop\n      tag_118\n      swap2\n      swap1\n      tag_119\n      jump\t// in\n    tag_118:\n      pop\n      swap1\n      jump\t// out\n    tag_119:\n    tag_120:\n      dup1\n      dup3\n      gt\n      iszero\n      tag_121\n      jumpi\n      0x00\n      dup2\n      0x00\n      swap1\n      sstore\n      pop\n      0x01\n      add\n      jump(tag_120)\n    tag_121:\n      pop\n      swap1\n      jump\t// out\n        /* \"#utility.yul\":7:419   */\n    tag_123:\n        /* \"#utility.yul\":85:90   */\n      0x00\n        /* \"#utility.yul\":110:176   */\n      tag_125\n        /* \"#utility.yul\":126:175   */\n      tag_126\n        /* \"#utility.yul\":168:174   */\n      dup5\n        /* \"#utility.yul\":126:175   */\n      tag_127\n      jump\t// in\n    tag_126:\n        /* \"#utility.yul\":110:176   */\n      tag_128\n      jump\t// in\n    tag_125:\n        /* \"#utility.yul\":101:176   */\n      swap1\n      pop\n        /* \"#utility.yul\":199:205   */\n      dup3\n        /* \"#utility.yul\":192:197   */\n      dup2\n        /* \"#utility.yul\":185:206   */\n      mstore\n        /* \"#utility.yul\":237:241   */\n      0x20\n        /* \"#utility.yul\":230:235   */\n      dup2\n        /* \"#utility.yul\":226:242   */\n      add\n        /* \"#utility.yul\":275:278   */\n      dup5\n        /* \"#utility.yul\":266:272   */\n      dup5\n        /* \"#utility.yul\":261:264   */\n      dup5\n        /* \"#utility.yul\":257:273   */\n      add\n        /* \"#utility.yul\":254:279   */\n      gt\n        /* \"#utility.yul\":251:363   */\n      iszero\n      tag_129\n      jumpi\n        /* \"#utility.yul\":282:361   */\n      tag_130\n      tag_131\n      jump\t// in\n    tag_130:\n        /* \"#utility.yul\":251:363   */\n    tag_129:\n        /* \"#utility.yul\":372:413   */\n      tag_132\n        /* \"#utility.yul\":406:412   */\n      dup5\n        /* \"#utility.yul\":401:404   */\n      dup3\n        /* \"#utility.yul\":396:399   */\n      dup6\n        /* \"#utility.yul\":372:413   */\n      tag_133\n      jump\t// in\n    tag_132:\n        /* \"#utility.yul\":91:419   */\n      pop\n        /* \"#utility.yul\":7:419   */\n      swap4\n      swap3\n      pop\n      pop\n      pop\n      jump\t// out\n        /* \"#utility.yul\":425:564   */\n    tag_134:\n        /* \"#utility.yul\":471:476   */\n      0x00\n        /* \"#utility.yul\":509:515   */\n      dup2\n        /* \"#utility.yul\":496:516   */\n      calldataload\n        /* \"#utility.yul\":487:516   */\n      swap1\n      pop\n        /* \"#utility.yul\":525:558   */\n      tag_136\n        /* \"#utility.yul\":552:557   */\n      dup2\n        /* \"#utility.yul\":525:558   */\n      tag_137\n      jump\t// in\n    tag_136:\n        /* \"#utility.yul\":425:564   */\n      swap3\n      swap2\n      pop\n      pop\n      jump\t// out\n        /* \"#utility.yul\":570:725   */\n    tag_138:\n        /* \"#utility.yul\":624:629   */\n      0x00\n        /* \"#utility.yul\":662:668   */\n      dup2\n        /* \"#utility.yul\":649:669   */\n      calldataload\n        /* \"#utility.yul\":640:669   */\n      swap1\n      pop\n        /* \"#utility.yul\":678:719   */\n      tag_140\n        /* \"#utility.yul\":713:718   */\n      dup2\n        /* \"#utility.yul\":678:719   */\n      tag_141\n      jump\t// in\n    tag_140:\n        /* \"#utility.yul\":570:725   */\n      swap3\n      swap2\n      pop\n      pop\n      jump\t// out\n        /* \"#utility.yul\":731:864   */\n    tag_142:\n        /* \"#utility.yul\":774:779   */\n      0x00\n        /* \"#utility.yul\":812:818   */\n      dup2\n        /* \"#utility.yul\":799:819   */\n      calldataload\n        /* \"#utility.yul\":790:819   */\n      swap1\n      pop\n        /* \"#utility.yul\":828:858   */\n      tag_144\n        /* \"#utility.yul\":852:857   */\n      dup2\n        /* \"#utility.yul\":828:858   */\n      tag_145\n      jump\t// in\n    tag_144:\n        /* \"#utility.yul\":731:864   */\n      swap3\n      swap2\n      pop\n      pop\n      jump\t// out\n        /* \"#utility.yul\":884:1224   */\n    tag_146:\n        /* \"#utility.yul\":940:945   */\n      0x00\n        /* \"#utility.yul\":989:992   */\n      dup3\n        /* \"#utility.yul\":982:986   */\n      0x1f\n        /* \"#utility.yul\":974:980   */\n      dup4\n        /* \"#utility.yul\":970:987   */\n      add\n        /* \"#utility.yul\":966:993   */\n      slt\n        /* \"#utility.yul\":956:1078   */\n      tag_148\n      jumpi\n        /* \"#utility.yul\":997:1076   */\n      tag_149\n      tag_150\n      jump\t// in\n    tag_149:\n        /* \"#utility.yul\":956:1078   */\n    tag_148:\n        /* \"#utility.yul\":1114:1120   */\n      dup2\n        /* \"#utility.yul\":1101:1121   */\n      calldataload\n        /* \"#utility.yul\":1139:1218   */\n      tag_151\n        /* \"#utility.yul\":1214:1217   */\n      dup5\n        /* \"#utility.yul\":1206:1212   */\n      dup3\n        /* \"#utility.yul\":1199:1203   */\n      0x20\n        /* \"#utility.yul\":1191:1197   */\n      dup7\n        /* \"#utility.yul\":1187:1204   */\n      add\n        /* \"#utility.yul\":1139:1218   */\n      tag_123\n      jump\t// in\n    tag_151:\n        /* \"#utility.yul\":1130:1218   */\n      swap2\n      pop\n        /* \"#utility.yul\":946:1224   */\n      pop\n        /* \"#utility.yul\":884:1224   */\n      swap3\n      swap2\n      pop\n      pop\n      jump\t// out\n        /* \"#utility.yul\":1230:1369   */\n    tag_152:\n        /* \"#utility.yul\":1276:1281   */\n      0x00\n        /* \"#utility.yul\":1314:1320   */\n      dup2\n        /* \"#utility.yul\":1301:1321   */\n      calldataload\n        /* \"#utility.yul\":1292:1321   */\n      swap1\n      pop\n        /* \"#utility.yul\":1330:1363   */\n      tag_154\n        /* \"#utility.yul\":1357:1362   */\n      dup2\n        /* \"#utility.yul\":1330:1363   */\n      tag_155\n      jump\t// in\n    tag_154:\n        /* \"#utility.yul\":1230:1369   */\n      swap3\n      swap2\n      pop\n      pop\n      jump\t// out\n        /* \"#utility.yul\":1375:1704   */\n    tag_11:\n        /* \"#utility.yul\":1434:1440   */\n      0x00\n        /* \"#utility.yul\":1483:1485   */\n      0x20\n        /* \"#utility.yul\":1471:1480   */\n      dup3\n        /* \"#utility.yul\":1462:1469   */\n      dup5\n        /* \"#utility.yul\":1458:1481   */\n      sub\n        /* \"#utility.yul\":1454:1486   */\n      slt\n        /* \"#utility.yul\":1451:1570   */\n      iszero\n      tag_157\n      jumpi\n        /* \"#utility.yul\":1489:1568   */\n      tag_158\n      tag_159\n      jump\t// in\n    tag_158:\n        /* \"#utility.yul\":1451:1570   */\n    tag_157:\n        /* \"#utility.yul\":1609:1610   */\n      0x00\n        /* \"#utility.yul\":1634:1687   */\n      tag_160\n        /* \"#utility.yul\":1679:1686   */\n      dup5\n        /* \"#utility.yul\":1670:1676   */\n      dup3\n        /* \"#utility.yul\":1659:1668   */\n      dup6\n        /* \"#utility.yul\":1655:1677   */\n      add\n        /* \"#utility.yul\":1634:1687   */\n      tag_134\n      jump\t// in\n    tag_160:\n        /* \"#utility.yul\":1624:1687   */\n      swap2\n      pop\n        /* \"#utility.yul\":1580:1697   */\n      pop\n        /* \"#utility.yul\":1375:1704   */\n      swap3\n      swap2\n      pop\n      pop\n      jump\t// out\n        /* \"#utility.yul\":1710:2055   */\n    tag_27:\n        /* \"#utility.yul\":1777:1783   */\n      0x00\n        /* \"#utility.yul\":1826:1828   */\n      0x20\n        /* \"#utility.yul\":1814:1823   */\n      dup3\n        /* \"#utility.yul\":1805:1812   */\n      dup5\n        /* \"#utility.yul\":1801:1824   */\n      sub\n        /* \"#utility.yul\":1797:1829   */\n      slt\n        /* \"#utility.yul\":1794:1913   */\n      iszero\n      tag_162\n      jumpi\n        /* \"#utility.yul\":1832:1911   */\n      tag_163\n      tag_159\n      jump\t// in\n    tag_163:\n        /* \"#utility.yul\":1794:1913   */\n    tag_162:\n        /* \"#utility.yul\":1952:1953   */\n      0x00\n        /* \"#utility.yul\":1977:2038   */\n      tag_164\n        /* \"#utility.yul\":2030:2037   */\n      dup5\n        /* \"#utility.yul\":2021:2027   */\n      dup3\n        /* \"#utility.yul\":2010:2019   */\n      dup6\n        /* \"#utility.yul\":2006:2028   */\n      add\n        /* \"#utility.yul\":1977:2038   */\n      tag_138\n      jump\t// in\n    tag_164:\n        /* \"#utility.yul\":1967:2038   */\n      swap2\n      pop\n        /* \"#utility.yul\":1923:2048   */\n      pop\n        /* \"#utility.yul\":1710:2055   */\n      swap3\n      swap2\n      pop\n      pop\n      jump\t// out\n        /* \"#utility.yul\":2061:3488   */\n    tag_23:\n        /* \"#utility.yul\":2190:2196   */\n      0x00\n        /* \"#utility.yul\":2198:2204   */\n      dup1\n        /* \"#utility.yul\":2206:2212   */\n      0x00\n        /* \"#utility.yul\":2214:2220   */\n      dup1\n        /* \"#utility.yul\":2222:2228   */\n      0x00\n        /* \"#utility.yul\":2230:2236   */\n      dup1\n        /* \"#utility.yul\":2279:2282   */\n      0xc0\n        /* \"#utility.yul\":2267:2276   */\n      dup8\n        /* \"#utility.yul\":2258:2265   */\n      dup10\n        /* \"#utility.yul\":2254:2277   */\n      sub\n        /* \"#utility.yul\":2250:2283   */\n      slt\n        /* \"#utility.yul\":2247:2367   */\n      iszero\n      tag_166\n      jumpi\n        /* \"#utility.yul\":2286:2365   */\n      tag_167\n      tag_159\n      jump\t// in\n    tag_167:\n        /* \"#utility.yul\":2247:2367   */\n    tag_166:\n        /* \"#utility.yul\":2406:2407   */\n      0x00\n        /* \"#utility.yul\":2431:2492   */\n      tag_168\n        /* \"#utility.yul\":2484:2491   */\n      dup10\n        /* \"#utility.yul\":2475:2481   */\n      dup3\n        /* \"#utility.yul\":2464:2473   */\n      dup11\n        /* \"#utility.yul\":2460:2482   */\n      add\n        /* \"#utility.yul\":2431:2492   */\n      tag_138\n      jump\t// in\n    tag_168:\n        /* \"#utility.yul\":2421:2492   */\n      swap7\n      pop\n        /* \"#utility.yul\":2377:2502   */\n      pop\n        /* \"#utility.yul\":2569:2571   */\n      0x20\n        /* \"#utility.yul\":2558:2567   */\n      dup8\n        /* \"#utility.yul\":2554:2572   */\n      add\n        /* \"#utility.yul\":2541:2573   */\n      calldataload\n        /* \"#utility.yul\":2600:2618   */\n      0xffffffffffffffff\n        /* \"#utility.yul\":2592:2598   */\n      dup2\n        /* \"#utility.yul\":2589:2619   */\n      gt\n        /* \"#utility.yul\":2586:2703   */\n      iszero\n      tag_169\n      jumpi\n        /* \"#utility.yul\":2622:2701   */\n      tag_170\n      tag_171\n      jump\t// in\n    tag_170:\n        /* \"#utility.yul\":2586:2703   */\n    tag_169:\n        /* \"#utility.yul\":2727:2790   */\n      tag_172\n        /* \"#utility.yul\":2782:2789   */\n      dup10\n        /* \"#utility.yul\":2773:2779   */\n      dup3\n        /* \"#utility.yul\":2762:2771   */\n      dup11\n        /* \"#utility.yul\":2758:2780   */\n      add\n        /* \"#utility.yul\":2727:2790   */\n      tag_146\n      jump\t// in\n    tag_172:\n        /* \"#utility.yul\":2717:2790   */\n      swap6\n      pop\n        /* \"#utility.yul\":2512:2800   */\n      pop\n        /* \"#utility.yul\":2867:2869   */\n      0x40\n        /* \"#utility.yul\":2856:2865   */\n      dup8\n        /* \"#utility.yul\":2852:2870   */\n      add\n        /* \"#utility.yul\":2839:2871   */\n      calldataload\n        /* \"#utility.yul\":2898:2916   */\n      0xffffffffffffffff\n        /* \"#utility.yul\":2890:2896   */\n      dup2\n        /* \"#utility.yul\":2887:2917   */\n      gt\n        /* \"#utility.yul\":2884:3001   */\n      iszero\n      tag_173\n      jumpi\n        /* \"#utility.yul\":2920:2999   */\n      tag_174\n      tag_171\n      jump\t// in\n    tag_174:\n        /* \"#utility.yul\":2884:3001   */\n    tag_173:\n        /* \"#utility.yul\":3025:3088   */\n      tag_175\n        /* \"#utility.yul\":3080:3087   */\n      dup10\n        /* \"#utility.yul\":3071:3077   */\n      dup3\n        /* \"#utility.yul\":3060:3069   */\n      dup11\n        /* \"#utility.yul\":3056:3078   */\n      add\n        /* \"#utility.yul\":3025:3088   */\n      tag_146\n      jump\t// in\n    tag_175:\n        /* \"#utility.yul\":3015:3088   */\n      swap5\n      pop\n        /* \"#utility.yul\":2810:3098   */\n      pop\n        /* \"#utility.yul\":3137:3139   */\n      0x60\n        /* \"#utility.yul\":3163:3216   */\n      tag_176\n        /* \"#utility.yul\":3208:3215   */\n      dup10\n        /* \"#utility.yul\":3199:3205   */\n      dup3\n        /* \"#utility.yul\":3188:3197   */\n      dup11\n        /* \"#utility.yul\":3184:3206   */\n      add\n        /* \"#utility.yul\":3163:3216   */\n      tag_152\n      jump\t// in\n    tag_176:\n        /* \"#utility.yul\":3153:3216   */\n      swap4\n      pop\n        /* \"#utility.yul\":3108:3226   */\n      pop\n        /* \"#utility.yul\":3265:3268   */\n      0x80\n        /* \"#utility.yul\":3292:3345   */\n      tag_177\n        /* \"#utility.yul\":3337:3344   */\n      dup10\n        /* \"#utility.yul\":3328:3334   */\n      dup3\n        /* \"#utility.yul\":3317:3326   */\n      dup11\n        /* \"#utility.yul\":3313:3335   */\n      add\n        /* \"#utility.yul\":3292:3345   */\n      tag_152\n      jump\t// in\n    tag_177:\n        /* \"#utility.yul\":3282:3345   */\n      swap3\n      pop\n        /* \"#utility.yul\":3236:3355   */\n      pop\n        /* \"#utility.yul\":3394:3397   */\n      0xa0\n        /* \"#utility.yul\":3421:3471   */\n      tag_178\n        /* \"#utility.yul\":3463:3470   */\n      dup10\n        /* \"#utility.yul\":3454:3460   */\n      dup3\n        /* \"#utility.yul\":3443:3452   */\n      dup11\n        /* \"#utility.yul\":3439:3461   */\n      add\n        /* \"#utility.yul\":3421:3471   */\n      tag_142\n      jump\t// in\n    tag_178:\n        /* \"#utility.yul\":3411:3471   */\n      swap2\n      pop\n        /* \"#utility.yul\":3365:3481   */\n      pop\n        /* \"#utility.yul\":2061:3488   */\n      swap3\n      swap6\n      pop\n      swap3\n      swap6\n      pop\n      swap3\n      swap6\n      jump\t// out\n        /* \"#utility.yul\":3494:3823   */\n    tag_32:\n        /* \"#utility.yul\":3553:3559   */\n      0x00\n        /* \"#utility.yul\":3602:3604   */\n      0x20\n        /* \"#utility.yul\":3590:3599   */\n      dup3\n        /* \"#utility.yul\":3581:3588   */\n      dup5\n        /* \"#utility.yul\":3577:3600   */\n      sub\n        /* \"#utility.yul\":3573:3605   */\n      slt\n        /* \"#utility.yul\":3570:3689   */\n      iszero\n      tag_180\n      jumpi\n        /* \"#utility.yul\":3608:3687   */\n      tag_181\n      tag_159\n      jump\t// in\n    tag_181:\n        /* \"#utility.yul\":3570:3689   */\n    tag_180:\n        /* \"#utility.yul\":3728:3729   */\n      0x00\n        /* \"#utility.yul\":3753:3806   */\n      tag_182\n        /* \"#utility.yul\":3798:3805   */\n      dup5\n        /* \"#utility.yul\":3789:3795   */\n      dup3\n        /* \"#utility.yul\":3778:3787   */\n      dup6\n        /* \"#utility.yul\":3774:3796   */\n      add\n        /* \"#utility.yul\":3753:3806   */\n      tag_152\n      jump\t// in\n    tag_182:\n        /* \"#utility.yul\":3743:3806   */\n      swap2\n      pop\n        /* \"#utility.yul\":3699:3816   */\n      pop\n        /* \"#utility.yul\":3494:3823   */\n      swap3\n      swap2\n      pop\n      pop\n      jump\t// out\n        /* \"#utility.yul\":3829:3971   */\n    tag_183:\n        /* \"#utility.yul\":3932:3964   */\n      tag_185\n        /* \"#utility.yul\":3958:3963   */\n      dup2\n        /* \"#utility.yul\":3932:3964   */\n      tag_186\n      jump\t// in\n    tag_185:\n        /* \"#utility.yul\":3927:3930   */\n      dup3\n        /* \"#utility.yul\":3920:3965   */\n      mstore\n        /* \"#utility.yul\":3829:3971   */\n      pop\n      pop\n      jump\t// out\n        /* \"#utility.yul\":3977:4086   */\n    tag_187:\n        /* \"#utility.yul\":4058:4079   */\n      tag_189\n        /* \"#utility.yul\":4073:4078   */\n      dup2\n        /* \"#utility.yul\":4058:4079   */\n      tag_190\n      jump\t// in\n    tag_189:\n        /* \"#utility.yul\":4053:4056   */\n      dup3\n        /* \"#utility.yul\":4046:4080   */\n      mstore\n        /* \"#utility.yul\":3977:4086   */\n      pop\n      pop\n      jump\t// out\n        /* \"#utility.yul\":4092:4456   */\n    tag_191:\n        /* \"#utility.yul\":4180:4183   */\n      0x00\n        /* \"#utility.yul\":4208:4247   */\n      tag_193\n        /* \"#utility.yul\":4241:4246   */\n      dup3\n        /* \"#utility.yul\":4208:4247   */\n      tag_194\n      jump\t// in\n    tag_193:\n        /* \"#utility.yul\":4263:4334   */\n      tag_195\n        /* \"#utility.yul\":4327:4333   */\n      dup2\n        /* \"#utility.yul\":4322:4325   */\n      dup6\n        /* \"#utility.yul\":4263:4334   */\n      tag_196\n      jump\t// in\n    tag_195:\n        /* \"#utility.yul\":4256:4334   */\n      swap4\n      pop\n        /* \"#utility.yul\":4343:4395   */\n      tag_197\n        /* \"#utility.yul\":4388:4394   */\n      dup2\n        /* \"#utility.yul\":4383:4386   */\n      dup6\n        /* \"#utility.yul\":4376:4380   */\n      0x20\n        /* \"#utility.yul\":4369:4374   */\n      dup7\n        /* \"#utility.yul\":4365:4381   */\n      add\n        /* \"#utility.yul\":4343:4395   */\n      tag_198\n      jump\t// in\n    tag_197:\n        /* \"#utility.yul\":4420:4449   */\n      tag_199\n        /* \"#utility.yul\":4442:4448   */\n      dup2\n        /* \"#utility.yul\":4420:4449   */\n      tag_200\n      jump\t// in\n    tag_199:\n        /* \"#utility.yul\":4415:4418   */\n      dup5\n        /* \"#utility.yul\":4411:4450   */\n      add\n        /* \"#utility.yul\":4404:4450   */\n      swap2\n      pop\n        /* \"#utility.yul\":4184:4456   */\n      pop\n        /* \"#utility.yul\":4092:4456   */\n      swap3\n      swap2\n      pop\n      pop\n      jump\t// out\n        /* \"#utility.yul\":4462:4827   */\n    tag_201:\n        /* \"#utility.yul\":4604:4607   */\n      0x00\n        /* \"#utility.yul\":4625:4691   */\n      tag_203\n        /* \"#utility.yul\":4689:4690   */\n      0x05\n        /* \"#utility.yul\":4684:4687   */\n      dup4\n        /* \"#utility.yul\":4625:4691   */\n      tag_196\n      jump\t// in\n    tag_203:\n        /* \"#utility.yul\":4618:4691   */\n      swap2\n      pop\n        /* \"#utility.yul\":4700:4793   */\n      tag_204\n        /* \"#utility.yul\":4789:4792   */\n      dup3\n        /* \"#utility.yul\":4700:4793   */\n      tag_205\n      jump\t// in\n    tag_204:\n        /* \"#utility.yul\":4818:4820   */\n      0x20\n        /* \"#utility.yul\":4813:4816   */\n      dup3\n        /* \"#utility.yul\":4809:4821   */\n      add\n        /* \"#utility.yul\":4802:4821   */\n      swap1\n      pop\n        /* \"#utility.yul\":4462:4827   */\n      swap2\n      swap1\n      pop\n      jump\t// out\n        /* \"#utility.yul\":4833:4951   */\n    tag_206:\n        /* \"#utility.yul\":4920:4944   */\n      tag_208\n        /* \"#utility.yul\":4938:4943   */\n      dup2\n        /* \"#utility.yul\":4920:4944   */\n      tag_209\n      jump\t// in\n    tag_208:\n        /* \"#utility.yul\":4915:4918   */\n      dup3\n        /* \"#utility.yul\":4908:4945   */\n      mstore\n        /* \"#utility.yul\":4833:4951   */\n      pop\n      pop\n      jump\t// out\n        /* \"#utility.yul\":4957:5934   */\n    tag_35:\n        /* \"#utility.yul\":5240:5244   */\n      0x00\n        /* \"#utility.yul\":5278:5281   */\n      0xc0\n        /* \"#utility.yul\":5267:5276   */\n      dup3\n        /* \"#utility.yul\":5263:5282   */\n      add\n        /* \"#utility.yul\":5255:5282   */\n      swap1\n      pop\n        /* \"#utility.yul\":5292:5379   */\n      tag_211\n        /* \"#utility.yul\":5376:5377   */\n      0x00\n        /* \"#utility.yul\":5365:5374   */\n      dup4\n        /* \"#utility.yul\":5361:5378   */\n      add\n        /* \"#utility.yul\":5352:5358   */\n      dup10\n        /* \"#utility.yul\":5292:5379   */\n      tag_183\n      jump\t// in\n    tag_211:\n        /* \"#utility.yul\":5426:5435   */\n      dup2\n        /* \"#utility.yul\":5420:5424   */\n      dup2\n        /* \"#utility.yul\":5416:5436   */\n      sub\n        /* \"#utility.yul\":5411:5413   */\n      0x20\n        /* \"#utility.yul\":5400:5409   */\n      dup4\n        /* \"#utility.yul\":5396:5414   */\n      add\n        /* \"#utility.yul\":5389:5437   */\n      mstore\n        /* \"#utility.yul\":5454:5532   */\n      tag_212\n        /* \"#utility.yul\":5527:5531   */\n      dup2\n        /* \"#utility.yul\":5518:5524   */\n      dup9\n        /* \"#utility.yul\":5454:5532   */\n      tag_191\n      jump\t// in\n    tag_212:\n        /* \"#utility.yul\":5446:5532   */\n      swap1\n      pop\n        /* \"#utility.yul\":5579:5588   */\n      dup2\n        /* \"#utility.yul\":5573:5577   */\n      dup2\n        /* \"#utility.yul\":5569:5589   */\n      sub\n        /* \"#utility.yul\":5564:5566   */\n      0x40\n        /* \"#utility.yul\":5553:5562   */\n      dup4\n        /* \"#utility.yul\":5549:5567   */\n      add\n        /* \"#utility.yul\":5542:5590   */\n      mstore\n        /* \"#utility.yul\":5607:5685   */\n      tag_213\n        /* \"#utility.yul\":5680:5684   */\n      dup2\n        /* \"#utility.yul\":5671:5677   */\n      dup8\n        /* \"#utility.yul\":5607:5685   */\n      tag_191\n      jump\t// in\n    tag_213:\n        /* \"#utility.yul\":5599:5685   */\n      swap1\n      pop\n        /* \"#utility.yul\":5695:5767   */\n      tag_214\n        /* \"#utility.yul\":5763:5765   */\n      0x60\n        /* \"#utility.yul\":5752:5761   */\n      dup4\n        /* \"#utility.yul\":5748:5766   */\n      add\n        /* \"#utility.yul\":5739:5745   */\n      dup7\n        /* \"#utility.yul\":5695:5767   */\n      tag_206\n      jump\t// in\n    tag_214:\n        /* \"#utility.yul\":5777:5850   */\n      tag_215\n        /* \"#utility.yul\":5845:5848   */\n      0x80\n        /* \"#utility.yul\":5834:5843   */\n      dup4\n        /* \"#utility.yul\":5830:5849   */\n      add\n        /* \"#utility.yul\":5821:5827   */\n      dup6\n        /* \"#utility.yul\":5777:5850   */\n      tag_206\n      jump\t// in\n    tag_215:\n        /* \"#utility.yul\":5860:5927   */\n      tag_216\n        /* \"#utility.yul\":5922:5925   */\n      0xa0\n        /* \"#utility.yul\":5911:5920   */\n      dup4\n        /* \"#utility.yul\":5907:5926   */\n      add\n        /* \"#utility.yul\":5898:5904   */\n      dup5\n        /* \"#utility.yul\":5860:5927   */\n      tag_187\n      jump\t// in\n    tag_216:\n        /* \"#utility.yul\":4957:5934   */\n      swap8\n      swap7\n      pop\n      pop\n      pop\n      pop\n      pop\n      pop\n      pop\n      jump\t// out\n        /* \"#utility.yul\":5940:6150   */\n    tag_14:\n        /* \"#utility.yul\":6027:6031   */\n      0x00\n        /* \"#utility.yul\":6065:6067   */\n      0x20\n        /* \"#utility.yul\":6054:6063   */\n      dup3\n        /* \"#utility.yul\":6050:6068   */\n      add\n        /* \"#utility.yul\":6042:6068   */\n      swap1\n      pop\n        /* \"#utility.yul\":6078:6143   */\n      tag_218\n        /* \"#utility.yul\":6140:6141   */\n      0x00\n        /* \"#utility.yul\":6129:6138   */\n      dup4\n        /* \"#utility.yul\":6125:6142   */\n      add\n        /* \"#utility.yul\":6116:6122   */\n      dup5\n        /* \"#utility.yul\":6078:6143   */\n      tag_187\n      jump\t// in\n    tag_218:\n        /* \"#utility.yul\":5940:6150   */\n      swap3\n      swap2\n      pop\n      pop\n      jump\t// out\n        /* \"#utility.yul\":6156:6575   */\n    tag_63:\n        /* \"#utility.yul\":6322:6326   */\n      0x00\n        /* \"#utility.yul\":6360:6362   */\n      0x20\n        /* \"#utility.yul\":6349:6358   */\n      dup3\n        /* \"#utility.yul\":6345:6363   */\n      add\n        /* \"#utility.yul\":6337:6363   */\n      swap1\n      pop\n        /* \"#utility.yul\":6409:6418   */\n      dup2\n        /* \"#utility.yul\":6403:6407   */\n      dup2\n        /* \"#utility.yul\":6399:6419   */\n      sub\n        /* \"#utility.yul\":6395:6396   */\n      0x00\n        /* \"#utility.yul\":6384:6393   */\n      dup4\n        /* \"#utility.yul\":6380:6397   */\n      add\n        /* \"#utility.yul\":6373:6420   */\n      mstore\n        /* \"#utility.yul\":6437:6568   */\n      tag_220\n        /* \"#utility.yul\":6563:6567   */\n      dup2\n        /* \"#utility.yul\":6437:6568   */\n      tag_201\n      jump\t// in\n    tag_220:\n        /* \"#utility.yul\":6429:6568   */\n      swap1\n      pop\n        /* \"#utility.yul\":6156:6575   */\n      swap2\n      swap1\n      pop\n      jump\t// out\n        /* \"#utility.yul\":6581:6803   */\n    tag_19:\n        /* \"#utility.yul\":6674:6678   */\n      0x00\n        /* \"#utility.yul\":6712:6714   */\n      0x20\n        /* \"#utility.yul\":6701:6710   */\n      dup3\n        /* \"#utility.yul\":6697:6715   */\n      add\n        /* \"#utility.yul\":6689:6715   */\n      swap1\n      pop\n        /* \"#utility.yul\":6725:6796   */\n      tag_222\n        /* \"#utility.yul\":6793:6794   */\n      0x00\n        /* \"#utility.yul\":6782:6791   */\n      dup4\n        /* \"#utility.yul\":6778:6795   */\n      add\n        /* \"#utility.yul\":6769:6775   */\n      dup5\n        /* \"#utility.yul\":6725:6796   */\n      tag_206\n      jump\t// in\n    tag_222:\n        /* \"#utility.yul\":6581:6803   */\n      swap3\n      swap2\n      pop\n      pop\n      jump\t// out\n        /* \"#utility.yul\":6809:6938   */\n    tag_128:\n        /* \"#utility.yul\":6843:6849   */\n      0x00\n        /* \"#utility.yul\":6870:6890   */\n      tag_224\n      tag_225\n      jump\t// in\n    tag_224:\n        /* \"#utility.yul\":6860:6890   */\n      swap1\n      pop\n        /* \"#utility.yul\":6899:6932   */\n      tag_226\n        /* \"#utility.yul\":6927:6931   */\n      dup3\n        /* \"#utility.yul\":6919:6925   */\n      dup3\n        /* \"#utility.yul\":6899:6932   */\n      tag_227\n      jump\t// in\n    tag_226:\n        /* \"#utility.yul\":6809:6938   */\n      swap2\n      swap1\n      pop\n      jump\t// out\n        /* \"#utility.yul\":6944:7019   */\n    tag_225:\n        /* \"#utility.yul\":6977:6983   */\n      0x00\n        /* \"#utility.yul\":7010:7012   */\n      0x40\n        /* \"#utility.yul\":7004:7013   */\n      mload\n        /* \"#utility.yul\":6994:7013   */\n      swap1\n      pop\n        /* \"#utility.yul\":6944:7019   */\n      swap1\n      jump\t// out\n        /* \"#utility.yul\":7025:7333   */\n    tag_127:\n        /* \"#utility.yul\":7087:7091   */\n      0x00\n        /* \"#utility.yul\":7177:7195   */\n      0xffffffffffffffff\n        /* \"#utility.yul\":7169:7175   */\n      dup3\n        /* \"#utility.yul\":7166:7196   */\n      gt\n        /* \"#utility.yul\":7163:7219   */\n      iszero\n      tag_230\n      jumpi\n        /* \"#utility.yul\":7199:7217   */\n      tag_231\n      tag_232\n      jump\t// in\n    tag_231:\n        /* \"#utility.yul\":7163:7219   */\n    tag_230:\n        /* \"#utility.yul\":7237:7266   */\n      tag_233\n        /* \"#utility.yul\":7259:7265   */\n      dup3\n        /* \"#utility.yul\":7237:7266   */\n      tag_200\n      jump\t// in\n    tag_233:\n        /* \"#utility.yul\":7229:7266   */\n      swap1\n      pop\n        /* \"#utility.yul\":7321:7325   */\n      0x20\n        /* \"#utility.yul\":7315:7319   */\n      dup2\n        /* \"#utility.yul\":7311:7326   */\n      add\n        /* \"#utility.yul\":7303:7326   */\n      swap1\n      pop\n        /* \"#utility.yul\":7025:7333   */\n      swap2\n      swap1\n      pop\n      jump\t// out\n        /* \"#utility.yul\":7339:7438   */\n    tag_194:\n        /* \"#utility.yul\":7391:7397   */\n      0x00\n        /* \"#utility.yul\":7425:7430   */\n      dup2\n        /* \"#utility.yul\":7419:7431   */\n      mload\n        /* \"#utility.yul\":7409:7431   */\n      swap1\n      pop\n        /* \"#utility.yul\":7339:7438   */\n      swap2\n      swap1\n      pop\n      jump\t// out\n        /* \"#utility.yul\":7444:7613   */\n    tag_196:\n        /* \"#utility.yul\":7528:7539   */\n      0x00\n        /* \"#utility.yul\":7562:7568   */\n      dup3\n        /* \"#utility.yul\":7557:7560   */\n      dup3\n        /* \"#utility.yul\":7550:7569   */\n      mstore\n        /* \"#utility.yul\":7602:7606   */\n      0x20\n        /* \"#utility.yul\":7597:7600   */\n      dup3\n        /* \"#utility.yul\":7593:7607   */\n      add\n        /* \"#utility.yul\":7578:7607   */\n      swap1\n      pop\n        /* \"#utility.yul\":7444:7613   */\n      swap3\n      swap2\n      pop\n      pop\n      jump\t// out\n        /* \"#utility.yul\":7619:7924   */\n    tag_110:\n        /* \"#utility.yul\":7659:7662   */\n      0x00\n        /* \"#utility.yul\":7678:7698   */\n      tag_237\n        /* \"#utility.yul\":7696:7697   */\n      dup3\n        /* \"#utility.yul\":7678:7698   */\n      tag_209\n      jump\t// in\n    tag_237:\n        /* \"#utility.yul\":7673:7698   */\n      swap2\n      pop\n        /* \"#utility.yul\":7712:7732   */\n      tag_238\n        /* \"#utility.yul\":7730:7731   */\n      dup4\n        /* \"#utility.yul\":7712:7732   */\n      tag_209\n      jump\t// in\n    tag_238:\n        /* \"#utility.yul\":7707:7732   */\n      swap3\n      pop\n        /* \"#utility.yul\":7866:7867   */\n      dup3\n        /* \"#utility.yul\":7798:7864   */\n      0xffffffffffffffffffffffffffffffffffffffffffffffffffffffffffffffff\n        /* \"#utility.yul\":7794:7868   */\n      sub\n        /* \"#utility.yul\":7791:7792   */\n      dup3\n        /* \"#utility.yul\":7788:7869   */\n      gt\n        /* \"#utility.yul\":7785:7892   */\n      iszero\n      tag_239\n      jumpi\n        /* \"#utility.yul\":7872:7890   */\n      tag_240\n      tag_241\n      jump\t// in\n    tag_240:\n        /* \"#utility.yul\":7785:7892   */\n    tag_239:\n        /* \"#utility.yul\":7916:7917   */\n      dup3\n        /* \"#utility.yul\":7913:7914   */\n      dup3\n        /* \"#utility.yul\":7909:7918   */\n      add\n        /* \"#utility.yul\":7902:7918   */\n      swap1\n      pop\n        /* \"#utility.yul\":7619:7924   */\n      swap3\n      swap2\n      pop\n      pop\n      jump\t// out\n        /* \"#utility.yul\":7930:8026   */\n    tag_242:\n        /* \"#utility.yul\":7967:7974   */\n      0x00\n        /* \"#utility.yul\":7996:8020   */\n      tag_244\n        /* \"#utility.yul\":8014:8019   */\n      dup3\n        /* \"#utility.yul\":7996:8020   */\n      tag_245\n      jump\t// in\n    tag_244:\n        /* \"#utility.yul\":7985:8020   */\n      swap1\n      pop\n        /* \"#utility.yul\":7930:8026   */\n      swap2\n      swap1\n      pop\n      jump\t// out\n        /* \"#utility.yul\":8032:8136   */\n    tag_186:\n        /* \"#utility.yul\":8077:8084   */\n      0x00\n        /* \"#utility.yul\":8106:8130   */\n      tag_247\n        /* \"#utility.yul\":8124:8129   */\n      dup3\n        /* \"#utility.yul\":8106:8130   */\n      tag_245\n      jump\t// in\n    tag_247:\n        /* \"#utility.yul\":8095:8130   */\n      swap1\n      pop\n        /* \"#utility.yul\":8032:8136   */\n      swap2\n      swap1\n      pop\n      jump\t// out\n        /* \"#utility.yul\":8142:8232   */\n    tag_190:\n        /* \"#utility.yul\":8176:8183   */\n      0x00\n        /* \"#utility.yul\":8219:8224   */\n      dup2\n        /* \"#utility.yul\":8212:8225   */\n      iszero\n        /* \"#utility.yul\":8205:8226   */\n      iszero\n        /* \"#utility.yul\":8194:8226   */\n      swap1\n      pop\n        /* \"#utility.yul\":8142:8232   */\n      swap2\n      swap1\n      pop\n      jump\t// out\n        /* \"#utility.yul\":8238:8364   */\n    tag_245:\n        /* \"#utility.yul\":8275:8282   */\n      0x00\n        /* \"#utility.yul\":8315:8357   */\n      0xffffffffffffffffffffffffffffffffffffffff\n        /* \"#utility.yul\":8308:8313   */\n      dup3\n        /* \"#utility.yul\":8304:8358   */\n      and\n        /* \"#utility.yul\":8293:8358   */\n      swap1\n      pop\n        /* \"#utility.yul\":8238:8364   */\n      swap2\n      swap1\n      pop\n      jump\t// out\n        /* \"#utility.yul\":8370:8447   */\n    tag_209:\n        /* \"#utility.yul\":8407:8414   */\n      0x00\n        /* \"#utility.yul\":8436:8441   */\n      dup2\n        /* \"#utility.yul\":8425:8441   */\n      swap1\n      pop\n        /* \"#utility.yul\":8370:8447   */\n      swap2\n      swap1\n      pop\n      jump\t// out\n        /* \"#utility.yul\":8453:8607   */\n    tag_133:\n        /* \"#utility.yul\":8537:8543   */\n      dup3\n        /* \"#utility.yul\":8532:8535   */\n      dup2\n        /* \"#utility.yul\":8527:8530   */\n      dup4\n        /* \"#utility.yul\":8514:8544   */\n      calldatacopy\n        /* \"#utility.yul\":8599:8600   */\n      0x00\n        /* \"#utility.yul\":8590:8596   */\n      dup4\n        /* \"#utility.yul\":8585:8588   */\n      dup4\n        /* \"#utility.yul\":8581:8597   */\n      add\n        /* \"#utility.yul\":8574:8601   */\n      mstore\n        /* \"#utility.yul\":8453:8607   */\n      pop\n      pop\n      pop\n      jump\t// out\n        /* \"#utility.yul\":8613:8920   */\n    tag_198:\n        /* \"#utility.yul\":8681:8682   */\n      0x00\n        /* \"#utility.yul\":8691:8804   */\n    tag_253:\n        /* \"#utility.yul\":8705:8711   */\n      dup4\n        /* \"#utility.yul\":8702:8703   */\n      dup2\n        /* \"#utility.yul\":8699:8712   */\n      lt\n        /* \"#utility.yul\":8691:8804   */\n      iszero\n      tag_255\n      jumpi\n        /* \"#utility.yul\":8790:8791   */\n      dup1\n        /* \"#utility.yul\":8785:8788   */\n      dup3\n        /* \"#utility.yul\":8781:8792   */\n      add\n        /* \"#utility.yul\":8775:8793   */\n      mload\n        /* \"#utility.yul\":8771:8772   */\n      dup2\n        /* \"#utility.yul\":8766:8769   */\n      dup5\n        /* \"#utility.yul\":8762:8773   */\n      add\n        /* \"#utility.yul\":8755:8794   */\n      mstore\n        /* \"#utility.yul\":8727:8729   */\n      0x20\n        /* \"#utility.yul\":8724:8725   */\n      dup2\n        /* \"#utility.yul\":8720:8730   */\n      add\n        /* \"#utility.yul\":8715:8730   */\n      swap1\n      pop\n        /* \"#utility.yul\":8691:8804   */\n      jump(tag_253)\n    tag_255:\n        /* \"#utility.yul\":8822:8828   */\n      dup4\n        /* \"#utility.yul\":8819:8820   */\n      dup2\n        /* \"#utility.yul\":8816:8829   */\n      gt\n        /* \"#utility.yul\":8813:8914   */\n      iszero\n      tag_256\n      jumpi\n        /* \"#utility.yul\":8902:8903   */\n      0x00\n        /* \"#utility.yul\":8893:8899   */\n      dup5\n        /* \"#utility.yul\":8888:8891   */\n      dup5\n        /* \"#utility.yul\":8884:8900   */\n      add\n        /* \"#utility.yul\":8877:8904   */\n      mstore\n        /* \"#utility.yul\":8813:8914   */\n    tag_256:\n        /* \"#utility.yul\":8662:8920   */\n      pop\n        /* \"#utility.yul\":8613:8920   */\n      pop\n      pop\n      pop\n      jump\t// out\n        /* \"#utility.yul\":8926:9246   */\n    tag_75:\n        /* \"#utility.yul\":8970:8976   */\n      0x00\n        /* \"#utility.yul\":9007:9008   */\n      0x02\n        /* \"#utility.yul\":9001:9005   */\n      dup3\n        /* \"#utility.yul\":8997:9009   */\n      div\n        /* \"#utility.yul\":8987:9009   */\n      swap1\n      pop\n        /* \"#utility.yul\":9054:9055   */\n      0x01\n        /* \"#utility.yul\":9048:9052   */\n      dup3\n        /* \"#utility.yul\":9044:9056   */\n      and\n        /* \"#utility.yul\":9075:9093   */\n      dup1\n        /* \"#utility.yul\":9065:9146   */\n      tag_258\n      jumpi\n        /* \"#utility.yul\":9131:9135   */\n      0x7f\n        /* \"#utility.yul\":9123:9129   */\n      dup3\n        /* \"#utility.yul\":9119:9136   */\n      and\n        /* \"#utility.yul\":9109:9136   */\n      swap2\n      pop\n        /* \"#utility.yul\":9065:9146   */\n    tag_258:\n        /* \"#utility.yul\":9193:9195   */\n      0x20\n        /* \"#utility.yul\":9185:9191   */\n      dup3\n        /* \"#utility.yul\":9182:9196   */\n      lt\n        /* \"#utility.yul\":9162:9180   */\n      dup2\n        /* \"#utility.yul\":9159:9197   */\n      eq\n        /* \"#utility.yul\":9156:9240   */\n      iszero\n      tag_259\n      jumpi\n        /* \"#utility.yul\":9212:9230   */\n      tag_260\n      tag_261\n      jump\t// in\n    tag_260:\n        /* \"#utility.yul\":9156:9240   */\n    tag_259:\n        /* \"#utility.yul\":8977:9246   */\n      pop\n        /* \"#utility.yul\":8926:9246   */\n      swap2\n      swap1\n      pop\n      jump\t// out\n        /* \"#utility.yul\":9252:9533   */\n    tag_227:\n        /* \"#utility.yul\":9335:9362   */\n      tag_263\n        /* \"#utility.yul\":9357:9361   */\n      dup3\n        /* \"#utility.yul\":9335:9362   */\n      tag_200\n      jump\t// in\n    tag_263:\n        /* \"#utility.yul\":9327:9333   */\n      dup2\n        /* \"#utility.yul\":9323:9363   */\n      add\n        /* \"#utility.yul\":9465:9471   */\n      dup2\n        /* \"#utility.yul\":9453:9463   */\n      dup2\n        /* \"#utility.yul\":9450:9472   */\n      lt\n        /* \"#utility.yul\":9429:9447   */\n      0xffffffffffffffff\n        /* \"#utility.yul\":9417:9427   */\n      dup3\n        /* \"#utility.yul\":9414:9448   */\n      gt\n        /* \"#utility.yul\":9411:9473   */\n      or\n        /* \"#utility.yul\":9408:9496   */\n      iszero\n      tag_264\n      jumpi\n        /* \"#utility.yul\":9476:9494   */\n      tag_265\n      tag_232\n      jump\t// in\n    tag_265:\n        /* \"#utility.yul\":9408:9496   */\n    tag_264:\n        /* \"#utility.yul\":9516:9526   */\n      dup1\n        /* \"#utility.yul\":9512:9514   */\n      0x40\n        /* \"#utility.yul\":9505:9527   */\n      mstore\n        /* \"#utility.yul\":9295:9533   */\n      pop\n        /* \"#utility.yul\":9252:9533   */\n      pop\n      pop\n      jump\t// out\n        /* \"#utility.yul\":9539:9772   */\n    tag_97:\n        /* \"#utility.yul\":9578:9581   */\n      0x00\n        /* \"#utility.yul\":9601:9625   */\n      tag_267\n        /* \"#utility.yul\":9619:9624   */\n      dup3\n        /* \"#utility.yul\":9601:9625   */\n      tag_209\n      jump\t// in\n    tag_267:\n        /* \"#utility.yul\":9592:9625   */\n      swap2\n      pop\n        /* \"#utility.yul\":9647:9713   */\n      0xffffffffffffffffffffffffffffffffffffffffffffffffffffffffffffffff\n        /* \"#utility.yul\":9640:9645   */\n      dup3\n        /* \"#utility.yul\":9637:9714   */\n      eq\n        /* \"#utility.yul\":9634:9737   */\n      iszero\n      tag_268\n      jumpi\n        /* \"#utility.yul\":9717:9735   */\n      tag_269\n      tag_241\n      jump\t// in\n    tag_269:\n        /* \"#utility.yul\":9634:9737   */\n    tag_268:\n        /* \"#utility.yul\":9764:9765   */\n      0x01\n        /* \"#utility.yul\":9757:9762   */\n      dup3\n        /* \"#utility.yul\":9753:9766   */\n      add\n        /* \"#utility.yul\":9746:9766   */\n      swap1\n      pop\n        /* \"#utility.yul\":9539:9772   */\n      swap2\n      swap1\n      pop\n      jump\t// out\n        /* \"#utility.yul\":9778:9958   */\n    tag_241:\n        /* \"#utility.yul\":9826:9903   */\n      0x4e487b7100000000000000000000000000000000000000000000000000000000\n        /* \"#utility.yul\":9823:9824   */\n      0x00\n        /* \"#utility.yul\":9816:9904   */\n      mstore\n        /* \"#utility.yul\":9923:9927   */\n      0x11\n        /* \"#utility.yul\":9920:9921   */\n      0x04\n        /* \"#utility.yul\":9913:9928   */\n      mstore\n        /* \"#utility.yul\":9947:9951   */\n      0x24\n        /* \"#utility.yul\":9944:9945   */\n      0x00\n        /* \"#utility.yul\":9937:9952   */\n      revert\n        /* \"#utility.yul\":9964:10144   */\n    tag_261:\n        /* \"#utility.yul\":10012:10089   */\n      0x4e487b7100000000000000000000000000000000000000000000000000000000\n        /* \"#utility.yul\":10009:10010   */\n      0x00\n        /* \"#utility.yul\":10002:10090   */\n      mstore\n        /* \"#utility.yul\":10109:10113   */\n      0x22\n        /* \"#utility.yul\":10106:10107   */\n      0x04\n        /* \"#utility.yul\":10099:10114   */\n      mstore\n        /* \"#utility.yul\":10133:10137   */\n      0x24\n        /* \"#utility.yul\":10130:10131   */\n      0x00\n        /* \"#utility.yul\":10123:10138   */\n      revert\n        /* \"#utility.yul\":10150:10330   */\n    tag_44:\n        /* \"#utility.yul\":10198:10275   */\n      0x4e487b7100000000000000000000000000000000000000000000000000000000\n        /* \"#utility.yul\":10195:10196   */\n      0x00\n        /* \"#utility.yul\":10188:10276   */\n      mstore\n        /* \"#utility.yul\":10295:10299   */\n      0x32\n        /* \"#utility.yul\":10292:10293   */\n      0x04\n        /* \"#utility.yul\":10285:10300   */\n      mstore\n        /* \"#utility.yul\":10319:10323   */\n      0x24\n        /* \"#utility.yul\":10316:10317   */\n      0x00\n        /* \"#utility.yul\":10309:10324   */\n      revert\n        /* \"#utility.yul\":10336:10516   */\n    tag_232:\n        /* \"#utility.yul\":10384:10461   */\n      0x4e487b7100000000000000000000000000000000000000000000000000000000\n        /* \"#utility.yul\":10381:10382   */\n      0x00\n        /* \"#utility.yul\":10374:10462   */\n      mstore\n        /* \"#utility.yul\":10481:10485   */\n      0x41\n        /* \"#utility.yul\":10478:10479   */\n      0x04\n        /* \"#utility.yul\":10471:10486   */\n      mstore\n        /* \"#utility.yul\":10505:10509   */\n      0x24\n        /* \"#utility.yul\":10502:10503   */\n      0x00\n        /* \"#utility.yul\":10495:10510   */\n      revert\n        /* \"#utility.yul\":10522:10639   */\n    tag_150:\n        /* \"#utility.yul\":10631:10632   */\n      0x00\n        /* \"#utility.yul\":10628:10629   */\n      dup1\n        /* \"#utility.yul\":10621:10633   */\n      revert\n        /* \"#utility.yul\":10645:10762   */\n    tag_131:\n        /* \"#utility.yul\":10754:10755   */\n      0x00\n        /* \"#utility.yul\":10751:10752   */\n      dup1\n        /* \"#utility.yul\":10744:10756   */\n      revert\n        /* \"#utility.yul\":10768:10885   */\n    tag_171:\n        /* \"#utility.yul\":10877:10878   */\n      0x00\n        /* \"#utility.yul\":10874:10875   */\n      dup1\n        /* \"#utility.yul\":10867:10879   */\n      revert\n        /* \"#utility.yul\":10891:11008   */\n    tag_159:\n        /* \"#utility.yul\":11000:11001   */\n      0x00\n        /* \"#utility.yul\":10997:10998   */\n      dup1\n        /* \"#utility.yul\":10990:11002   */\n      revert\n        /* \"#utility.yul\":11014:11116   */\n    tag_200:\n        /* \"#utility.yul\":11055:11061   */\n      0x00\n        /* \"#utility.yul\":11106:11108   */\n      0x1f\n        /* \"#utility.yul\":11102:11109   */\n      not\n        /* \"#utility.yul\":11097:11099   */\n      0x1f\n        /* \"#utility.yul\":11090:11095   */\n      dup4\n        /* \"#utility.yul\":11086:11100   */\n      add\n        /* \"#utility.yul\":11082:11110   */\n      and\n        /* \"#utility.yul\":11072:11110   */\n      swap1\n      pop\n        /* \"#utility.yul\":11014:11116   */\n      swap2\n      swap1\n      pop\n      jump\t// out\n        /* \"#utility.yul\":11122:11277   */\n    tag_205:\n        /* \"#utility.yul\":11262:11269   */\n      0x596f75206d000000000000000000000000000000000000000000000000000000\n        /* \"#utility.yul\":11258:11259   */\n      0x00\n        /* \"#utility.yul\":11250:11256   */\n      dup3\n        /* \"#utility.yul\":11246:11260   */\n      add\n        /* \"#utility.yul\":11239:11270   */\n      mstore\n        /* \"#utility.yul\":11122:11277   */\n      pop\n      jump\t// out\n        /* \"#utility.yul\":11283:11405   */\n    tag_137:\n        /* \"#utility.yul\":11356:11380   */\n      tag_281\n        /* \"#utility.yul\":11374:11379   */\n      dup2\n        /* \"#utility.yul\":11356:11380   */\n      tag_242\n      jump\t// in\n    tag_281:\n        /* \"#utility.yul\":11349:11354   */\n      dup2\n        /* \"#utility.yul\":11346:11381   */\n      eq\n        /* \"#utility.yul\":11336:11399   */\n      tag_282\n      jumpi\n        /* \"#utility.yul\":11395:11396   */\n      0x00\n        /* \"#utility.yul\":11392:11393   */\n      dup1\n        /* \"#utility.yul\":11385:11397   */\n      revert\n        /* \"#utility.yul\":11336:11399   */\n    tag_282:\n        /* \"#utility.yul\":11283:11405   */\n      pop\n      jump\t// out\n        /* \"#utility.yul\":11411:11549   */\n    tag_141:\n        /* \"#utility.yul\":11492:11524   */\n      tag_284\n        /* \"#utility.yul\":11518:11523   */\n      dup2\n        /* \"#utility.yul\":11492:11524   */\n      tag_186\n      jump\t// in\n    tag_284:\n        /* \"#utility.yul\":11485:11490   */\n      dup2\n        /* \"#utility.yul\":11482:11525   */\n      eq\n        /* \"#utility.yul\":11472:11543   */\n      tag_285\n      jumpi\n        /* \"#utility.yul\":11539:11540   */\n      0x00\n        /* \"#utility.yul\":11536:11537   */\n      dup1\n        /* \"#utility.yul\":11529:11541   */\n      revert\n        /* \"#utility.yul\":11472:11543   */\n    tag_285:\n        /* \"#utility.yul\":11411:11549   */\n      pop\n      jump\t// out\n        /* \"#utility.yul\":11555:11671   */\n    tag_145:\n        /* \"#utility.yul\":11625:11646   */\n      tag_287\n        /* \"#utility.yul\":11640:11645   */\n      dup2\n        /* \"#utility.yul\":11625:11646   */\n      tag_190\n      jump\t// in\n    tag_287:\n        /* \"#utility.yul\":11618:11623   */\n      dup2\n        /* \"#utility.yul\":11615:11647   */\n      eq\n        /* \"#utility.yul\":11605:11665   */\n      tag_288\n      jumpi\n        /* \"#utility.yul\":11661:11662   */\n      0x00\n        /* \"#utility.yul\":11658:11659   */\n      dup1\n        /* \"#utility.yul\":11651:11663   */\n      revert\n        /* \"#utility.yul\":11605:11665   */\n    tag_288:\n        /* \"#utility.yul\":11555:11671   */\n      pop\n      jump\t// out\n        /* \"#utility.yul\":11677:11799   */\n    tag_155:\n        /* \"#utility.yul\":11750:11774   */\n      tag_290\n        /* \"#utility.yul\":11768:11773   */\n      dup2\n        /* \"#utility.yul\":11750:11774   */\n      tag_209\n      jump\t// in\n    tag_290:\n        /* \"#utility.yul\":11743:11748   */\n      dup2\n        /* \"#utility.yul\":11740:11775   */\n      eq\n        /* \"#utility.yul\":11730:11793   */\n      tag_291\n      jumpi\n        /* \"#utility.yul\":11789:11790   */\n      0x00\n        /* \"#utility.yul\":11786:11787   */\n      dup1\n        /* \"#utility.yul\":11779:11791   */\n      revert\n        /* \"#utility.yul\":11730:11793   */\n    tag_291:\n        /* \"#utility.yul\":11677:11799   */\n      pop\n      jump\t// out\n\n    auxdata: 0xa2646970667358221220b416df5d33c9bebc12afbb1a3e92aa19d9ca7bade464164f82a14703c294111b64736f6c63430008070033\n}\n",
				"bytecode": {
					"linkReferences": {},
					"object": "608060405234801561001057600080fd5b50336000806101000a81548173ffffffffffffffffffffffffffffffffffffffff021916908373ffffffffffffffffffffffffffffffffffffffff160217905550610f73806100606000396000f3fe6080604052600436106100555760003560e01c806324bc2db61461005a5780632980a5d31461009757806331d575c5146100c257806351cff8d9146100eb5780637285fd3a14610107578063f340fa0114610149575b600080fd5b34801561006657600080fd5b50610081600480360381019061007c919061092d565b610165565b60405161008e9190610b71565b60405180910390f35b3480156100a357600080fd5b506100ac6101f2565b6040516100b99190610bac565b60405180910390f35b3480156100ce57600080fd5b506100e960048036038101906100e49190610987565b6101fa565b005b6101056004803603810190610100919061095a565b610329565b005b34801561011357600080fd5b5061012e60048036038101906101299190610a4c565b61049e565b60405161014096959493929190610b02565b60405180910390f35b610163600480360381019061015e919061092d565b610627565b005b60008061017183610633565b90506001818154811061018757610186610e35565b5b9060005260206000209060060201600301544211156101e75760018082815481106101b5576101b4610e35565b5b906000526020600020906006020160050160006101000a81548160ff02191690831515021790555060019150506101ed565b60009150505b919050565b600047905090565b60016040518060c001604052808873ffffffffffffffffffffffffffffffffffffffff168152602001878152602001868152602001858152602001848152602001831515815250908060018154018082558091505060019003906000526020600020906006020160009091909190915060008201518160000160006101000a81548173ffffffffffffffffffffffffffffffffffffffff021916908373ffffffffffffffffffffffffffffffffffffffff16021790555060208201518160010190805190602001906102cd9291906107c6565b5060408201518160020190805190602001906102ea9291906107c6565b50606082015181600301556080820151816004015560a08201518160050160006101000a81548160ff0219169083151502179055505050505050505050565b600061033482610633565b90506001818154811061034a57610349610e35565b5b906000526020600020906006020160000160009054906101000a900473ffffffffffffffffffffffffffffffffffffffff1673ffffffffffffffffffffffffffffffffffffffff163373ffffffffffffffffffffffffffffffffffffffff16146103e9576040517f08c379a00000000000000000000000000000000000000000000000000000000081526004016103e090610b8c565b60405180910390fd5b600181815481106103fd576103fc610e35565b5b906000526020600020906006020160000160009054906101000a900473ffffffffffffffffffffffffffffffffffffffff1673ffffffffffffffffffffffffffffffffffffffff166108fc6001838154811061045c5761045b610e35565b5b9060005260206000209060060201600401549081150290604051600060405180830381858888f19350505050158015610499573d6000803e3d6000fd5b505050565b600181815481106104ae57600080fd5b90600052602060002090600602016000915090508060000160009054906101000a900473ffffffffffffffffffffffffffffffffffffffff16908060010180546104f790610d2b565b80601f016020809104026020016040519081016040528092919081815260200182805461052390610d2b565b80156105705780601f1061054557610100808354040283529160200191610570565b820191906000526020600020905b81548152906001019060200180831161055357829003601f168201915b50505050509080600201805461058590610d2b565b80601f01602080910402602001604051908101604052809291908181526020018280546105b190610d2b565b80156105fe5780601f106105d3576101008083540402835291602001916105fe565b820191906000526020600020905b8154815290600101906020018083116105e157829003601f168201915b5050505050908060030154908060040154908060050160009054906101000a900460ff16905086565b610630816106e9565b50565b600080600090505b6001805490508110156106dd578273ffffffffffffffffffffffffffffffffffffffff166001828154811061067357610672610e35565b5b906000526020600020906006020160000160009054906101000a900473ffffffffffffffffffffffffffffffffffffffff1673ffffffffffffffffffffffffffffffffffffffff1614156106ca57809150506106e4565b80806106d590610d8e565b91505061063b565b506103e790505b919050565b60005b6001805490508110156107c2578173ffffffffffffffffffffffffffffffffffffffff166001828154811061072457610723610e35565b5b906000526020600020906006020160000160009054906101000a900473ffffffffffffffffffffffffffffffffffffffff1673ffffffffffffffffffffffffffffffffffffffff1614156107af57346001828154811061078757610786610e35565b5b906000526020600020906006020160040160008282546107a79190610c39565b925050819055505b80806107ba90610d8e565b9150506106ec565b5050565b8280546107d290610d2b565b90600052602060002090601f0160209004810192826107f4576000855561083b565b82601f1061080d57805160ff191683800117855561083b565b8280016001018555821561083b579182015b8281111561083a57825182559160200191906001019061081f565b5b509050610848919061084c565b5090565b5b8082111561086557600081600090555060010161084d565b5090565b600061087c61087784610bec565b610bc7565b90508281526020810184848401111561089857610897610e98565b5b6108a3848285610ce9565b509392505050565b6000813590506108ba81610ee1565b92915050565b6000813590506108cf81610ef8565b92915050565b6000813590506108e481610f0f565b92915050565b600082601f8301126108ff576108fe610e93565b5b813561090f848260208601610869565b91505092915050565b60008135905061092781610f26565b92915050565b60006020828403121561094357610942610ea2565b5b6000610951848285016108ab565b91505092915050565b6000602082840312156109705761096f610ea2565b5b600061097e848285016108c0565b91505092915050565b60008060008060008060c087890312156109a4576109a3610ea2565b5b60006109b289828a016108c0565b965050602087013567ffffffffffffffff8111156109d3576109d2610e9d565b5b6109df89828a016108ea565b955050604087013567ffffffffffffffff811115610a00576109ff610e9d565b5b610a0c89828a016108ea565b9450506060610a1d89828a01610918565b9350506080610a2e89828a01610918565b92505060a0610a3f89828a016108d5565b9150509295509295509295565b600060208284031215610a6257610a61610ea2565b5b6000610a7084828501610918565b91505092915050565b610a8281610ca1565b82525050565b610a9181610cb3565b82525050565b6000610aa282610c1d565b610aac8185610c28565b9350610abc818560208601610cf8565b610ac581610ea7565b840191505092915050565b6000610add600583610c28565b9150610ae882610eb8565b602082019050919050565b610afc81610cdf565b82525050565b600060c082019050610b176000830189610a79565b8181036020830152610b298188610a97565b90508181036040830152610b3d8187610a97565b9050610b4c6060830186610af3565b610b596080830185610af3565b610b6660a0830184610a88565b979650505050505050565b6000602082019050610b866000830184610a88565b92915050565b60006020820190508181036000830152610ba581610ad0565b9050919050565b6000602082019050610bc16000830184610af3565b92915050565b6000610bd1610be2565b9050610bdd8282610d5d565b919050565b6000604051905090565b600067ffffffffffffffff821115610c0757610c06610e64565b5b610c1082610ea7565b9050602081019050919050565b600081519050919050565b600082825260208201905092915050565b6000610c4482610cdf565b9150610c4f83610cdf565b9250827fffffffffffffffffffffffffffffffffffffffffffffffffffffffffffffffff03821115610c8457610c83610dd7565b5b828201905092915050565b6000610c9a82610cbf565b9050919050565b6000610cac82610cbf565b9050919050565b60008115159050919050565b600073ffffffffffffffffffffffffffffffffffffffff82169050919050565b6000819050919050565b82818337600083830152505050565b60005b83811015610d16578082015181840152602081019050610cfb565b83811115610d25576000848401525b50505050565b60006002820490506001821680610d4357607f821691505b60208210811415610d5757610d56610e06565b5b50919050565b610d6682610ea7565b810181811067ffffffffffffffff82111715610d8557610d84610e64565b5b80604052505050565b6000610d9982610cdf565b91507fffffffffffffffffffffffffffffffffffffffffffffffffffffffffffffffff821415610dcc57610dcb610dd7565b5b600182019050919050565b7f4e487b7100000000000000000000000000000000000000000000000000000000600052601160045260246000fd5b7f4e487b7100000000000000000000000000000000000000000000000000000000600052602260045260246000fd5b7f4e487b7100000000000000000000000000000000000000000000000000000000600052603260045260246000fd5b7f4e487b7100000000000000000000000000000000000000000000000000000000600052604160045260246000fd5b600080fd5b600080fd5b600080fd5b600080fd5b6000601f19601f8301169050919050565b7f596f75206d000000000000000000000000000000000000000000000000000000600082015250565b610eea81610c8f565b8114610ef557600080fd5b50565b610f0181610ca1565b8114610f0c57600080fd5b50565b610f1881610cb3565b8114610f2357600080fd5b50565b610f2f81610cdf565b8114610f3a57600080fd5b5056fea2646970667358221220b416df5d33c9bebc12afbb1a3e92aa19d9ca7bade464164f82a14703c294111b64736f6c63430008070033",
					"opcodes": "PUSH1 0x80 PUSH1 0x40 MSTORE CALLVALUE DUP1 ISZERO PUSH2 0x10 JUMPI PUSH1 0x0 DUP1 REVERT JUMPDEST POP CALLER PUSH1 0x0 DUP1 PUSH2 0x100 EXP DUP2 SLOAD DUP2 PUSH20 0xFFFFFFFFFFFFFFFFFFFFFFFFFFFFFFFFFFFFFFFF MUL NOT AND SWAP1 DUP4 PUSH20 0xFFFFFFFFFFFFFFFFFFFFFFFFFFFFFFFFFFFFFFFF AND MUL OR SWAP1 SSTORE POP PUSH2 0xF73 DUP1 PUSH2 0x60 PUSH1 0x0 CODECOPY PUSH1 0x0 RETURN INVALID PUSH1 0x80 PUSH1 0x40 MSTORE PUSH1 0x4 CALLDATASIZE LT PUSH2 0x55 JUMPI PUSH1 0x0 CALLDATALOAD PUSH1 0xE0 SHR DUP1 PUSH4 0x24BC2DB6 EQ PUSH2 0x5A JUMPI DUP1 PUSH4 0x2980A5D3 EQ PUSH2 0x97 JUMPI DUP1 PUSH4 0x31D575C5 EQ PUSH2 0xC2 JUMPI DUP1 PUSH4 0x51CFF8D9 EQ PUSH2 0xEB JUMPI DUP1 PUSH4 0x7285FD3A EQ PUSH2 0x107 JUMPI DUP1 PUSH4 0xF340FA01 EQ PUSH2 0x149 JUMPI JUMPDEST PUSH1 0x0 DUP1 REVERT JUMPDEST CALLVALUE DUP1 ISZERO PUSH2 0x66 JUMPI PUSH1 0x0 DUP1 REVERT JUMPDEST POP PUSH2 0x81 PUSH1 0x4 DUP1 CALLDATASIZE SUB DUP2 ADD SWAP1 PUSH2 0x7C SWAP2 SWAP1 PUSH2 0x92D JUMP JUMPDEST PUSH2 0x165 JUMP JUMPDEST PUSH1 0x40 MLOAD PUSH2 0x8E SWAP2 SWAP1 PUSH2 0xB71 JUMP JUMPDEST PUSH1 0x40 MLOAD DUP1 SWAP2 SUB SWAP1 RETURN JUMPDEST CALLVALUE DUP1 ISZERO PUSH2 0xA3 JUMPI PUSH1 0x0 DUP1 REVERT JUMPDEST POP PUSH2 0xAC PUSH2 0x1F2 JUMP JUMPDEST PUSH1 0x40 MLOAD PUSH2 0xB9 SWAP2 SWAP1 PUSH2 0xBAC JUMP JUMPDEST PUSH1 0x40 MLOAD DUP1 SWAP2 SUB SWAP1 RETURN JUMPDEST CALLVALUE DUP1 ISZERO PUSH2 0xCE JUMPI PUSH1 0x0 DUP1 REVERT JUMPDEST POP PUSH2 0xE9 PUSH1 0x4 DUP1 CALLDATASIZE SUB DUP2 ADD SWAP1 PUSH2 0xE4 SWAP2 SWAP1 PUSH2 0x987 JUMP JUMPDEST PUSH2 0x1FA JUMP JUMPDEST STOP JUMPDEST PUSH2 0x105 PUSH1 0x4 DUP1 CALLDATASIZE SUB DUP2 ADD SWAP1 PUSH2 0x100 SWAP2 SWAP1 PUSH2 0x95A JUMP JUMPDEST PUSH2 0x329 JUMP JUMPDEST STOP JUMPDEST CALLVALUE DUP1 ISZERO PUSH2 0x113 JUMPI PUSH1 0x0 DUP1 REVERT JUMPDEST POP PUSH2 0x12E PUSH1 0x4 DUP1 CALLDATASIZE SUB DUP2 ADD SWAP1 PUSH2 0x129 SWAP2 SWAP1 PUSH2 0xA4C JUMP JUMPDEST PUSH2 0x49E JUMP JUMPDEST PUSH1 0x40 MLOAD PUSH2 0x140 SWAP7 SWAP6 SWAP5 SWAP4 SWAP3 SWAP2 SWAP1 PUSH2 0xB02 JUMP JUMPDEST PUSH1 0x40 MLOAD DUP1 SWAP2 SUB SWAP1 RETURN JUMPDEST PUSH2 0x163 PUSH1 0x4 DUP1 CALLDATASIZE SUB DUP2 ADD SWAP1 PUSH2 0x15E SWAP2 SWAP1 PUSH2 0x92D JUMP JUMPDEST PUSH2 0x627 JUMP JUMPDEST STOP JUMPDEST PUSH1 0x0 DUP1 PUSH2 0x171 DUP4 PUSH2 0x633 JUMP JUMPDEST SWAP1 POP PUSH1 0x1 DUP2 DUP2 SLOAD DUP2 LT PUSH2 0x187 JUMPI PUSH2 0x186 PUSH2 0xE35 JUMP JUMPDEST JUMPDEST SWAP1 PUSH1 0x0 MSTORE PUSH1 0x20 PUSH1 0x0 KECCAK256 SWAP1 PUSH1 0x6 MUL ADD PUSH1 0x3 ADD SLOAD TIMESTAMP GT ISZERO PUSH2 0x1E7 JUMPI PUSH1 0x1 DUP1 DUP3 DUP2 SLOAD DUP2 LT PUSH2 0x1B5 JUMPI PUSH2 0x1B4 PUSH2 0xE35 JUMP JUMPDEST JUMPDEST SWAP1 PUSH1 0x0 MSTORE PUSH1 0x20 PUSH1 0x0 KECCAK256 SWAP1 PUSH1 0x6 MUL ADD PUSH1 0x5 ADD PUSH1 0x0 PUSH2 0x100 EXP DUP2 SLOAD DUP2 PUSH1 0xFF MUL NOT AND SWAP1 DUP4 ISZERO ISZERO MUL OR SWAP1 SSTORE POP PUSH1 0x1 SWAP2 POP POP PUSH2 0x1ED JUMP JUMPDEST PUSH1 0x0 SWAP2 POP POP JUMPDEST SWAP2 SWAP1 POP JUMP JUMPDEST PUSH1 0x0 SELFBALANCE SWAP1 POP SWAP1 JUMP JUMPDEST PUSH1 0x1 PUSH1 0x40 MLOAD DUP1 PUSH1 0xC0 ADD PUSH1 0x40 MSTORE DUP1 DUP9 PUSH20 0xFFFFFFFFFFFFFFFFFFFFFFFFFFFFFFFFFFFFFFFF AND DUP2 MSTORE PUSH1 0x20 ADD DUP8 DUP2 MSTORE PUSH1 0x20 ADD DUP7 DUP2 MSTORE PUSH1 0x20 ADD DUP6 DUP2 MSTORE PUSH1 0x20 ADD DUP5 DUP2 MSTORE PUSH1 0x20 ADD DUP4 ISZERO ISZERO DUP2 MSTORE POP SWAP1 DUP1 PUSH1 0x1 DUP2 SLOAD ADD DUP1 DUP3 SSTORE DUP1 SWAP2 POP POP PUSH1 0x1 SWAP1 SUB SWAP1 PUSH1 0x0 MSTORE PUSH1 0x20 PUSH1 0x0 KECCAK256 SWAP1 PUSH1 0x6 MUL ADD PUSH1 0x0 SWAP1 SWAP2 SWAP1 SWAP2 SWAP1 SWAP2 POP PUSH1 0x0 DUP3 ADD MLOAD DUP2 PUSH1 0x0 ADD PUSH1 0x0 PUSH2 0x100 EXP DUP2 SLOAD DUP2 PUSH20 0xFFFFFFFFFFFFFFFFFFFFFFFFFFFFFFFFFFFFFFFF MUL NOT AND SWAP1 DUP4 PUSH20 0xFFFFFFFFFFFFFFFFFFFFFFFFFFFFFFFFFFFFFFFF AND MUL OR SWAP1 SSTORE POP PUSH1 0x20 DUP3 ADD MLOAD DUP2 PUSH1 0x1 ADD SWAP1 DUP1 MLOAD SWAP1 PUSH1 0x20 ADD SWAP1 PUSH2 0x2CD SWAP3 SWAP2 SWAP1 PUSH2 0x7C6 JUMP JUMPDEST POP PUSH1 0x40 DUP3 ADD MLOAD DUP2 PUSH1 0x2 ADD SWAP1 DUP1 MLOAD SWAP1 PUSH1 0x20 ADD SWAP1 PUSH2 0x2EA SWAP3 SWAP2 SWAP1 PUSH2 0x7C6 JUMP JUMPDEST POP PUSH1 0x60 DUP3 ADD MLOAD DUP2 PUSH1 0x3 ADD SSTORE PUSH1 0x80 DUP3 ADD MLOAD DUP2 PUSH1 0x4 ADD SSTORE PUSH1 0xA0 DUP3 ADD MLOAD DUP2 PUSH1 0x5 ADD PUSH1 0x0 PUSH2 0x100 EXP DUP2 SLOAD DUP2 PUSH1 0xFF MUL NOT AND SWAP1 DUP4 ISZERO ISZERO MUL OR SWAP1 SSTORE POP POP POP POP POP POP POP POP POP JUMP JUMPDEST PUSH1 0x0 PUSH2 0x334 DUP3 PUSH2 0x633 JUMP JUMPDEST SWAP1 POP PUSH1 0x1 DUP2 DUP2 SLOAD DUP2 LT PUSH2 0x34A JUMPI PUSH2 0x349 PUSH2 0xE35 JUMP JUMPDEST JUMPDEST SWAP1 PUSH1 0x0 MSTORE PUSH1 0x20 PUSH1 0x0 KECCAK256 SWAP1 PUSH1 0x6 MUL ADD PUSH1 0x0 ADD PUSH1 0x0 SWAP1 SLOAD SWAP1 PUSH2 0x100 EXP SWAP1 DIV PUSH20 0xFFFFFFFFFFFFFFFFFFFFFFFFFFFFFFFFFFFFFFFF AND PUSH20 0xFFFFFFFFFFFFFFFFFFFFFFFFFFFFFFFFFFFFFFFF AND CALLER PUSH20 0xFFFFFFFFFFFFFFFFFFFFFFFFFFFFFFFFFFFFFFFF AND EQ PUSH2 0x3E9 JUMPI PUSH1 0x40 MLOAD PUSH32 0x8C379A000000000000000000000000000000000000000000000000000000000 DUP2 MSTORE PUSH1 0x4 ADD PUSH2 0x3E0 SWAP1 PUSH2 0xB8C JUMP JUMPDEST PUSH1 0x40 MLOAD DUP1 SWAP2 SUB SWAP1 REVERT JUMPDEST PUSH1 0x1 DUP2 DUP2 SLOAD DUP2 LT PUSH2 0x3FD JUMPI PUSH2 0x3FC PUSH2 0xE35 JUMP JUMPDEST JUMPDEST SWAP1 PUSH1 0x0 MSTORE PUSH1 0x20 PUSH1 0x0 KECCAK256 SWAP1 PUSH1 0x6 MUL ADD PUSH1 0x0 ADD PUSH1 0x0 SWAP1 SLOAD SWAP1 PUSH2 0x100 EXP SWAP1 DIV PUSH20 0xFFFFFFFFFFFFFFFFFFFFFFFFFFFFFFFFFFFFFFFF AND PUSH20 0xFFFFFFFFFFFFFFFFFFFFFFFFFFFFFFFFFFFFFFFF AND PUSH2 0x8FC PUSH1 0x1 DUP4 DUP2 SLOAD DUP2 LT PUSH2 0x45C JUMPI PUSH2 0x45B PUSH2 0xE35 JUMP JUMPDEST JUMPDEST SWAP1 PUSH1 0x0 MSTORE PUSH1 0x20 PUSH1 0x0 KECCAK256 SWAP1 PUSH1 0x6 MUL ADD PUSH1 0x4 ADD SLOAD SWAP1 DUP2 ISZERO MUL SWAP1 PUSH1 0x40 MLOAD PUSH1 0x0 PUSH1 0x40 MLOAD DUP1 DUP4 SUB DUP2 DUP6 DUP9 DUP9 CALL SWAP4 POP POP POP POP ISZERO DUP1 ISZERO PUSH2 0x499 JUMPI RETURNDATASIZE PUSH1 0x0 DUP1 RETURNDATACOPY RETURNDATASIZE PUSH1 0x0 REVERT JUMPDEST POP POP POP JUMP JUMPDEST PUSH1 0x1 DUP2 DUP2 SLOAD DUP2 LT PUSH2 0x4AE JUMPI PUSH1 0x0 DUP1 REVERT JUMPDEST SWAP1 PUSH1 0x0 MSTORE PUSH1 0x20 PUSH1 0x0 KECCAK256 SWAP1 PUSH1 0x6 MUL ADD PUSH1 0x0 SWAP2 POP SWAP1 POP DUP1 PUSH1 0x0 ADD PUSH1 0x0 SWAP1 SLOAD SWAP1 PUSH2 0x100 EXP SWAP1 DIV PUSH20 0xFFFFFFFFFFFFFFFFFFFFFFFFFFFFFFFFFFFFFFFF AND SWAP1 DUP1 PUSH1 0x1 ADD DUP1 SLOAD PUSH2 0x4F7 SWAP1 PUSH2 0xD2B JUMP JUMPDEST DUP1 PUSH1 0x1F ADD PUSH1 0x20 DUP1 SWAP2 DIV MUL PUSH1 0x20 ADD PUSH1 0x40 MLOAD SWAP1 DUP2 ADD PUSH1 0x40 MSTORE DUP1 SWAP3 SWAP2 SWAP1 DUP2 DUP2 MSTORE PUSH1 0x20 ADD DUP3 DUP1 SLOAD PUSH2 0x523 SWAP1 PUSH2 0xD2B JUMP JUMPDEST DUP1 ISZERO PUSH2 0x570 JUMPI DUP1 PUSH1 0x1F LT PUSH2 0x545 JUMPI PUSH2 0x100 DUP1 DUP4 SLOAD DIV MUL DUP4 MSTORE SWAP2 PUSH1 0x20 ADD SWAP2 PUSH2 0x570 JUMP JUMPDEST DUP3 ADD SWAP2 SWAP1 PUSH1 0x0 MSTORE PUSH1 0x20 PUSH1 0x0 KECCAK256 SWAP1 JUMPDEST DUP2 SLOAD DUP2 MSTORE SWAP1 PUSH1 0x1 ADD SWAP1 PUSH1 0x20 ADD DUP1 DUP4 GT PUSH2 0x553 JUMPI DUP3 SWAP1 SUB PUSH1 0x1F AND DUP3 ADD SWAP2 JUMPDEST POP POP POP POP POP SWAP1 DUP1 PUSH1 0x2 ADD DUP1 SLOAD PUSH2 0x585 SWAP1 PUSH2 0xD2B JUMP JUMPDEST DUP1 PUSH1 0x1F ADD PUSH1 0x20 DUP1 SWAP2 DIV MUL PUSH1 0x20 ADD PUSH1 0x40 MLOAD SWAP1 DUP2 ADD PUSH1 0x40 MSTORE DUP1 SWAP3 SWAP2 SWAP1 DUP2 DUP2 MSTORE PUSH1 0x20 ADD DUP3 DUP1 SLOAD PUSH2 0x5B1 SWAP1 PUSH2 0xD2B JUMP JUMPDEST DUP1 ISZERO PUSH2 0x5FE JUMPI DUP1 PUSH1 0x1F LT PUSH2 0x5D3 JUMPI PUSH2 0x100 DUP1 DUP4 SLOAD DIV MUL DUP4 MSTORE SWAP2 PUSH1 0x20 ADD SWAP2 PUSH2 0x5FE JUMP JUMPDEST DUP3 ADD SWAP2 SWAP1 PUSH1 0x0 MSTORE PUSH1 0x20 PUSH1 0x0 KECCAK256 SWAP1 JUMPDEST DUP2 SLOAD DUP2 MSTORE SWAP1 PUSH1 0x1 ADD SWAP1 PUSH1 0x20 ADD DUP1 DUP4 GT PUSH2 0x5E1 JUMPI DUP3 SWAP1 SUB PUSH1 0x1F AND DUP3 ADD SWAP2 JUMPDEST POP POP POP POP POP SWAP1 DUP1 PUSH1 0x3 ADD SLOAD SWAP1 DUP1 PUSH1 0x4 ADD SLOAD SWAP1 DUP1 PUSH1 0x5 ADD PUSH1 0x0 SWAP1 SLOAD SWAP1 PUSH2 0x100 EXP SWAP1 DIV PUSH1 0xFF AND SWAP1 POP DUP7 JUMP JUMPDEST PUSH2 0x630 DUP2 PUSH2 0x6E9 JUMP JUMPDEST POP JUMP JUMPDEST PUSH1 0x0 DUP1 PUSH1 0x0 SWAP1 POP JUMPDEST PUSH1 0x1 DUP1 SLOAD SWAP1 POP DUP2 LT ISZERO PUSH2 0x6DD JUMPI DUP3 PUSH20 0xFFFFFFFFFFFFFFFFFFFFFFFFFFFFFFFFFFFFFFFF AND PUSH1 0x1 DUP3 DUP2 SLOAD DUP2 LT PUSH2 0x673 JUMPI PUSH2 0x672 PUSH2 0xE35 JUMP JUMPDEST JUMPDEST SWAP1 PUSH1 0x0 MSTORE PUSH1 0x20 PUSH1 0x0 KECCAK256 SWAP1 PUSH1 0x6 MUL ADD PUSH1 0x0 ADD PUSH1 0x0 SWAP1 SLOAD SWAP1 PUSH2 0x100 EXP SWAP1 DIV PUSH20 0xFFFFFFFFFFFFFFFFFFFFFFFFFFFFFFFFFFFFFFFF AND PUSH20 0xFFFFFFFFFFFFFFFFFFFFFFFFFFFFFFFFFFFFFFFF AND EQ ISZERO PUSH2 0x6CA JUMPI DUP1 SWAP2 POP POP PUSH2 0x6E4 JUMP JUMPDEST DUP1 DUP1 PUSH2 0x6D5 SWAP1 PUSH2 0xD8E JUMP JUMPDEST SWAP2 POP POP PUSH2 0x63B JUMP JUMPDEST POP PUSH2 0x3E7 SWAP1 POP JUMPDEST SWAP2 SWAP1 POP JUMP JUMPDEST PUSH1 0x0 JUMPDEST PUSH1 0x1 DUP1 SLOAD SWAP1 POP DUP2 LT ISZERO PUSH2 0x7C2 JUMPI DUP2 PUSH20 0xFFFFFFFFFFFFFFFFFFFFFFFFFFFFFFFFFFFFFFFF AND PUSH1 0x1 DUP3 DUP2 SLOAD DUP2 LT PUSH2 0x724 JUMPI PUSH2 0x723 PUSH2 0xE35 JUMP JUMPDEST JUMPDEST SWAP1 PUSH1 0x0 MSTORE PUSH1 0x20 PUSH1 0x0 KECCAK256 SWAP1 PUSH1 0x6 MUL ADD PUSH1 0x0 ADD PUSH1 0x0 SWAP1 SLOAD SWAP1 PUSH2 0x100 EXP SWAP1 DIV PUSH20 0xFFFFFFFFFFFFFFFFFFFFFFFFFFFFFFFFFFFFFFFF AND PUSH20 0xFFFFFFFFFFFFFFFFFFFFFFFFFFFFFFFFFFFFFFFF AND EQ ISZERO PUSH2 0x7AF JUMPI CALLVALUE PUSH1 0x1 DUP3 DUP2 SLOAD DUP2 LT PUSH2 0x787 JUMPI PUSH2 0x786 PUSH2 0xE35 JUMP JUMPDEST JUMPDEST SWAP1 PUSH1 0x0 MSTORE PUSH1 0x20 PUSH1 0x0 KECCAK256 SWAP1 PUSH1 0x6 MUL ADD PUSH1 0x4 ADD PUSH1 0x0 DUP3 DUP3 SLOAD PUSH2 0x7A7 SWAP2 SWAP1 PUSH2 0xC39 JUMP JUMPDEST SWAP3 POP POP DUP2 SWAP1 SSTORE POP JUMPDEST DUP1 DUP1 PUSH2 0x7BA SWAP1 PUSH2 0xD8E JUMP JUMPDEST SWAP2 POP POP PUSH2 0x6EC JUMP JUMPDEST POP POP JUMP JUMPDEST DUP3 DUP1 SLOAD PUSH2 0x7D2 SWAP1 PUSH2 0xD2B JUMP JUMPDEST SWAP1 PUSH1 0x0 MSTORE PUSH1 0x20 PUSH1 0x0 KECCAK256 SWAP1 PUSH1 0x1F ADD PUSH1 0x20 SWAP1 DIV DUP2 ADD SWAP3 DUP3 PUSH2 0x7F4 JUMPI PUSH1 0x0 DUP6 SSTORE PUSH2 0x83B JUMP JUMPDEST DUP3 PUSH1 0x1F LT PUSH2 0x80D JUMPI DUP1 MLOAD PUSH1 0xFF NOT AND DUP4 DUP1 ADD OR DUP6 SSTORE PUSH2 0x83B JUMP JUMPDEST DUP3 DUP1 ADD PUSH1 0x1 ADD DUP6 SSTORE DUP3 ISZERO PUSH2 0x83B JUMPI SWAP2 DUP3 ADD JUMPDEST DUP3 DUP2 GT ISZERO PUSH2 0x83A JUMPI DUP3 MLOAD DUP3 SSTORE SWAP2 PUSH1 0x20 ADD SWAP2 SWAP1 PUSH1 0x1 ADD SWAP1 PUSH2 0x81F JUMP JUMPDEST JUMPDEST POP SWAP1 POP PUSH2 0x848 SWAP2 SWAP1 PUSH2 0x84C JUMP JUMPDEST POP SWAP1 JUMP JUMPDEST JUMPDEST DUP1 DUP3 GT ISZERO PUSH2 0x865 JUMPI PUSH1 0x0 DUP2 PUSH1 0x0 SWAP1 SSTORE POP PUSH1 0x1 ADD PUSH2 0x84D JUMP JUMPDEST POP SWAP1 JUMP JUMPDEST PUSH1 0x0 PUSH2 0x87C PUSH2 0x877 DUP5 PUSH2 0xBEC JUMP JUMPDEST PUSH2 0xBC7 JUMP JUMPDEST SWAP1 POP DUP3 DUP2 MSTORE PUSH1 0x20 DUP2 ADD DUP5 DUP5 DUP5 ADD GT ISZERO PUSH2 0x898 JUMPI PUSH2 0x897 PUSH2 0xE98 JUMP JUMPDEST JUMPDEST PUSH2 0x8A3 DUP5 DUP3 DUP6 PUSH2 0xCE9 JUMP JUMPDEST POP SWAP4 SWAP3 POP POP POP JUMP JUMPDEST PUSH1 0x0 DUP2 CALLDATALOAD SWAP1 POP PUSH2 0x8BA DUP2 PUSH2 0xEE1 JUMP JUMPDEST SWAP3 SWAP2 POP POP JUMP JUMPDEST PUSH1 0x0 DUP2 CALLDATALOAD SWAP1 POP PUSH2 0x8CF DUP2 PUSH2 0xEF8 JUMP JUMPDEST SWAP3 SWAP2 POP POP JUMP JUMPDEST PUSH1 0x0 DUP2 CALLDATALOAD SWAP1 POP PUSH2 0x8E4 DUP2 PUSH2 0xF0F JUMP JUMPDEST SWAP3 SWAP2 POP POP JUMP JUMPDEST PUSH1 0x0 DUP3 PUSH1 0x1F DUP4 ADD SLT PUSH2 0x8FF JUMPI PUSH2 0x8FE PUSH2 0xE93 JUMP JUMPDEST JUMPDEST DUP2 CALLDATALOAD PUSH2 0x90F DUP5 DUP3 PUSH1 0x20 DUP7 ADD PUSH2 0x869 JUMP JUMPDEST SWAP2 POP POP SWAP3 SWAP2 POP POP JUMP JUMPDEST PUSH1 0x0 DUP2 CALLDATALOAD SWAP1 POP PUSH2 0x927 DUP2 PUSH2 0xF26 JUMP JUMPDEST SWAP3 SWAP2 POP POP JUMP JUMPDEST PUSH1 0x0 PUSH1 0x20 DUP3 DUP5 SUB SLT ISZERO PUSH2 0x943 JUMPI PUSH2 0x942 PUSH2 0xEA2 JUMP JUMPDEST JUMPDEST PUSH1 0x0 PUSH2 0x951 DUP5 DUP3 DUP6 ADD PUSH2 0x8AB JUMP JUMPDEST SWAP2 POP POP SWAP3 SWAP2 POP POP JUMP JUMPDEST PUSH1 0x0 PUSH1 0x20 DUP3 DUP5 SUB SLT ISZERO PUSH2 0x970 JUMPI PUSH2 0x96F PUSH2 0xEA2 JUMP JUMPDEST JUMPDEST PUSH1 0x0 PUSH2 0x97E DUP5 DUP3 DUP6 ADD PUSH2 0x8C0 JUMP JUMPDEST SWAP2 POP POP SWAP3 SWAP2 POP POP JUMP JUMPDEST PUSH1 0x0 DUP1 PUSH1 0x0 DUP1 PUSH1 0x0 DUP1 PUSH1 0xC0 DUP8 DUP10 SUB SLT ISZERO PUSH2 0x9A4 JUMPI PUSH2 0x9A3 PUSH2 0xEA2 JUMP JUMPDEST JUMPDEST PUSH1 0x0 PUSH2 0x9B2 DUP10 DUP3 DUP11 ADD PUSH2 0x8C0 JUMP JUMPDEST SWAP7 POP POP PUSH1 0x20 DUP8 ADD CALLDATALOAD PUSH8 0xFFFFFFFFFFFFFFFF DUP2 GT ISZERO PUSH2 0x9D3 JUMPI PUSH2 0x9D2 PUSH2 0xE9D JUMP JUMPDEST JUMPDEST PUSH2 0x9DF DUP10 DUP3 DUP11 ADD PUSH2 0x8EA JUMP JUMPDEST SWAP6 POP POP PUSH1 0x40 DUP8 ADD CALLDATALOAD PUSH8 0xFFFFFFFFFFFFFFFF DUP2 GT ISZERO PUSH2 0xA00 JUMPI PUSH2 0x9FF PUSH2 0xE9D JUMP JUMPDEST JUMPDEST PUSH2 0xA0C DUP10 DUP3 DUP11 ADD PUSH2 0x8EA JUMP JUMPDEST SWAP5 POP POP PUSH1 0x60 PUSH2 0xA1D DUP10 DUP3 DUP11 ADD PUSH2 0x918 JUMP JUMPDEST SWAP4 POP POP PUSH1 0x80 PUSH2 0xA2E DUP10 DUP3 DUP11 ADD PUSH2 0x918 JUMP JUMPDEST SWAP3 POP POP PUSH1 0xA0 PUSH2 0xA3F DUP10 DUP3 DUP11 ADD PUSH2 0x8D5 JUMP JUMPDEST SWAP2 POP POP SWAP3 SWAP6 POP SWAP3 SWAP6 POP SWAP3 SWAP6 JUMP JUMPDEST PUSH1 0x0 PUSH1 0x20 DUP3 DUP5 SUB SLT ISZERO PUSH2 0xA62 JUMPI PUSH2 0xA61 PUSH2 0xEA2 JUMP JUMPDEST JUMPDEST PUSH1 0x0 PUSH2 0xA70 DUP5 DUP3 DUP6 ADD PUSH2 0x918 JUMP JUMPDEST SWAP2 POP POP SWAP3 SWAP2 POP POP JUMP JUMPDEST PUSH2 0xA82 DUP2 PUSH2 0xCA1 JUMP JUMPDEST DUP3 MSTORE POP POP JUMP JUMPDEST PUSH2 0xA91 DUP2 PUSH2 0xCB3 JUMP JUMPDEST DUP3 MSTORE POP POP JUMP JUMPDEST PUSH1 0x0 PUSH2 0xAA2 DUP3 PUSH2 0xC1D JUMP JUMPDEST PUSH2 0xAAC DUP2 DUP6 PUSH2 0xC28 JUMP JUMPDEST SWAP4 POP PUSH2 0xABC DUP2 DUP6 PUSH1 0x20 DUP7 ADD PUSH2 0xCF8 JUMP JUMPDEST PUSH2 0xAC5 DUP2 PUSH2 0xEA7 JUMP JUMPDEST DUP5 ADD SWAP2 POP POP SWAP3 SWAP2 POP POP JUMP JUMPDEST PUSH1 0x0 PUSH2 0xADD PUSH1 0x5 DUP4 PUSH2 0xC28 JUMP JUMPDEST SWAP2 POP PUSH2 0xAE8 DUP3 PUSH2 0xEB8 JUMP JUMPDEST PUSH1 0x20 DUP3 ADD SWAP1 POP SWAP2 SWAP1 POP JUMP JUMPDEST PUSH2 0xAFC DUP2 PUSH2 0xCDF JUMP JUMPDEST DUP3 MSTORE POP POP JUMP JUMPDEST PUSH1 0x0 PUSH1 0xC0 DUP3 ADD SWAP1 POP PUSH2 0xB17 PUSH1 0x0 DUP4 ADD DUP10 PUSH2 0xA79 JUMP JUMPDEST DUP2 DUP2 SUB PUSH1 0x20 DUP4 ADD MSTORE PUSH2 0xB29 DUP2 DUP9 PUSH2 0xA97 JUMP JUMPDEST SWAP1 POP DUP2 DUP2 SUB PUSH1 0x40 DUP4 ADD MSTORE PUSH2 0xB3D DUP2 DUP8 PUSH2 0xA97 JUMP JUMPDEST SWAP1 POP PUSH2 0xB4C PUSH1 0x60 DUP4 ADD DUP7 PUSH2 0xAF3 JUMP JUMPDEST PUSH2 0xB59 PUSH1 0x80 DUP4 ADD DUP6 PUSH2 0xAF3 JUMP JUMPDEST PUSH2 0xB66 PUSH1 0xA0 DUP4 ADD DUP5 PUSH2 0xA88 JUMP JUMPDEST SWAP8 SWAP7 POP POP POP POP POP POP POP JUMP JUMPDEST PUSH1 0x0 PUSH1 0x20 DUP3 ADD SWAP1 POP PUSH2 0xB86 PUSH1 0x0 DUP4 ADD DUP5 PUSH2 0xA88 JUMP JUMPDEST SWAP3 SWAP2 POP POP JUMP JUMPDEST PUSH1 0x0 PUSH1 0x20 DUP3 ADD SWAP1 POP DUP2 DUP2 SUB PUSH1 0x0 DUP4 ADD MSTORE PUSH2 0xBA5 DUP2 PUSH2 0xAD0 JUMP JUMPDEST SWAP1 POP SWAP2 SWAP1 POP JUMP JUMPDEST PUSH1 0x0 PUSH1 0x20 DUP3 ADD SWAP1 POP PUSH2 0xBC1 PUSH1 0x0 DUP4 ADD DUP5 PUSH2 0xAF3 JUMP JUMPDEST SWAP3 SWAP2 POP POP JUMP JUMPDEST PUSH1 0x0 PUSH2 0xBD1 PUSH2 0xBE2 JUMP JUMPDEST SWAP1 POP PUSH2 0xBDD DUP3 DUP3 PUSH2 0xD5D JUMP JUMPDEST SWAP2 SWAP1 POP JUMP JUMPDEST PUSH1 0x0 PUSH1 0x40 MLOAD SWAP1 POP SWAP1 JUMP JUMPDEST PUSH1 0x0 PUSH8 0xFFFFFFFFFFFFFFFF DUP3 GT ISZERO PUSH2 0xC07 JUMPI PUSH2 0xC06 PUSH2 0xE64 JUMP JUMPDEST JUMPDEST PUSH2 0xC10 DUP3 PUSH2 0xEA7 JUMP JUMPDEST SWAP1 POP PUSH1 0x20 DUP2 ADD SWAP1 POP SWAP2 SWAP1 POP JUMP JUMPDEST PUSH1 0x0 DUP2 MLOAD SWAP1 POP SWAP2 SWAP1 POP JUMP JUMPDEST PUSH1 0x0 DUP3 DUP3 MSTORE PUSH1 0x20 DUP3 ADD SWAP1 POP SWAP3 SWAP2 POP POP JUMP JUMPDEST PUSH1 0x0 PUSH2 0xC44 DUP3 PUSH2 0xCDF JUMP JUMPDEST SWAP2 POP PUSH2 0xC4F DUP4 PUSH2 0xCDF JUMP JUMPDEST SWAP3 POP DUP3 PUSH32 0xFFFFFFFFFFFFFFFFFFFFFFFFFFFFFFFFFFFFFFFFFFFFFFFFFFFFFFFFFFFFFFFF SUB DUP3 GT ISZERO PUSH2 0xC84 JUMPI PUSH2 0xC83 PUSH2 0xDD7 JUMP JUMPDEST JUMPDEST DUP3 DUP3 ADD SWAP1 POP SWAP3 SWAP2 POP POP JUMP JUMPDEST PUSH1 0x0 PUSH2 0xC9A DUP3 PUSH2 0xCBF JUMP JUMPDEST SWAP1 POP SWAP2 SWAP1 POP JUMP JUMPDEST PUSH1 0x0 PUSH2 0xCAC DUP3 PUSH2 0xCBF JUMP JUMPDEST SWAP1 POP SWAP2 SWAP1 POP JUMP JUMPDEST PUSH1 0x0 DUP2 ISZERO ISZERO SWAP1 POP SWAP2 SWAP1 POP JUMP JUMPDEST PUSH1 0x0 PUSH20 0xFFFFFFFFFFFFFFFFFFFFFFFFFFFFFFFFFFFFFFFF DUP3 AND SWAP1 POP SWAP2 SWAP1 POP JUMP JUMPDEST PUSH1 0x0 DUP2 SWAP1 POP SWAP2 SWAP1 POP JUMP JUMPDEST DUP3 DUP2 DUP4 CALLDATACOPY PUSH1 0x0 DUP4 DUP4 ADD MSTORE POP POP POP JUMP JUMPDEST PUSH1 0x0 JUMPDEST DUP4 DUP2 LT ISZERO PUSH2 0xD16 JUMPI DUP1 DUP3 ADD MLOAD DUP2 DUP5 ADD MSTORE PUSH1 0x20 DUP2 ADD SWAP1 POP PUSH2 0xCFB JUMP JUMPDEST DUP4 DUP2 GT ISZERO PUSH2 0xD25 JUMPI PUSH1 0x0 DUP5 DUP5 ADD MSTORE JUMPDEST POP POP POP POP JUMP JUMPDEST PUSH1 0x0 PUSH1 0x2 DUP3 DIV SWAP1 POP PUSH1 0x1 DUP3 AND DUP1 PUSH2 0xD43 JUMPI PUSH1 0x7F DUP3 AND SWAP2 POP JUMPDEST PUSH1 0x20 DUP3 LT DUP2 EQ ISZERO PUSH2 0xD57 JUMPI PUSH2 0xD56 PUSH2 0xE06 JUMP JUMPDEST JUMPDEST POP SWAP2 SWAP1 POP JUMP JUMPDEST PUSH2 0xD66 DUP3 PUSH2 0xEA7 JUMP JUMPDEST DUP2 ADD DUP2 DUP2 LT PUSH8 0xFFFFFFFFFFFFFFFF DUP3 GT OR ISZERO PUSH2 0xD85 JUMPI PUSH2 0xD84 PUSH2 0xE64 JUMP JUMPDEST JUMPDEST DUP1 PUSH1 0x40 MSTORE POP POP POP JUMP JUMPDEST PUSH1 0x0 PUSH2 0xD99 DUP3 PUSH2 0xCDF JUMP JUMPDEST SWAP2 POP PUSH32 0xFFFFFFFFFFFFFFFFFFFFFFFFFFFFFFFFFFFFFFFFFFFFFFFFFFFFFFFFFFFFFFFF DUP3 EQ ISZERO PUSH2 0xDCC JUMPI PUSH2 0xDCB PUSH2 0xDD7 JUMP JUMPDEST JUMPDEST PUSH1 0x1 DUP3 ADD SWAP1 POP SWAP2 SWAP1 POP JUMP JUMPDEST PUSH32 0x4E487B7100000000000000000000000000000000000000000000000000000000 PUSH1 0x0 MSTORE PUSH1 0x11 PUSH1 0x4 MSTORE PUSH1 0x24 PUSH1 0x0 REVERT JUMPDEST PUSH32 0x4E487B7100000000000000000000000000000000000000000000000000000000 PUSH1 0x0 MSTORE PUSH1 0x22 PUSH1 0x4 MSTORE PUSH1 0x24 PUSH1 0x0 REVERT JUMPDEST PUSH32 0x4E487B7100000000000000000000000000000000000000000000000000000000 PUSH1 0x0 MSTORE PUSH1 0x32 PUSH1 0x4 MSTORE PUSH1 0x24 PUSH1 0x0 REVERT JUMPDEST PUSH32 0x4E487B7100000000000000000000000000000000000000000000000000000000 PUSH1 0x0 MSTORE PUSH1 0x41 PUSH1 0x4 MSTORE PUSH1 0x24 PUSH1 0x0 REVERT JUMPDEST PUSH1 0x0 DUP1 REVERT JUMPDEST PUSH1 0x0 DUP1 REVERT JUMPDEST PUSH1 0x0 DUP1 REVERT JUMPDEST PUSH1 0x0 DUP1 REVERT JUMPDEST PUSH1 0x0 PUSH1 0x1F NOT PUSH1 0x1F DUP4 ADD AND SWAP1 POP SWAP2 SWAP1 POP JUMP JUMPDEST PUSH32 0x596F75206D000000000000000000000000000000000000000000000000000000 PUSH1 0x0 DUP3 ADD MSTORE POP JUMP JUMPDEST PUSH2 0xEEA DUP2 PUSH2 0xC8F JUMP JUMPDEST DUP2 EQ PUSH2 0xEF5 JUMPI PUSH1 0x0 DUP1 REVERT JUMPDEST POP JUMP JUMPDEST PUSH2 0xF01 DUP2 PUSH2 0xCA1 JUMP JUMPDEST DUP2 EQ PUSH2 0xF0C JUMPI PUSH1 0x0 DUP1 REVERT JUMPDEST POP JUMP JUMPDEST PUSH2 0xF18 DUP2 PUSH2 0xCB3 JUMP JUMPDEST DUP2 EQ PUSH2 0xF23 JUMPI PUSH1 0x0 DUP1 REVERT JUMPDEST POP JUMP JUMPDEST PUSH2 0xF2F DUP2 PUSH2 0xCDF JUMP JUMPDEST DUP2 EQ PUSH2 0xF3A JUMPI PUSH1 0x0 DUP1 REVERT JUMPDEST POP JUMP INVALID LOG2 PUSH5 0x6970667358 0x22 SLT KECCAK256 0xB4 AND 0xDF 0x5D CALLER 0xC9 0xBE 0xBC SLT 0xAF 0xBB BYTE RETURNDATACOPY SWAP3 0xAA NOT 0xD9 0xCA PUSH28 0xADE464164F82A14703C294111B64736F6C6343000807003300000000 "
				},
				"gasEstimates": {
					"creation": {
						"codeDepositCost": "791000",
						"executionCost": "25091",
						"totalCost": "816091"
					},
					"external": {
						"addKid(address,string,string,uint256,uint256,bool)": "infinite",
						"availableTowithdraw(address)": "infinite",
						"balanceof()": "339",
						"deposit(address)": "infinite",
						"kids(uint256)": "infinite",
						"withdraw(address)": "infinite"
					},
					"internal": {
						"addtoKidsBalance(address)": "infinite",
						"getindex(address)": "infinite"
					}
				},
				"methodIdentifiers": {
					"addKid(address,string,string,uint256,uint256,bool)": "31d575c5",
					"availableTowithdraw(address)": "24bc2db6",
					"balanceof()": "2980a5d3",
					"deposit(address)": "f340fa01",
					"kids(uint256)": "7285fd3a",
					"withdraw(address)": "51cff8d9"
				}
			},
			"storageLayout": {
				"storage": [
					{
						"astId": 3,
						"contract": "contracts/CryptoKids.sol:CryptoKids",
						"label": "owner",
						"offset": 0,
						"slot": "0",
						"type": "t_address"
					},
					{
						"astId": 29,
						"contract": "contracts/CryptoKids.sol:CryptoKids",
						"label": "kids",
						"offset": 0,
						"slot": "1",
						"type": "t_array(t_struct(Kid)25_storage)dyn_storage"
					}
				],
				"types": {
					"t_address": {
						"encoding": "inplace",
						"label": "address",
						"numberOfBytes": "20"
					},
					"t_address_payable": {
						"encoding": "inplace",
						"label": "address payable",
						"numberOfBytes": "20"
					},
					"t_array(t_struct(Kid)25_storage)dyn_storage": {
						"base": "t_struct(Kid)25_storage",
						"encoding": "dynamic_array",
						"label": "struct CryptoKids.Kid[]",
						"numberOfBytes": "32"
					},
					"t_bool": {
						"encoding": "inplace",
						"label": "bool",
						"numberOfBytes": "1"
					},
					"t_string_storage": {
						"encoding": "bytes",
						"label": "string",
						"numberOfBytes": "32"
					},
					"t_struct(Kid)25_storage": {
						"encoding": "inplace",
						"label": "struct CryptoKids.Kid",
						"members": [
							{
								"astId": 14,
								"contract": "contracts/CryptoKids.sol:CryptoKids",
								"label": "walletAddress",
								"offset": 0,
								"slot": "0",
								"type": "t_address_payable"
							},
							{
								"astId": 16,
								"contract": "contracts/CryptoKids.sol:CryptoKids",
								"label": "fullName",
								"offset": 0,
								"slot": "1",
								"type": "t_string_storage"
							},
							{
								"astId": 18,
								"contract": "contracts/CryptoKids.sol:CryptoKids",
								"label": "lastName",
								"offset": 0,
								"slot": "2",
								"type": "t_string_storage"
							},
							{
								"astId": 20,
								"contract": "contracts/CryptoKids.sol:CryptoKids",
								"label": "releaseTime",
								"offset": 0,
								"slot": "3",
								"type": "t_uint256"
							},
							{
								"astId": 22,
								"contract": "contracts/CryptoKids.sol:CryptoKids",
								"label": "amount",
								"offset": 0,
								"slot": "4",
								"type": "t_uint256"
							},
							{
								"astId": 24,
								"contract": "contracts/CryptoKids.sol:CryptoKids",
								"label": "canWithdraw",
								"offset": 0,
								"slot": "5",
								"type": "t_bool"
							}
						],
						"numberOfBytes": "192"
					},
					"t_uint256": {
						"encoding": "inplace",
						"label": "uint256",
						"numberOfBytes": "32"
					}
				}
			},
			"userdoc": {
				"kind": "user",
				"methods": {},
				"version": 1
			}
		}
	}
}